{
  "_format": "hh-sol-artifact-1",
  "contractName": "StakingWarmup",
  "sourceName": "contracts/StakingWarmup.sol",
  "abi": [
    {
      "inputs": [
        {
          "internalType": "address",
          "name": "_staking",
          "type": "address"
        },
        {
          "internalType": "address",
          "name": "_MEMOries",
          "type": "address"
        }
      ],
      "stateMutability": "nonpayable",
      "type": "constructor"
    },
    {
      "inputs": [],
      "name": "MEMOries",
      "outputs": [
        {
          "internalType": "contract IERC20",
          "name": "",
          "type": "address"
        }
      ],
      "stateMutability": "view",
      "type": "function"
    },
    {
      "inputs": [
        {
          "internalType": "address",
          "name": "_staker",
          "type": "address"
        },
        {
          "internalType": "uint256",
          "name": "_amount",
          "type": "uint256"
        }
      ],
      "name": "retrieve",
      "outputs": [],
      "stateMutability": "nonpayable",
      "type": "function"
    },
    {
      "inputs": [],
      "name": "staking",
      "outputs": [
        {
          "internalType": "address",
          "name": "",
          "type": "address"
        }
      ],
      "stateMutability": "view",
      "type": "function"
    }
  ],
  "bytecode": "0x60c060405234801561001057600080fd5b5060405161034138038061034183398101604081905261002f91610089565b6001600160a01b03821661004257600080fd5b6001600160a01b03808316608052811661005b57600080fd5b6001600160a01b031660a052506100bc565b80516001600160a01b038116811461008457600080fd5b919050565b6000806040838503121561009c57600080fd5b6100a58361006d565b91506100b36020840161006d565b90509250929050565b60805160a0516102556100ec60003960008181604b015261014c015260008181608e015260d001526102556000f3fe608060405234801561001057600080fd5b50600436106100415760003560e01c806349880e52146100465780634cf088d914610089578063c3a2a665146100b0575b600080fd5b61006d7f000000000000000000000000000000000000000000000000000000000000000081565b6040516001600160a01b03909116815260200160405180910390f35b61006d7f000000000000000000000000000000000000000000000000000000000000000081565b6100c36100be3660046101be565b6100c5565b005b336001600160a01b037f000000000000000000000000000000000000000000000000000000000000000016146101265760405162461bcd60e51b81526020600482015260026024820152614e4160f01b604482015260640160405180910390fd5b60405163a9059cbb60e01b81526001600160a01b038381166004830152602482018390527f0000000000000000000000000000000000000000000000000000000000000000169063a9059cbb906044016020604051808303816000875af1158015610195573d6000803e3d6000fd5b505050506040513d601f19601f820116820180604052508101906101b991906101f6565b505050565b600080604083850312156101d157600080fd5b82356001600160a01b03811681146101e857600080fd5b946020939093013593505050565b60006020828403121561020857600080fd5b8151801515811461021857600080fd5b939250505056fea264697066735822122006e238049b9796dede4cb09035abacebae1e15145d7072ecb72ba20506cf0ead64736f6c634300080c0033",
  "linkReferences": {},
  "deployedLinkReferences": {}
}