{
  "contracts/TimeBondingCalculator.sol": {
    "TimeBondingCalculator": {
      "abi": [
        {
          "inputs": [
            {
              "internalType": "address",
              "name": "_Time",
              "type": "address"
            }
          ],
          "stateMutability": "nonpayable",
          "type": "constructor"
        },
        {
          "inputs": [],
          "name": "Time",
          "outputs": [
            {
              "internalType": "contract IERC20",
              "name": "",
              "type": "address"
            }
          ],
          "stateMutability": "view",
          "type": "function"
        },
        {
          "inputs": [
            {
              "internalType": "address",
              "name": "_pair",
              "type": "address"
            }
          ],
          "name": "getKValue",
          "outputs": [
            {
              "internalType": "uint256",
              "name": "k_",
              "type": "uint256"
            }
          ],
          "stateMutability": "view",
          "type": "function"
        },
        {
          "inputs": [
            {
              "internalType": "address",
              "name": "_pair",
              "type": "address"
            }
          ],
          "name": "getTotalValue",
          "outputs": [
            {
              "internalType": "uint256",
              "name": "_value",
              "type": "uint256"
            }
          ],
          "stateMutability": "view",
          "type": "function"
        },
        {
          "inputs": [
            {
              "internalType": "address",
              "name": "_pair",
              "type": "address"
            }
          ],
          "name": "markdown",
          "outputs": [
            {
              "internalType": "uint256",
              "name": "",
              "type": "uint256"
            }
          ],
          "stateMutability": "view",
          "type": "function"
        },
        {
          "inputs": [
            {
              "internalType": "address",
              "name": "_pair",
              "type": "address"
            },
            {
              "internalType": "uint256",
              "name": "amount_",
              "type": "uint256"
            }
          ],
          "name": "valuation",
          "outputs": [
            {
              "internalType": "uint256",
              "name": "_value",
              "type": "uint256"
            }
          ],
          "stateMutability": "view",
          "type": "function"
        }
      ],
      "evm": {
        "bytecode": {
          "linkReferences": {},
          "object": "60a060405234801561001057600080fd5b50604051610fdf380380610fdf83398101604081905261002f91610053565b6001600160a01b03811661004257600080fd5b6001600160a01b0316608052610083565b60006020828403121561006557600080fd5b81516001600160a01b038116811461007c57600080fd5b9392505050565b608051610f2d6100b26000396000818160c00152818161017c0152818161021e015261030c0152610f2d6000f3fe608060405234801561001057600080fd5b50600436106100575760003560e01c806332da80a31461005c5780634249719f14610082578063490084ef1461009557806368637549146100a8578063f8e157ea146100bb575b600080fd5b61006f61006a366004610c5b565b6100fa565b6040519081526020015b60405180910390f35b61006f610090366004610c78565b6103b8565b61006f6100a3366004610c5b565b610454565b61006f6100b6366004610c5b565b610755565b6100e27f000000000000000000000000000000000000000000000000000000000000000081565b6040516001600160a01b039091168152602001610079565b6000806000836001600160a01b0316630902f1ac6040518163ffffffff1660e01b8152600401606060405180830381865afa15801561013d573d6000803e3d6000fd5b505050506040513d601f19601f820116820180604052508101906101619190610cbb565b506001600160701b031691506001600160701b0316915060007f00000000000000000000000000000000000000000000000000000000000000006001600160a01b0316856001600160a01b0316630dfe16816040518163ffffffff1660e01b8152600401602060405180830381865afa1580156101e2573d6000803e3d6000fd5b505050506040513d601f19601f820116820180604052508101906102069190610d0b565b6001600160a01b0316141561021c5750806102fb565b7f00000000000000000000000000000000000000000000000000000000000000006001600160a01b0316856001600160a01b031663d21220a76040518163ffffffff1660e01b8152600401602060405180830381865afa158015610284573d6000803e3d6000fd5b505050506040513d601f19601f820116820180604052508101906102a89190610d0b565b6001600160a01b0316146102f85760405162461bcd60e51b81526020600482015260126024820152713737ba1030902a34b6b2903638103830b4b960711b60448201526064015b60405180910390fd5b50815b6103af61030786610755565b6103a97f00000000000000000000000000000000000000000000000000000000000000006001600160a01b031663313ce5676040518163ffffffff1660e01b8152600401602060405180830381865afa158015610368573d6000803e3d6000fd5b505050506040513d601f19601f8201168201806040525081019061038c9190610d28565b61039790600a610e3d565b6103a2906002610e4c565b8490610773565b906107a0565b95945050505050565b6000806103c484610755565b90506000846001600160a01b03166318160ddd6040518163ffffffff1660e01b8152600401602060405180830381865afa158015610406573d6000803e3d6000fd5b505050506040513d601f19601f8201168201806040525081019061042a9190610e6b565b90506103af670de0b6b3a76400006103a961044d61044888866107bf565b6108fa565b8590610773565b600080826001600160a01b0316630dfe16816040518163ffffffff1660e01b8152600401602060405180830381865afa158015610495573d6000803e3d6000fd5b505050506040513d601f19601f820116820180604052508101906104b99190610d0b565b6001600160a01b031663313ce5676040518163ffffffff1660e01b8152600401602060405180830381865afa1580156104f6573d6000803e3d6000fd5b505050506040513d601f19601f8201168201806040525081019061051a9190610d28565b60ff1690506000836001600160a01b031663d21220a76040518163ffffffff1660e01b8152600401602060405180830381865afa15801561055f573d6000803e3d6000fd5b505050506040513d601f19601f820116820180604052508101906105839190610d0b565b6001600160a01b031663313ce5676040518163ffffffff1660e01b8152600401602060405180830381865afa1580156105c0573d6000803e3d6000fd5b505050506040513d601f19601f820116820180604052508101906105e49190610d28565b60ff1690506000846001600160a01b031663313ce5676040518163ffffffff1660e01b8152600401602060405180830381865afa158015610629573d6000803e3d6000fd5b505050506040513d601f19601f8201168201806040525081019061064d9190610d28565b60ff169050600080866001600160a01b0316630902f1ac6040518163ffffffff1660e01b8152600401606060405180830381865afa158015610693573d6000803e3d6000fd5b505050506040513d601f19601f820116820180604052508101906106b79190610cbb565b506001600160701b039182169350169050826106d3868661091a565b10156107175760006106ef6106e8878761091a565b8590610935565b905061070f6106ff82600a610e84565b6107098585610773565b90610773565b96505061074b565b600061072d84610727888861091a565b90610935565b905061074761073d82600a610e84565b6103a98585610773565b9650505b5050505050919050565b600061076d600261070961076885610454565b610950565b92915050565b6000821580610797575081836107898282610e4c565b92506107959083610ea6565b145b61076d57600080fd5b60008082116107ae57600080fd5b6107b88284610ea6565b9392505050565b6040805160208101909152600081526000821161082d5760405162461bcd60e51b815260206004820152602660248201527f4669786564506f696e743a3a6672616374696f6e3a206469766973696f6e206260448201526579207a65726f60d01b60648201526084016102ef565b82610847575060408051602081019091526000815261076d565b71ffffffffffffffffffffffffffffffffffff83116108e957600061087083607086901b610ea6565b90506001600160e01b038111156108c95760405162461bcd60e51b815260206004820152601e60248201527f4669786564506f696e743a3a6672616374696f6e3a206f766572666c6f77000060448201526064016102ef565b6040518060200160405280826001600160e01b031681525091505061076d565b600061087084600160701b856109bb565b805160009061076d906612725dd1d243ab906001600160e01b0316610ea6565b6000826109278382610ec8565b915081101561076d57600080fd5b6000826109428382610ee0565b915081111561076d57600080fd5b600060038211156109ac575080600061097461096d8360026107a0565b600161091a565b90505b818110156109a65780915061099f61099861099285846107a0565b8361091a565b60026107a0565b9050610977565b50919050565b81156109b6575060015b919050565b60008060006109ca8686610a6a565b91509150600084806109de576109de610e90565b8688099050828111156109f9576109f6600183610ee0565b91505b610a038184610ee0565b9250848210610a545760405162461bcd60e51b815260206004820152601a60248201527f46756c6c4d6174683a3a6d756c4469763a206f766572666c6f7700000000000060448201526064016102ef565b610a5f838387610aac565b979650505050505050565b600080806000198486099050610a808486610e4c565b9250610a8c8382610ee0565b915082811015610aa457610aa1600183610ee0565b91505b509250929050565b600080610abb83600019610ee0565b610ac6906001610ec8565b83169050610ad48184610ea6565b9250610ae08186610ea6565b945080610aef81600019610ee0565b610afa906001610ec8565b610b049190610ea6565b610b0f906001610ec8565b610b199085610e4c565b610b239086610ec8565b94506001610b318185610e4c565b610b3c906002610ee0565b610b469082610e4c565b9050610b528185610e4c565b610b5d906002610ee0565b610b679082610e4c565b9050610b738185610e4c565b610b7e906002610ee0565b610b889082610e4c565b9050610b948185610e4c565b610b9f906002610ee0565b610ba99082610e4c565b9050610bb58185610e4c565b610bc0906002610ee0565b610bca9082610e4c565b9050610bd68185610e4c565b610be1906002610ee0565b610beb9082610e4c565b9050610bf78185610e4c565b610c02906002610ee0565b610c0c9082610e4c565b9050610c188185610e4c565b610c23906002610ee0565b610c2d9082610e4c565b9050610c398187610e4c565b9695505050505050565b6001600160a01b0381168114610c5857600080fd5b50565b600060208284031215610c6d57600080fd5b81356107b881610c43565b60008060408385031215610c8b57600080fd5b8235610c9681610c43565b946020939093013593505050565b80516001600160701b03811681146109b657600080fd5b600080600060608486031215610cd057600080fd5b610cd984610ca4565b9250610ce760208501610ca4565b9150604084015163ffffffff81168114610d0057600080fd5b809150509250925092565b600060208284031215610d1d57600080fd5b81516107b881610c43565b600060208284031215610d3a57600080fd5b815160ff811681146107b857600080fd5b634e487b7160e01b600052601160045260246000fd5b600181815b80851115610aa4578160001904821115610d8257610d82610d4b565b80851615610d8f57918102915b93841c9390800290610d66565b600082610dab5750600161076d565b81610db85750600061076d565b8160018114610dce5760028114610dd857610df4565b600191505061076d565b60ff841115610de957610de9610d4b565b50506001821b61076d565b5060208310610133831016604e8410600b8410161715610e17575081810a61076d565b610e218383610d61565b8060001904821115610e3557610e35610d4b565b029392505050565b60006107b860ff841683610d9c565b6000816000190483118215151615610e6657610e66610d4b565b500290565b600060208284031215610e7d57600080fd5b5051919050565b60006107b88383610d9c565b634e487b7160e01b600052601260045260246000fd5b600082610ec357634e487b7160e01b600052601260045260246000fd5b500490565b60008219821115610edb57610edb610d4b565b500190565b600082821015610ef257610ef2610d4b565b50039056fea26469706673582212204664800dd1448ff24e3083125c3ba79fae0b975ca3961a45d80b0d7e11715d3d64736f6c634300080c0033",
          "opcodes": "PUSH1 0xA0 PUSH1 0x40 MSTORE CALLVALUE DUP1 ISZERO PUSH2 0x10 JUMPI PUSH1 0x0 DUP1 REVERT JUMPDEST POP PUSH1 0x40 MLOAD PUSH2 0xFDF CODESIZE SUB DUP1 PUSH2 0xFDF DUP4 CODECOPY DUP2 ADD PUSH1 0x40 DUP2 SWAP1 MSTORE PUSH2 0x2F SWAP2 PUSH2 0x53 JUMP JUMPDEST PUSH1 0x1 PUSH1 0x1 PUSH1 0xA0 SHL SUB DUP2 AND PUSH2 0x42 JUMPI PUSH1 0x0 DUP1 REVERT JUMPDEST PUSH1 0x1 PUSH1 0x1 PUSH1 0xA0 SHL SUB AND PUSH1 0x80 MSTORE PUSH2 0x83 JUMP JUMPDEST PUSH1 0x0 PUSH1 0x20 DUP3 DUP5 SUB SLT ISZERO PUSH2 0x65 JUMPI PUSH1 0x0 DUP1 REVERT JUMPDEST DUP2 MLOAD PUSH1 0x1 PUSH1 0x1 PUSH1 0xA0 SHL SUB DUP2 AND DUP2 EQ PUSH2 0x7C JUMPI PUSH1 0x0 DUP1 REVERT JUMPDEST SWAP4 SWAP3 POP POP POP JUMP JUMPDEST PUSH1 0x80 MLOAD PUSH2 0xF2D PUSH2 0xB2 PUSH1 0x0 CODECOPY PUSH1 0x0 DUP2 DUP2 PUSH1 0xC0 ADD MSTORE DUP2 DUP2 PUSH2 0x17C ADD MSTORE DUP2 DUP2 PUSH2 0x21E ADD MSTORE PUSH2 0x30C ADD MSTORE PUSH2 0xF2D PUSH1 0x0 RETURN INVALID PUSH1 0x80 PUSH1 0x40 MSTORE CALLVALUE DUP1 ISZERO PUSH2 0x10 JUMPI PUSH1 0x0 DUP1 REVERT JUMPDEST POP PUSH1 0x4 CALLDATASIZE LT PUSH2 0x57 JUMPI PUSH1 0x0 CALLDATALOAD PUSH1 0xE0 SHR DUP1 PUSH4 0x32DA80A3 EQ PUSH2 0x5C JUMPI DUP1 PUSH4 0x4249719F EQ PUSH2 0x82 JUMPI DUP1 PUSH4 0x490084EF EQ PUSH2 0x95 JUMPI DUP1 PUSH4 0x68637549 EQ PUSH2 0xA8 JUMPI DUP1 PUSH4 0xF8E157EA EQ PUSH2 0xBB JUMPI JUMPDEST PUSH1 0x0 DUP1 REVERT JUMPDEST PUSH2 0x6F PUSH2 0x6A CALLDATASIZE PUSH1 0x4 PUSH2 0xC5B JUMP JUMPDEST PUSH2 0xFA JUMP JUMPDEST PUSH1 0x40 MLOAD SWAP1 DUP2 MSTORE PUSH1 0x20 ADD JUMPDEST PUSH1 0x40 MLOAD DUP1 SWAP2 SUB SWAP1 RETURN JUMPDEST PUSH2 0x6F PUSH2 0x90 CALLDATASIZE PUSH1 0x4 PUSH2 0xC78 JUMP JUMPDEST PUSH2 0x3B8 JUMP JUMPDEST PUSH2 0x6F PUSH2 0xA3 CALLDATASIZE PUSH1 0x4 PUSH2 0xC5B JUMP JUMPDEST PUSH2 0x454 JUMP JUMPDEST PUSH2 0x6F PUSH2 0xB6 CALLDATASIZE PUSH1 0x4 PUSH2 0xC5B JUMP JUMPDEST PUSH2 0x755 JUMP JUMPDEST PUSH2 0xE2 PUSH32 0x0 DUP2 JUMP JUMPDEST PUSH1 0x40 MLOAD PUSH1 0x1 PUSH1 0x1 PUSH1 0xA0 SHL SUB SWAP1 SWAP2 AND DUP2 MSTORE PUSH1 0x20 ADD PUSH2 0x79 JUMP JUMPDEST PUSH1 0x0 DUP1 PUSH1 0x0 DUP4 PUSH1 0x1 PUSH1 0x1 PUSH1 0xA0 SHL SUB AND PUSH4 0x902F1AC PUSH1 0x40 MLOAD DUP2 PUSH4 0xFFFFFFFF AND PUSH1 0xE0 SHL DUP2 MSTORE PUSH1 0x4 ADD PUSH1 0x60 PUSH1 0x40 MLOAD DUP1 DUP4 SUB DUP2 DUP7 GAS STATICCALL ISZERO DUP1 ISZERO PUSH2 0x13D JUMPI RETURNDATASIZE PUSH1 0x0 DUP1 RETURNDATACOPY RETURNDATASIZE PUSH1 0x0 REVERT JUMPDEST POP POP POP POP PUSH1 0x40 MLOAD RETURNDATASIZE PUSH1 0x1F NOT PUSH1 0x1F DUP3 ADD AND DUP3 ADD DUP1 PUSH1 0x40 MSTORE POP DUP2 ADD SWAP1 PUSH2 0x161 SWAP2 SWAP1 PUSH2 0xCBB JUMP JUMPDEST POP PUSH1 0x1 PUSH1 0x1 PUSH1 0x70 SHL SUB AND SWAP2 POP PUSH1 0x1 PUSH1 0x1 PUSH1 0x70 SHL SUB AND SWAP2 POP PUSH1 0x0 PUSH32 0x0 PUSH1 0x1 PUSH1 0x1 PUSH1 0xA0 SHL SUB AND DUP6 PUSH1 0x1 PUSH1 0x1 PUSH1 0xA0 SHL SUB AND PUSH4 0xDFE1681 PUSH1 0x40 MLOAD DUP2 PUSH4 0xFFFFFFFF AND PUSH1 0xE0 SHL DUP2 MSTORE PUSH1 0x4 ADD PUSH1 0x20 PUSH1 0x40 MLOAD DUP1 DUP4 SUB DUP2 DUP7 GAS STATICCALL ISZERO DUP1 ISZERO PUSH2 0x1E2 JUMPI RETURNDATASIZE PUSH1 0x0 DUP1 RETURNDATACOPY RETURNDATASIZE PUSH1 0x0 REVERT JUMPDEST POP POP POP POP PUSH1 0x40 MLOAD RETURNDATASIZE PUSH1 0x1F NOT PUSH1 0x1F DUP3 ADD AND DUP3 ADD DUP1 PUSH1 0x40 MSTORE POP DUP2 ADD SWAP1 PUSH2 0x206 SWAP2 SWAP1 PUSH2 0xD0B JUMP JUMPDEST PUSH1 0x1 PUSH1 0x1 PUSH1 0xA0 SHL SUB AND EQ ISZERO PUSH2 0x21C JUMPI POP DUP1 PUSH2 0x2FB JUMP JUMPDEST PUSH32 0x0 PUSH1 0x1 PUSH1 0x1 PUSH1 0xA0 SHL SUB AND DUP6 PUSH1 0x1 PUSH1 0x1 PUSH1 0xA0 SHL SUB AND PUSH4 0xD21220A7 PUSH1 0x40 MLOAD DUP2 PUSH4 0xFFFFFFFF AND PUSH1 0xE0 SHL DUP2 MSTORE PUSH1 0x4 ADD PUSH1 0x20 PUSH1 0x40 MLOAD DUP1 DUP4 SUB DUP2 DUP7 GAS STATICCALL ISZERO DUP1 ISZERO PUSH2 0x284 JUMPI RETURNDATASIZE PUSH1 0x0 DUP1 RETURNDATACOPY RETURNDATASIZE PUSH1 0x0 REVERT JUMPDEST POP POP POP POP PUSH1 0x40 MLOAD RETURNDATASIZE PUSH1 0x1F NOT PUSH1 0x1F DUP3 ADD AND DUP3 ADD DUP1 PUSH1 0x40 MSTORE POP DUP2 ADD SWAP1 PUSH2 0x2A8 SWAP2 SWAP1 PUSH2 0xD0B JUMP JUMPDEST PUSH1 0x1 PUSH1 0x1 PUSH1 0xA0 SHL SUB AND EQ PUSH2 0x2F8 JUMPI PUSH1 0x40 MLOAD PUSH3 0x461BCD PUSH1 0xE5 SHL DUP2 MSTORE PUSH1 0x20 PUSH1 0x4 DUP3 ADD MSTORE PUSH1 0x12 PUSH1 0x24 DUP3 ADD MSTORE PUSH18 0x3737BA1030902A34B6B2903638103830B4B9 PUSH1 0x71 SHL PUSH1 0x44 DUP3 ADD MSTORE PUSH1 0x64 ADD JUMPDEST PUSH1 0x40 MLOAD DUP1 SWAP2 SUB SWAP1 REVERT JUMPDEST POP DUP2 JUMPDEST PUSH2 0x3AF PUSH2 0x307 DUP7 PUSH2 0x755 JUMP JUMPDEST PUSH2 0x3A9 PUSH32 0x0 PUSH1 0x1 PUSH1 0x1 PUSH1 0xA0 SHL SUB AND PUSH4 0x313CE567 PUSH1 0x40 MLOAD DUP2 PUSH4 0xFFFFFFFF AND PUSH1 0xE0 SHL DUP2 MSTORE PUSH1 0x4 ADD PUSH1 0x20 PUSH1 0x40 MLOAD DUP1 DUP4 SUB DUP2 DUP7 GAS STATICCALL ISZERO DUP1 ISZERO PUSH2 0x368 JUMPI RETURNDATASIZE PUSH1 0x0 DUP1 RETURNDATACOPY RETURNDATASIZE PUSH1 0x0 REVERT JUMPDEST POP POP POP POP PUSH1 0x40 MLOAD RETURNDATASIZE PUSH1 0x1F NOT PUSH1 0x1F DUP3 ADD AND DUP3 ADD DUP1 PUSH1 0x40 MSTORE POP DUP2 ADD SWAP1 PUSH2 0x38C SWAP2 SWAP1 PUSH2 0xD28 JUMP JUMPDEST PUSH2 0x397 SWAP1 PUSH1 0xA PUSH2 0xE3D JUMP JUMPDEST PUSH2 0x3A2 SWAP1 PUSH1 0x2 PUSH2 0xE4C JUMP JUMPDEST DUP5 SWAP1 PUSH2 0x773 JUMP JUMPDEST SWAP1 PUSH2 0x7A0 JUMP JUMPDEST SWAP6 SWAP5 POP POP POP POP POP JUMP JUMPDEST PUSH1 0x0 DUP1 PUSH2 0x3C4 DUP5 PUSH2 0x755 JUMP JUMPDEST SWAP1 POP PUSH1 0x0 DUP5 PUSH1 0x1 PUSH1 0x1 PUSH1 0xA0 SHL SUB AND PUSH4 0x18160DDD PUSH1 0x40 MLOAD DUP2 PUSH4 0xFFFFFFFF AND PUSH1 0xE0 SHL DUP2 MSTORE PUSH1 0x4 ADD PUSH1 0x20 PUSH1 0x40 MLOAD DUP1 DUP4 SUB DUP2 DUP7 GAS STATICCALL ISZERO DUP1 ISZERO PUSH2 0x406 JUMPI RETURNDATASIZE PUSH1 0x0 DUP1 RETURNDATACOPY RETURNDATASIZE PUSH1 0x0 REVERT JUMPDEST POP POP POP POP PUSH1 0x40 MLOAD RETURNDATASIZE PUSH1 0x1F NOT PUSH1 0x1F DUP3 ADD AND DUP3 ADD DUP1 PUSH1 0x40 MSTORE POP DUP2 ADD SWAP1 PUSH2 0x42A SWAP2 SWAP1 PUSH2 0xE6B JUMP JUMPDEST SWAP1 POP PUSH2 0x3AF PUSH8 0xDE0B6B3A7640000 PUSH2 0x3A9 PUSH2 0x44D PUSH2 0x448 DUP9 DUP7 PUSH2 0x7BF JUMP JUMPDEST PUSH2 0x8FA JUMP JUMPDEST DUP6 SWAP1 PUSH2 0x773 JUMP JUMPDEST PUSH1 0x0 DUP1 DUP3 PUSH1 0x1 PUSH1 0x1 PUSH1 0xA0 SHL SUB AND PUSH4 0xDFE1681 PUSH1 0x40 MLOAD DUP2 PUSH4 0xFFFFFFFF AND PUSH1 0xE0 SHL DUP2 MSTORE PUSH1 0x4 ADD PUSH1 0x20 PUSH1 0x40 MLOAD DUP1 DUP4 SUB DUP2 DUP7 GAS STATICCALL ISZERO DUP1 ISZERO PUSH2 0x495 JUMPI RETURNDATASIZE PUSH1 0x0 DUP1 RETURNDATACOPY RETURNDATASIZE PUSH1 0x0 REVERT JUMPDEST POP POP POP POP PUSH1 0x40 MLOAD RETURNDATASIZE PUSH1 0x1F NOT PUSH1 0x1F DUP3 ADD AND DUP3 ADD DUP1 PUSH1 0x40 MSTORE POP DUP2 ADD SWAP1 PUSH2 0x4B9 SWAP2 SWAP1 PUSH2 0xD0B JUMP JUMPDEST PUSH1 0x1 PUSH1 0x1 PUSH1 0xA0 SHL SUB AND PUSH4 0x313CE567 PUSH1 0x40 MLOAD DUP2 PUSH4 0xFFFFFFFF AND PUSH1 0xE0 SHL DUP2 MSTORE PUSH1 0x4 ADD PUSH1 0x20 PUSH1 0x40 MLOAD DUP1 DUP4 SUB DUP2 DUP7 GAS STATICCALL ISZERO DUP1 ISZERO PUSH2 0x4F6 JUMPI RETURNDATASIZE PUSH1 0x0 DUP1 RETURNDATACOPY RETURNDATASIZE PUSH1 0x0 REVERT JUMPDEST POP POP POP POP PUSH1 0x40 MLOAD RETURNDATASIZE PUSH1 0x1F NOT PUSH1 0x1F DUP3 ADD AND DUP3 ADD DUP1 PUSH1 0x40 MSTORE POP DUP2 ADD SWAP1 PUSH2 0x51A SWAP2 SWAP1 PUSH2 0xD28 JUMP JUMPDEST PUSH1 0xFF AND SWAP1 POP PUSH1 0x0 DUP4 PUSH1 0x1 PUSH1 0x1 PUSH1 0xA0 SHL SUB AND PUSH4 0xD21220A7 PUSH1 0x40 MLOAD DUP2 PUSH4 0xFFFFFFFF AND PUSH1 0xE0 SHL DUP2 MSTORE PUSH1 0x4 ADD PUSH1 0x20 PUSH1 0x40 MLOAD DUP1 DUP4 SUB DUP2 DUP7 GAS STATICCALL ISZERO DUP1 ISZERO PUSH2 0x55F JUMPI RETURNDATASIZE PUSH1 0x0 DUP1 RETURNDATACOPY RETURNDATASIZE PUSH1 0x0 REVERT JUMPDEST POP POP POP POP PUSH1 0x40 MLOAD RETURNDATASIZE PUSH1 0x1F NOT PUSH1 0x1F DUP3 ADD AND DUP3 ADD DUP1 PUSH1 0x40 MSTORE POP DUP2 ADD SWAP1 PUSH2 0x583 SWAP2 SWAP1 PUSH2 0xD0B JUMP JUMPDEST PUSH1 0x1 PUSH1 0x1 PUSH1 0xA0 SHL SUB AND PUSH4 0x313CE567 PUSH1 0x40 MLOAD DUP2 PUSH4 0xFFFFFFFF AND PUSH1 0xE0 SHL DUP2 MSTORE PUSH1 0x4 ADD PUSH1 0x20 PUSH1 0x40 MLOAD DUP1 DUP4 SUB DUP2 DUP7 GAS STATICCALL ISZERO DUP1 ISZERO PUSH2 0x5C0 JUMPI RETURNDATASIZE PUSH1 0x0 DUP1 RETURNDATACOPY RETURNDATASIZE PUSH1 0x0 REVERT JUMPDEST POP POP POP POP PUSH1 0x40 MLOAD RETURNDATASIZE PUSH1 0x1F NOT PUSH1 0x1F DUP3 ADD AND DUP3 ADD DUP1 PUSH1 0x40 MSTORE POP DUP2 ADD SWAP1 PUSH2 0x5E4 SWAP2 SWAP1 PUSH2 0xD28 JUMP JUMPDEST PUSH1 0xFF AND SWAP1 POP PUSH1 0x0 DUP5 PUSH1 0x1 PUSH1 0x1 PUSH1 0xA0 SHL SUB AND PUSH4 0x313CE567 PUSH1 0x40 MLOAD DUP2 PUSH4 0xFFFFFFFF AND PUSH1 0xE0 SHL DUP2 MSTORE PUSH1 0x4 ADD PUSH1 0x20 PUSH1 0x40 MLOAD DUP1 DUP4 SUB DUP2 DUP7 GAS STATICCALL ISZERO DUP1 ISZERO PUSH2 0x629 JUMPI RETURNDATASIZE PUSH1 0x0 DUP1 RETURNDATACOPY RETURNDATASIZE PUSH1 0x0 REVERT JUMPDEST POP POP POP POP PUSH1 0x40 MLOAD RETURNDATASIZE PUSH1 0x1F NOT PUSH1 0x1F DUP3 ADD AND DUP3 ADD DUP1 PUSH1 0x40 MSTORE POP DUP2 ADD SWAP1 PUSH2 0x64D SWAP2 SWAP1 PUSH2 0xD28 JUMP JUMPDEST PUSH1 0xFF AND SWAP1 POP PUSH1 0x0 DUP1 DUP7 PUSH1 0x1 PUSH1 0x1 PUSH1 0xA0 SHL SUB AND PUSH4 0x902F1AC PUSH1 0x40 MLOAD DUP2 PUSH4 0xFFFFFFFF AND PUSH1 0xE0 SHL DUP2 MSTORE PUSH1 0x4 ADD PUSH1 0x60 PUSH1 0x40 MLOAD DUP1 DUP4 SUB DUP2 DUP7 GAS STATICCALL ISZERO DUP1 ISZERO PUSH2 0x693 JUMPI RETURNDATASIZE PUSH1 0x0 DUP1 RETURNDATACOPY RETURNDATASIZE PUSH1 0x0 REVERT JUMPDEST POP POP POP POP PUSH1 0x40 MLOAD RETURNDATASIZE PUSH1 0x1F NOT PUSH1 0x1F DUP3 ADD AND DUP3 ADD DUP1 PUSH1 0x40 MSTORE POP DUP2 ADD SWAP1 PUSH2 0x6B7 SWAP2 SWAP1 PUSH2 0xCBB JUMP JUMPDEST POP PUSH1 0x1 PUSH1 0x1 PUSH1 0x70 SHL SUB SWAP2 DUP3 AND SWAP4 POP AND SWAP1 POP DUP3 PUSH2 0x6D3 DUP7 DUP7 PUSH2 0x91A JUMP JUMPDEST LT ISZERO PUSH2 0x717 JUMPI PUSH1 0x0 PUSH2 0x6EF PUSH2 0x6E8 DUP8 DUP8 PUSH2 0x91A JUMP JUMPDEST DUP6 SWAP1 PUSH2 0x935 JUMP JUMPDEST SWAP1 POP PUSH2 0x70F PUSH2 0x6FF DUP3 PUSH1 0xA PUSH2 0xE84 JUMP JUMPDEST PUSH2 0x709 DUP6 DUP6 PUSH2 0x773 JUMP JUMPDEST SWAP1 PUSH2 0x773 JUMP JUMPDEST SWAP7 POP POP PUSH2 0x74B JUMP JUMPDEST PUSH1 0x0 PUSH2 0x72D DUP5 PUSH2 0x727 DUP9 DUP9 PUSH2 0x91A JUMP JUMPDEST SWAP1 PUSH2 0x935 JUMP JUMPDEST SWAP1 POP PUSH2 0x747 PUSH2 0x73D DUP3 PUSH1 0xA PUSH2 0xE84 JUMP JUMPDEST PUSH2 0x3A9 DUP6 DUP6 PUSH2 0x773 JUMP JUMPDEST SWAP7 POP POP JUMPDEST POP POP POP POP POP SWAP2 SWAP1 POP JUMP JUMPDEST PUSH1 0x0 PUSH2 0x76D PUSH1 0x2 PUSH2 0x709 PUSH2 0x768 DUP6 PUSH2 0x454 JUMP JUMPDEST PUSH2 0x950 JUMP JUMPDEST SWAP3 SWAP2 POP POP JUMP JUMPDEST PUSH1 0x0 DUP3 ISZERO DUP1 PUSH2 0x797 JUMPI POP DUP2 DUP4 PUSH2 0x789 DUP3 DUP3 PUSH2 0xE4C JUMP JUMPDEST SWAP3 POP PUSH2 0x795 SWAP1 DUP4 PUSH2 0xEA6 JUMP JUMPDEST EQ JUMPDEST PUSH2 0x76D JUMPI PUSH1 0x0 DUP1 REVERT JUMPDEST PUSH1 0x0 DUP1 DUP3 GT PUSH2 0x7AE JUMPI PUSH1 0x0 DUP1 REVERT JUMPDEST PUSH2 0x7B8 DUP3 DUP5 PUSH2 0xEA6 JUMP JUMPDEST SWAP4 SWAP3 POP POP POP JUMP JUMPDEST PUSH1 0x40 DUP1 MLOAD PUSH1 0x20 DUP2 ADD SWAP1 SWAP2 MSTORE PUSH1 0x0 DUP2 MSTORE PUSH1 0x0 DUP3 GT PUSH2 0x82D JUMPI PUSH1 0x40 MLOAD PUSH3 0x461BCD PUSH1 0xE5 SHL DUP2 MSTORE PUSH1 0x20 PUSH1 0x4 DUP3 ADD MSTORE PUSH1 0x26 PUSH1 0x24 DUP3 ADD MSTORE PUSH32 0x4669786564506F696E743A3A6672616374696F6E3A206469766973696F6E2062 PUSH1 0x44 DUP3 ADD MSTORE PUSH6 0x79207A65726F PUSH1 0xD0 SHL PUSH1 0x64 DUP3 ADD MSTORE PUSH1 0x84 ADD PUSH2 0x2EF JUMP JUMPDEST DUP3 PUSH2 0x847 JUMPI POP PUSH1 0x40 DUP1 MLOAD PUSH1 0x20 DUP2 ADD SWAP1 SWAP2 MSTORE PUSH1 0x0 DUP2 MSTORE PUSH2 0x76D JUMP JUMPDEST PUSH18 0xFFFFFFFFFFFFFFFFFFFFFFFFFFFFFFFFFFFF DUP4 GT PUSH2 0x8E9 JUMPI PUSH1 0x0 PUSH2 0x870 DUP4 PUSH1 0x70 DUP7 SWAP1 SHL PUSH2 0xEA6 JUMP JUMPDEST SWAP1 POP PUSH1 0x1 PUSH1 0x1 PUSH1 0xE0 SHL SUB DUP2 GT ISZERO PUSH2 0x8C9 JUMPI PUSH1 0x40 MLOAD PUSH3 0x461BCD PUSH1 0xE5 SHL DUP2 MSTORE PUSH1 0x20 PUSH1 0x4 DUP3 ADD MSTORE PUSH1 0x1E PUSH1 0x24 DUP3 ADD MSTORE PUSH32 0x4669786564506F696E743A3A6672616374696F6E3A206F766572666C6F770000 PUSH1 0x44 DUP3 ADD MSTORE PUSH1 0x64 ADD PUSH2 0x2EF JUMP JUMPDEST PUSH1 0x40 MLOAD DUP1 PUSH1 0x20 ADD PUSH1 0x40 MSTORE DUP1 DUP3 PUSH1 0x1 PUSH1 0x1 PUSH1 0xE0 SHL SUB AND DUP2 MSTORE POP SWAP2 POP POP PUSH2 0x76D JUMP JUMPDEST PUSH1 0x0 PUSH2 0x870 DUP5 PUSH1 0x1 PUSH1 0x70 SHL DUP6 PUSH2 0x9BB JUMP JUMPDEST DUP1 MLOAD PUSH1 0x0 SWAP1 PUSH2 0x76D SWAP1 PUSH7 0x12725DD1D243AB SWAP1 PUSH1 0x1 PUSH1 0x1 PUSH1 0xE0 SHL SUB AND PUSH2 0xEA6 JUMP JUMPDEST PUSH1 0x0 DUP3 PUSH2 0x927 DUP4 DUP3 PUSH2 0xEC8 JUMP JUMPDEST SWAP2 POP DUP2 LT ISZERO PUSH2 0x76D JUMPI PUSH1 0x0 DUP1 REVERT JUMPDEST PUSH1 0x0 DUP3 PUSH2 0x942 DUP4 DUP3 PUSH2 0xEE0 JUMP JUMPDEST SWAP2 POP DUP2 GT ISZERO PUSH2 0x76D JUMPI PUSH1 0x0 DUP1 REVERT JUMPDEST PUSH1 0x0 PUSH1 0x3 DUP3 GT ISZERO PUSH2 0x9AC JUMPI POP DUP1 PUSH1 0x0 PUSH2 0x974 PUSH2 0x96D DUP4 PUSH1 0x2 PUSH2 0x7A0 JUMP JUMPDEST PUSH1 0x1 PUSH2 0x91A JUMP JUMPDEST SWAP1 POP JUMPDEST DUP2 DUP2 LT ISZERO PUSH2 0x9A6 JUMPI DUP1 SWAP2 POP PUSH2 0x99F PUSH2 0x998 PUSH2 0x992 DUP6 DUP5 PUSH2 0x7A0 JUMP JUMPDEST DUP4 PUSH2 0x91A JUMP JUMPDEST PUSH1 0x2 PUSH2 0x7A0 JUMP JUMPDEST SWAP1 POP PUSH2 0x977 JUMP JUMPDEST POP SWAP2 SWAP1 POP JUMP JUMPDEST DUP2 ISZERO PUSH2 0x9B6 JUMPI POP PUSH1 0x1 JUMPDEST SWAP2 SWAP1 POP JUMP JUMPDEST PUSH1 0x0 DUP1 PUSH1 0x0 PUSH2 0x9CA DUP7 DUP7 PUSH2 0xA6A JUMP JUMPDEST SWAP2 POP SWAP2 POP PUSH1 0x0 DUP5 DUP1 PUSH2 0x9DE JUMPI PUSH2 0x9DE PUSH2 0xE90 JUMP JUMPDEST DUP7 DUP9 MULMOD SWAP1 POP DUP3 DUP2 GT ISZERO PUSH2 0x9F9 JUMPI PUSH2 0x9F6 PUSH1 0x1 DUP4 PUSH2 0xEE0 JUMP JUMPDEST SWAP2 POP JUMPDEST PUSH2 0xA03 DUP2 DUP5 PUSH2 0xEE0 JUMP JUMPDEST SWAP3 POP DUP5 DUP3 LT PUSH2 0xA54 JUMPI PUSH1 0x40 MLOAD PUSH3 0x461BCD PUSH1 0xE5 SHL DUP2 MSTORE PUSH1 0x20 PUSH1 0x4 DUP3 ADD MSTORE PUSH1 0x1A PUSH1 0x24 DUP3 ADD MSTORE PUSH32 0x46756C6C4D6174683A3A6D756C4469763A206F766572666C6F77000000000000 PUSH1 0x44 DUP3 ADD MSTORE PUSH1 0x64 ADD PUSH2 0x2EF JUMP JUMPDEST PUSH2 0xA5F DUP4 DUP4 DUP8 PUSH2 0xAAC JUMP JUMPDEST SWAP8 SWAP7 POP POP POP POP POP POP POP JUMP JUMPDEST PUSH1 0x0 DUP1 DUP1 PUSH1 0x0 NOT DUP5 DUP7 MULMOD SWAP1 POP PUSH2 0xA80 DUP5 DUP7 PUSH2 0xE4C JUMP JUMPDEST SWAP3 POP PUSH2 0xA8C DUP4 DUP3 PUSH2 0xEE0 JUMP JUMPDEST SWAP2 POP DUP3 DUP2 LT ISZERO PUSH2 0xAA4 JUMPI PUSH2 0xAA1 PUSH1 0x1 DUP4 PUSH2 0xEE0 JUMP JUMPDEST SWAP2 POP JUMPDEST POP SWAP3 POP SWAP3 SWAP1 POP JUMP JUMPDEST PUSH1 0x0 DUP1 PUSH2 0xABB DUP4 PUSH1 0x0 NOT PUSH2 0xEE0 JUMP JUMPDEST PUSH2 0xAC6 SWAP1 PUSH1 0x1 PUSH2 0xEC8 JUMP JUMPDEST DUP4 AND SWAP1 POP PUSH2 0xAD4 DUP2 DUP5 PUSH2 0xEA6 JUMP JUMPDEST SWAP3 POP PUSH2 0xAE0 DUP2 DUP7 PUSH2 0xEA6 JUMP JUMPDEST SWAP5 POP DUP1 PUSH2 0xAEF DUP2 PUSH1 0x0 NOT PUSH2 0xEE0 JUMP JUMPDEST PUSH2 0xAFA SWAP1 PUSH1 0x1 PUSH2 0xEC8 JUMP JUMPDEST PUSH2 0xB04 SWAP2 SWAP1 PUSH2 0xEA6 JUMP JUMPDEST PUSH2 0xB0F SWAP1 PUSH1 0x1 PUSH2 0xEC8 JUMP JUMPDEST PUSH2 0xB19 SWAP1 DUP6 PUSH2 0xE4C JUMP JUMPDEST PUSH2 0xB23 SWAP1 DUP7 PUSH2 0xEC8 JUMP JUMPDEST SWAP5 POP PUSH1 0x1 PUSH2 0xB31 DUP2 DUP6 PUSH2 0xE4C JUMP JUMPDEST PUSH2 0xB3C SWAP1 PUSH1 0x2 PUSH2 0xEE0 JUMP JUMPDEST PUSH2 0xB46 SWAP1 DUP3 PUSH2 0xE4C JUMP JUMPDEST SWAP1 POP PUSH2 0xB52 DUP2 DUP6 PUSH2 0xE4C JUMP JUMPDEST PUSH2 0xB5D SWAP1 PUSH1 0x2 PUSH2 0xEE0 JUMP JUMPDEST PUSH2 0xB67 SWAP1 DUP3 PUSH2 0xE4C JUMP JUMPDEST SWAP1 POP PUSH2 0xB73 DUP2 DUP6 PUSH2 0xE4C JUMP JUMPDEST PUSH2 0xB7E SWAP1 PUSH1 0x2 PUSH2 0xEE0 JUMP JUMPDEST PUSH2 0xB88 SWAP1 DUP3 PUSH2 0xE4C JUMP JUMPDEST SWAP1 POP PUSH2 0xB94 DUP2 DUP6 PUSH2 0xE4C JUMP JUMPDEST PUSH2 0xB9F SWAP1 PUSH1 0x2 PUSH2 0xEE0 JUMP JUMPDEST PUSH2 0xBA9 SWAP1 DUP3 PUSH2 0xE4C JUMP JUMPDEST SWAP1 POP PUSH2 0xBB5 DUP2 DUP6 PUSH2 0xE4C JUMP JUMPDEST PUSH2 0xBC0 SWAP1 PUSH1 0x2 PUSH2 0xEE0 JUMP JUMPDEST PUSH2 0xBCA SWAP1 DUP3 PUSH2 0xE4C JUMP JUMPDEST SWAP1 POP PUSH2 0xBD6 DUP2 DUP6 PUSH2 0xE4C JUMP JUMPDEST PUSH2 0xBE1 SWAP1 PUSH1 0x2 PUSH2 0xEE0 JUMP JUMPDEST PUSH2 0xBEB SWAP1 DUP3 PUSH2 0xE4C JUMP JUMPDEST SWAP1 POP PUSH2 0xBF7 DUP2 DUP6 PUSH2 0xE4C JUMP JUMPDEST PUSH2 0xC02 SWAP1 PUSH1 0x2 PUSH2 0xEE0 JUMP JUMPDEST PUSH2 0xC0C SWAP1 DUP3 PUSH2 0xE4C JUMP JUMPDEST SWAP1 POP PUSH2 0xC18 DUP2 DUP6 PUSH2 0xE4C JUMP JUMPDEST PUSH2 0xC23 SWAP1 PUSH1 0x2 PUSH2 0xEE0 JUMP JUMPDEST PUSH2 0xC2D SWAP1 DUP3 PUSH2 0xE4C JUMP JUMPDEST SWAP1 POP PUSH2 0xC39 DUP2 DUP8 PUSH2 0xE4C JUMP JUMPDEST SWAP7 SWAP6 POP POP POP POP POP POP JUMP JUMPDEST PUSH1 0x1 PUSH1 0x1 PUSH1 0xA0 SHL SUB DUP2 AND DUP2 EQ PUSH2 0xC58 JUMPI PUSH1 0x0 DUP1 REVERT JUMPDEST POP JUMP JUMPDEST PUSH1 0x0 PUSH1 0x20 DUP3 DUP5 SUB SLT ISZERO PUSH2 0xC6D JUMPI PUSH1 0x0 DUP1 REVERT JUMPDEST DUP2 CALLDATALOAD PUSH2 0x7B8 DUP2 PUSH2 0xC43 JUMP JUMPDEST PUSH1 0x0 DUP1 PUSH1 0x40 DUP4 DUP6 SUB SLT ISZERO PUSH2 0xC8B JUMPI PUSH1 0x0 DUP1 REVERT JUMPDEST DUP3 CALLDATALOAD PUSH2 0xC96 DUP2 PUSH2 0xC43 JUMP JUMPDEST SWAP5 PUSH1 0x20 SWAP4 SWAP1 SWAP4 ADD CALLDATALOAD SWAP4 POP POP POP JUMP JUMPDEST DUP1 MLOAD PUSH1 0x1 PUSH1 0x1 PUSH1 0x70 SHL SUB DUP2 AND DUP2 EQ PUSH2 0x9B6 JUMPI PUSH1 0x0 DUP1 REVERT JUMPDEST PUSH1 0x0 DUP1 PUSH1 0x0 PUSH1 0x60 DUP5 DUP7 SUB SLT ISZERO PUSH2 0xCD0 JUMPI PUSH1 0x0 DUP1 REVERT JUMPDEST PUSH2 0xCD9 DUP5 PUSH2 0xCA4 JUMP JUMPDEST SWAP3 POP PUSH2 0xCE7 PUSH1 0x20 DUP6 ADD PUSH2 0xCA4 JUMP JUMPDEST SWAP2 POP PUSH1 0x40 DUP5 ADD MLOAD PUSH4 0xFFFFFFFF DUP2 AND DUP2 EQ PUSH2 0xD00 JUMPI PUSH1 0x0 DUP1 REVERT JUMPDEST DUP1 SWAP2 POP POP SWAP3 POP SWAP3 POP SWAP3 JUMP JUMPDEST PUSH1 0x0 PUSH1 0x20 DUP3 DUP5 SUB SLT ISZERO PUSH2 0xD1D JUMPI PUSH1 0x0 DUP1 REVERT JUMPDEST DUP2 MLOAD PUSH2 0x7B8 DUP2 PUSH2 0xC43 JUMP JUMPDEST PUSH1 0x0 PUSH1 0x20 DUP3 DUP5 SUB SLT ISZERO PUSH2 0xD3A JUMPI PUSH1 0x0 DUP1 REVERT JUMPDEST DUP2 MLOAD PUSH1 0xFF DUP2 AND DUP2 EQ PUSH2 0x7B8 JUMPI PUSH1 0x0 DUP1 REVERT JUMPDEST PUSH4 0x4E487B71 PUSH1 0xE0 SHL PUSH1 0x0 MSTORE PUSH1 0x11 PUSH1 0x4 MSTORE PUSH1 0x24 PUSH1 0x0 REVERT JUMPDEST PUSH1 0x1 DUP2 DUP2 JUMPDEST DUP1 DUP6 GT ISZERO PUSH2 0xAA4 JUMPI DUP2 PUSH1 0x0 NOT DIV DUP3 GT ISZERO PUSH2 0xD82 JUMPI PUSH2 0xD82 PUSH2 0xD4B JUMP JUMPDEST DUP1 DUP6 AND ISZERO PUSH2 0xD8F JUMPI SWAP2 DUP2 MUL SWAP2 JUMPDEST SWAP4 DUP5 SHR SWAP4 SWAP1 DUP1 MUL SWAP1 PUSH2 0xD66 JUMP JUMPDEST PUSH1 0x0 DUP3 PUSH2 0xDAB JUMPI POP PUSH1 0x1 PUSH2 0x76D JUMP JUMPDEST DUP2 PUSH2 0xDB8 JUMPI POP PUSH1 0x0 PUSH2 0x76D JUMP JUMPDEST DUP2 PUSH1 0x1 DUP2 EQ PUSH2 0xDCE JUMPI PUSH1 0x2 DUP2 EQ PUSH2 0xDD8 JUMPI PUSH2 0xDF4 JUMP JUMPDEST PUSH1 0x1 SWAP2 POP POP PUSH2 0x76D JUMP JUMPDEST PUSH1 0xFF DUP5 GT ISZERO PUSH2 0xDE9 JUMPI PUSH2 0xDE9 PUSH2 0xD4B JUMP JUMPDEST POP POP PUSH1 0x1 DUP3 SHL PUSH2 0x76D JUMP JUMPDEST POP PUSH1 0x20 DUP4 LT PUSH2 0x133 DUP4 LT AND PUSH1 0x4E DUP5 LT PUSH1 0xB DUP5 LT AND OR ISZERO PUSH2 0xE17 JUMPI POP DUP2 DUP2 EXP PUSH2 0x76D JUMP JUMPDEST PUSH2 0xE21 DUP4 DUP4 PUSH2 0xD61 JUMP JUMPDEST DUP1 PUSH1 0x0 NOT DIV DUP3 GT ISZERO PUSH2 0xE35 JUMPI PUSH2 0xE35 PUSH2 0xD4B JUMP JUMPDEST MUL SWAP4 SWAP3 POP POP POP JUMP JUMPDEST PUSH1 0x0 PUSH2 0x7B8 PUSH1 0xFF DUP5 AND DUP4 PUSH2 0xD9C JUMP JUMPDEST PUSH1 0x0 DUP2 PUSH1 0x0 NOT DIV DUP4 GT DUP3 ISZERO ISZERO AND ISZERO PUSH2 0xE66 JUMPI PUSH2 0xE66 PUSH2 0xD4B JUMP JUMPDEST POP MUL SWAP1 JUMP JUMPDEST PUSH1 0x0 PUSH1 0x20 DUP3 DUP5 SUB SLT ISZERO PUSH2 0xE7D JUMPI PUSH1 0x0 DUP1 REVERT JUMPDEST POP MLOAD SWAP2 SWAP1 POP JUMP JUMPDEST PUSH1 0x0 PUSH2 0x7B8 DUP4 DUP4 PUSH2 0xD9C JUMP JUMPDEST PUSH4 0x4E487B71 PUSH1 0xE0 SHL PUSH1 0x0 MSTORE PUSH1 0x12 PUSH1 0x4 MSTORE PUSH1 0x24 PUSH1 0x0 REVERT JUMPDEST PUSH1 0x0 DUP3 PUSH2 0xEC3 JUMPI PUSH4 0x4E487B71 PUSH1 0xE0 SHL PUSH1 0x0 MSTORE PUSH1 0x12 PUSH1 0x4 MSTORE PUSH1 0x24 PUSH1 0x0 REVERT JUMPDEST POP DIV SWAP1 JUMP JUMPDEST PUSH1 0x0 DUP3 NOT DUP3 GT ISZERO PUSH2 0xEDB JUMPI PUSH2 0xEDB PUSH2 0xD4B JUMP JUMPDEST POP ADD SWAP1 JUMP JUMPDEST PUSH1 0x0 DUP3 DUP3 LT ISZERO PUSH2 0xEF2 JUMPI PUSH2 0xEF2 PUSH2 0xD4B JUMP JUMPDEST POP SUB SWAP1 JUMP INVALID LOG2 PUSH5 0x6970667358 0x22 SLT KECCAK256 CHAINID PUSH5 0x800DD1448F CALLCODE 0x4E ADDRESS DUP4 SLT 0x5C EXTCODESIZE 0xA7 SWAP16 0xAE SIGNEXTEND SWAP8 0x5C LOG3 SWAP7 BYTE GASLIMIT 0xD8 SIGNEXTEND 0xD PUSH31 0x11715D3D64736F6C634300080C003300000000000000000000000000000000 "
        },
        "methodIdentifiers": {
          "Time()": "f8e157ea",
          "getKValue(address)": "490084ef",
          "getTotalValue(address)": "68637549",
          "markdown(address)": "32da80a3",
          "valuation(address,uint256)": "4249719f"
        }
      }
    }
  }
}