{
  "_format": "hh-sol-artifact-1",
  "contractName": "TimeERC20Token",
  "sourceName": "contracts/TimeERC20Token.sol",
  "abi": [
    {
      "inputs": [],
      "stateMutability": "nonpayable",
      "type": "constructor"
    },
    {
      "anonymous": false,
      "inputs": [
        {
          "indexed": true,
          "internalType": "address",
          "name": "owner",
          "type": "address"
        },
        {
          "indexed": true,
          "internalType": "address",
          "name": "spender",
          "type": "address"
        },
        {
          "indexed": false,
          "internalType": "uint256",
          "name": "value",
          "type": "uint256"
        }
      ],
      "name": "Approval",
      "type": "event"
    },
    {
      "anonymous": false,
      "inputs": [
        {
          "indexed": true,
          "internalType": "address",
          "name": "previousOwner",
          "type": "address"
        },
        {
          "indexed": true,
          "internalType": "address",
          "name": "newOwner",
          "type": "address"
        }
      ],
      "name": "OwnershipTransferred",
      "type": "event"
    },
    {
      "anonymous": false,
      "inputs": [
        {
          "indexed": true,
          "internalType": "address",
          "name": "from",
          "type": "address"
        },
        {
          "indexed": true,
          "internalType": "address",
          "name": "to",
          "type": "address"
        },
        {
          "indexed": false,
          "internalType": "uint256",
          "name": "value",
          "type": "uint256"
        }
      ],
      "name": "Transfer",
      "type": "event"
    },
    {
      "anonymous": false,
      "inputs": [
        {
          "indexed": true,
          "internalType": "address",
          "name": "newVault",
          "type": "address"
        }
      ],
      "name": "VaultTransferred",
      "type": "event"
    },
    {
      "inputs": [],
      "name": "DOMAIN_SEPARATOR",
      "outputs": [
        {
          "internalType": "bytes32",
          "name": "",
          "type": "bytes32"
        }
      ],
      "stateMutability": "view",
      "type": "function"
    },
    {
      "inputs": [],
      "name": "PERMIT_TYPEHASH",
      "outputs": [
        {
          "internalType": "bytes32",
          "name": "",
          "type": "bytes32"
        }
      ],
      "stateMutability": "view",
      "type": "function"
    },
    {
      "inputs": [
        {
          "internalType": "address",
          "name": "owner",
          "type": "address"
        },
        {
          "internalType": "address",
          "name": "spender",
          "type": "address"
        }
      ],
      "name": "allowance",
      "outputs": [
        {
          "internalType": "uint256",
          "name": "",
          "type": "uint256"
        }
      ],
      "stateMutability": "view",
      "type": "function"
    },
    {
      "inputs": [
        {
          "internalType": "address",
          "name": "spender",
          "type": "address"
        },
        {
          "internalType": "uint256",
          "name": "amount",
          "type": "uint256"
        }
      ],
      "name": "approve",
      "outputs": [
        {
          "internalType": "bool",
          "name": "",
          "type": "bool"
        }
      ],
      "stateMutability": "nonpayable",
      "type": "function"
    },
    {
      "inputs": [
        {
          "internalType": "address",
          "name": "account",
          "type": "address"
        }
      ],
      "name": "balanceOf",
      "outputs": [
        {
          "internalType": "uint256",
          "name": "",
          "type": "uint256"
        }
      ],
      "stateMutability": "view",
      "type": "function"
    },
    {
      "inputs": [
        {
          "internalType": "uint256",
          "name": "amount",
          "type": "uint256"
        }
      ],
      "name": "burn",
      "outputs": [],
      "stateMutability": "nonpayable",
      "type": "function"
    },
    {
      "inputs": [
        {
          "internalType": "address",
          "name": "account_",
          "type": "address"
        },
        {
          "internalType": "uint256",
          "name": "amount_",
          "type": "uint256"
        }
      ],
      "name": "burnFrom",
      "outputs": [],
      "stateMutability": "nonpayable",
      "type": "function"
    },
    {
      "inputs": [],
      "name": "decimals",
      "outputs": [
        {
          "internalType": "uint8",
          "name": "",
          "type": "uint8"
        }
      ],
      "stateMutability": "view",
      "type": "function"
    },
    {
      "inputs": [
        {
          "internalType": "address",
          "name": "spender",
          "type": "address"
        },
        {
          "internalType": "uint256",
          "name": "subtractedValue",
          "type": "uint256"
        }
      ],
      "name": "decreaseAllowance",
      "outputs": [
        {
          "internalType": "bool",
          "name": "",
          "type": "bool"
        }
      ],
      "stateMutability": "nonpayable",
      "type": "function"
    },
    {
      "inputs": [
        {
          "internalType": "address",
          "name": "spender",
          "type": "address"
        },
        {
          "internalType": "uint256",
          "name": "addedValue",
          "type": "uint256"
        }
      ],
      "name": "increaseAllowance",
      "outputs": [
        {
          "internalType": "bool",
          "name": "",
          "type": "bool"
        }
      ],
      "stateMutability": "nonpayable",
      "type": "function"
    },
    {
      "inputs": [
        {
          "internalType": "address",
          "name": "account_",
          "type": "address"
        },
        {
          "internalType": "uint256",
          "name": "amount_",
          "type": "uint256"
        }
      ],
      "name": "mint",
      "outputs": [],
      "stateMutability": "nonpayable",
      "type": "function"
    },
    {
      "inputs": [],
      "name": "name",
      "outputs": [
        {
          "internalType": "string",
          "name": "",
          "type": "string"
        }
      ],
      "stateMutability": "view",
      "type": "function"
    },
    {
      "inputs": [
        {
          "internalType": "address",
          "name": "owner",
          "type": "address"
        }
      ],
      "name": "nonces",
      "outputs": [
        {
          "internalType": "uint256",
          "name": "",
          "type": "uint256"
        }
      ],
      "stateMutability": "view",
      "type": "function"
    },
    {
      "inputs": [],
      "name": "owner",
      "outputs": [
        {
          "internalType": "address",
          "name": "",
          "type": "address"
        }
      ],
      "stateMutability": "view",
      "type": "function"
    },
    {
      "inputs": [
        {
          "internalType": "address",
          "name": "owner",
          "type": "address"
        },
        {
          "internalType": "address",
          "name": "spender",
          "type": "address"
        },
        {
          "internalType": "uint256",
          "name": "amount",
          "type": "uint256"
        },
        {
          "internalType": "uint256",
          "name": "deadline",
          "type": "uint256"
        },
        {
          "internalType": "uint8",
          "name": "v",
          "type": "uint8"
        },
        {
          "internalType": "bytes32",
          "name": "r",
          "type": "bytes32"
        },
        {
          "internalType": "bytes32",
          "name": "s",
          "type": "bytes32"
        }
      ],
      "name": "permit",
      "outputs": [],
      "stateMutability": "nonpayable",
      "type": "function"
    },
    {
      "inputs": [],
      "name": "renounceOwnership",
      "outputs": [],
      "stateMutability": "nonpayable",
      "type": "function"
    },
    {
      "inputs": [
        {
          "internalType": "address",
          "name": "vault_",
          "type": "address"
        }
      ],
      "name": "setVault",
      "outputs": [],
      "stateMutability": "nonpayable",
      "type": "function"
    },
    {
      "inputs": [],
      "name": "symbol",
      "outputs": [
        {
          "internalType": "string",
          "name": "",
          "type": "string"
        }
      ],
      "stateMutability": "view",
      "type": "function"
    },
    {
      "inputs": [],
      "name": "totalSupply",
      "outputs": [
        {
          "internalType": "uint256",
          "name": "",
          "type": "uint256"
        }
      ],
      "stateMutability": "view",
      "type": "function"
    },
    {
      "inputs": [
        {
          "internalType": "address",
          "name": "recipient",
          "type": "address"
        },
        {
          "internalType": "uint256",
          "name": "amount",
          "type": "uint256"
        }
      ],
      "name": "transfer",
      "outputs": [
        {
          "internalType": "bool",
          "name": "",
          "type": "bool"
        }
      ],
      "stateMutability": "nonpayable",
      "type": "function"
    },
    {
      "inputs": [
        {
          "internalType": "address",
          "name": "sender",
          "type": "address"
        },
        {
          "internalType": "address",
          "name": "recipient",
          "type": "address"
        },
        {
          "internalType": "uint256",
          "name": "amount",
          "type": "uint256"
        }
      ],
      "name": "transferFrom",
      "outputs": [
        {
          "internalType": "bool",
          "name": "",
          "type": "bool"
        }
      ],
      "stateMutability": "nonpayable",
      "type": "function"
    },
    {
      "inputs": [
        {
          "internalType": "address",
          "name": "newOwner_",
          "type": "address"
        }
      ],
      "name": "transferOwnership",
      "outputs": [],
      "stateMutability": "nonpayable",
      "type": "function"
    },
    {
      "inputs": [],
      "name": "vault",
      "outputs": [
        {
          "internalType": "address",
          "name": "",
          "type": "address"
        }
      ],
      "stateMutability": "view",
      "type": "function"
    }
  ],
  "bytecode": "0x6080604052600360065560646007553480156200001b57600080fd5b506040518060400160405280600381526020016214d11160ea1b8152506040518060400160405280600381526020016214d11160ea1b815250600982600390805190602001906200006e92919062000227565b5081516200008490600490602085019062000227565b506005805460ff191660ff92909216919091179055504690507f8b73c3c69bb8fe3d512ecc4cf759cc79239f7b179b0ffacaa9a75d522b39400f620000c86200018d565b805160209182012060408051808201825260018152603160f81b90840152805192830193909352918101919091527fc89efdaa54c0f20c7adf612882df0950f5a951637e0307cdcb4c672f298b8bc66060820152608081018290523060a082015260c00160408051601f19818403018152908290528051602090910120600955600a80546001600160a01b0319163390811790915591506000907f8be0079c531659141344cd1fd0a4f28419497f9722a3daafe3b4186f6b6457e0908290a36200030a565b6060600380546200019e90620002cd565b80601f0160208091040260200160405190810160405280929190818152602001828054620001cc90620002cd565b80156200021d5780601f10620001f1576101008083540402835291602001916200021d565b820191906000526020600020905b815481529060010190602001808311620001ff57829003601f168201915b5050505050905090565b8280546200023590620002cd565b90600052602060002090601f016020900481019282620002595760008555620002a4565b82601f106200027457805160ff1916838001178555620002a4565b82800160010185558215620002a4579182015b82811115620002a457825182559160200191906001019062000287565b50620002b2929150620002b6565b5090565b5b80821115620002b25760008155600101620002b7565b600181811c90821680620002e257607f821691505b602082108114156200030457634e487b7160e01b600052602260045260246000fd5b50919050565b611236806200031a6000396000f3fe608060405234801561001057600080fd5b506004361061014d5760003560e01c806370a08231116100c3578063a457c2d71161007c578063a457c2d7146102cf578063a9059cbb146102e2578063d505accf146102f5578063dd62ed3e14610308578063f2fde38b14610341578063fbfa77cf1461035457600080fd5b806370a082311461024b578063715018a61461027457806379cc67901461027c5780637ecebe001461028f5780638da5cb5b146102a257806395d89b41146102c757600080fd5b8063313ce56711610115578063313ce567146101df5780633644e515146101f457806339509351146101fd57806340c10f191461021057806342966c68146102255780636817031b1461023857600080fd5b806306fdde0314610152578063095ea7b31461017057806318160ddd1461019357806323b872dd146101a557806330adf81f146101b8575b600080fd5b61015a610365565b6040516101679190610f52565b60405180910390f35b61018361017e366004610fc3565b6103f7565b6040519015158152602001610167565b6002545b604051908152602001610167565b6101836101b3366004610fed565b61040e565b6101977f6e71edae12b1b97f4d1f60370fef10105fa2faae0126114a169c64845d6126c981565b60055460405160ff9091168152602001610167565b61019760095481565b61018361020b366004610fc3565b61045f565b61022361021e366004610fc3565b610495565b005b610223610233366004611029565b61050e565b610223610246366004611042565b61051b565b610197610259366004611042565b6001600160a01b031660009081526020819052604090205490565b6102236105cb565b61022361028a366004610fc3565b61063f565b61019761029d366004611042565b610649565b600a546001600160a01b03165b6040516001600160a01b039091168152602001610167565b61015a610667565b6101836102dd366004610fc3565b610676565b6101836102f0366004610fc3565b6106ac565b610223610303366004611064565b610705565b6101976103163660046110d7565b6001600160a01b03918216600090815260016020908152604080832093909416825291909152205490565b61022361034f366004611042565b610924565b600b546001600160a01b03166102af565b6060600380546103749061110a565b80601f01602080910402602001604051908101604052809291908181526020018280546103a09061110a565b80156103ed5780601f106103c2576101008083540402835291602001916103ed565b820191906000526020600020905b8154815290600101906020018083116103d057829003601f168201915b5050505050905090565b6000610404338484610a0f565b5060015b92915050565b600061041b848484610b34565b6001600160a01b0384166000908152600160209081526040808320338085529252909120546104559186916104509086610c9d565b610a0f565b5060019392505050565b3360008181526001602090815260408083206001600160a01b038716845290915281205490916104049185906104509086610cb8565b600b546001600160a01b031633146105005760405162461bcd60e51b815260206004820152602360248201527f5661756c744f776e65643a2063616c6c6572206973206e6f74207468652056616044820152621d5b1d60ea1b60648201526084015b60405180910390fd5b61050a8282610cd3565b5050565b6105183382610db2565b50565b600a546001600160a01b031633146105455760405162461bcd60e51b81526004016104f790611145565b6001600160a01b0381166105815760405162461bcd60e51b815260206004820152600360248201526204941360ec1b60448201526064016104f7565b600b80546001600160a01b0319166001600160a01b0383169081179091556040517f3811c8bde9c524fca0e85a90109ab6e776e4f6e675fa7b219c7973abeacb6b2790600090a250565b600a546001600160a01b031633146105f55760405162461bcd60e51b81526004016104f790611145565b600a546040516000916001600160a01b0316907f8be0079c531659141344cd1fd0a4f28419497f9722a3daafe3b4186f6b6457e0908390a3600a80546001600160a01b0319169055565b61050a8282610e9c565b6001600160a01b038116600090815260086020526040812054610408565b6060600480546103749061110a565b3360008181526001602090815260408083206001600160a01b038716845290915281205490916104049185906104509086610c9d565b6000806106d06007546106ca60065486610ee690919063ffffffff16565b90610f13565b90506106f13373f39fd6e51aad88f6f4ce6ab8827279cfffb9226683610b34565b61045533856107008685610c9d565b610b34565b834211156107555760405162461bcd60e51b815260206004820152601860248201527f5065726d69743a206578706972656420646561646c696e65000000000000000060448201526064016104f7565b6001600160a01b0387811660008181526008602090815260408083205481517f6e71edae12b1b97f4d1f60370fef10105fa2faae0126114a169c64845d6126c98185015280830195909552948b166060850152608084018a905260a084019490945260c08084018990528451808503909101815260e08401855280519082012060095461190160f01b61010086015261010285015261012280850182905285518086039091018152610142850180875281519184019190912090849052610162850180875281905260ff89166101828601526101a285018890526101c2850187905294519094936001926101e2808301939192601f198301929081900390910190855afa15801561086a573d6000803e3d6000fd5b5050604051601f1901519150506001600160a01b038116158015906108a05750896001600160a01b0316816001600160a01b0316145b6108ec5760405162461bcd60e51b815260206004820152601e60248201527f45524332305065726d69743a20496e76616c6964207369676e6174757265000060448201526064016104f7565b6001600160a01b038a16600090815260086020526040902061090d90610f35565b6109188a8a8a610a0f565b50505050505050505050565b600a546001600160a01b0316331461094e5760405162461bcd60e51b81526004016104f790611145565b6001600160a01b0381166109b35760405162461bcd60e51b815260206004820152602660248201527f4f776e61626c653a206e6577206f776e657220697320746865207a65726f206160448201526564647265737360d01b60648201526084016104f7565b600a546040516001600160a01b038084169216907f8be0079c531659141344cd1fd0a4f28419497f9722a3daafe3b4186f6b6457e090600090a3600a80546001600160a01b0319166001600160a01b0392909216919091179055565b6001600160a01b038316610a715760405162461bcd60e51b8152602060048201526024808201527f45524332303a20617070726f76652066726f6d20746865207a65726f206164646044820152637265737360e01b60648201526084016104f7565b6001600160a01b038216610ad25760405162461bcd60e51b815260206004820152602260248201527f45524332303a20617070726f766520746f20746865207a65726f206164647265604482015261737360f01b60648201526084016104f7565b6001600160a01b0383811660008181526001602090815260408083209487168084529482529182902085905590518481527f8c5be1e5ebec7d5bd14f71427d1e84f3dd0314c0f7b2291e5b200ac8c7c3b92591015b60405180910390a3505050565b6001600160a01b038316610b985760405162461bcd60e51b815260206004820152602560248201527f45524332303a207472616e736665722066726f6d20746865207a65726f206164604482015264647265737360d81b60648201526084016104f7565b6001600160a01b038216610bfa5760405162461bcd60e51b815260206004820152602360248201527f45524332303a207472616e7366657220746f20746865207a65726f206164647260448201526265737360e81b60648201526084016104f7565b6001600160a01b038316600090815260208190526040902054610c1d9082610c9d565b6001600160a01b038085166000908152602081905260408082209390935590841681522054610c4c9082610cb8565b6001600160a01b038381166000818152602081815260409182902094909455518481529092918616917fddf252ad1be2c89b69c2b068fc378daa952ba7f163c4a11628f55a4df523b3ef9101610b27565b600082610caa8382611190565b915081111561040857600080fd5b600082610cc583826111a7565b915081101561040857600080fd5b6001600160a01b038216610d295760405162461bcd60e51b815260206004820152601f60248201527f45524332303a206d696e7420746f20746865207a65726f20616464726573730060448201526064016104f7565b600254610d369082610cb8565b6002556001600160a01b038216600090815260208190526040902054610d5c9082610cb8565b6001600160a01b038316600081815260208181526040808320949094559251848152919290917fddf252ad1be2c89b69c2b068fc378daa952ba7f163c4a11628f55a4df523b3ef91015b60405180910390a35050565b6001600160a01b038216610e125760405162461bcd60e51b815260206004820152602160248201527f45524332303a206275726e2066726f6d20746865207a65726f206164647265736044820152607360f81b60648201526084016104f7565b6001600160a01b038216600090815260208190526040902054610e359082610c9d565b6001600160a01b038316600090815260208190526040902055600254610e5b9082610c9d565b6002556040518181526000906001600160a01b038416907fddf252ad1be2c89b69c2b068fc378daa952ba7f163c4a11628f55a4df523b3ef90602001610da6565b6001600160a01b0382166000908152600160209081526040808320338452909152812054610eca9083610c9d565b9050610ed7833383610a0f565b610ee18383610db2565b505050565b6000821580610f0a57508183610efc82826111bf565b9250610f0890836111de565b145b61040857600080fd5b6000808211610f2157600080fd5b6000610f2d83856111de565b949350505050565b6001816000016000828254610f4a91906111a7565b909155505050565b600060208083528351808285015260005b81811015610f7f57858101830151858201604001528201610f63565b81811115610f91576000604083870101525b50601f01601f1916929092016040019392505050565b80356001600160a01b0381168114610fbe57600080fd5b919050565b60008060408385031215610fd657600080fd5b610fdf83610fa7565b946020939093013593505050565b60008060006060848603121561100257600080fd5b61100b84610fa7565b925061101960208501610fa7565b9150604084013590509250925092565b60006020828403121561103b57600080fd5b5035919050565b60006020828403121561105457600080fd5b61105d82610fa7565b9392505050565b600080600080600080600060e0888a03121561107f57600080fd5b61108888610fa7565b965061109660208901610fa7565b95506040880135945060608801359350608088013560ff811681146110ba57600080fd5b9699959850939692959460a0840135945060c09093013592915050565b600080604083850312156110ea57600080fd5b6110f383610fa7565b915061110160208401610fa7565b90509250929050565b600181811c9082168061111e57607f821691505b6020821081141561113f57634e487b7160e01b600052602260045260246000fd5b50919050565b6020808252818101527f4f776e61626c653a2063616c6c6572206973206e6f7420746865206f776e6572604082015260600190565b634e487b7160e01b600052601160045260246000fd5b6000828210156111a2576111a261117a565b500390565b600082198211156111ba576111ba61117a565b500190565b60008160001904831182151516156111d9576111d961117a565b500290565b6000826111fb57634e487b7160e01b600052601260045260246000fd5b50049056fea26469706673582212205e0948e1e1e3f44f650d5ae8bfcc2ee00d4de95736365b139cf68083cf896ebd64736f6c634300080c0033",
  "linkReferences": {},
  "deployedLinkReferences": {}
}