{
  "_format": "hh-sol-artifact-1",
  "contractName": "VaultOwned",
  "sourceName": "contracts/TimeERC20Token.sol",
  "abi": [
    {
      "anonymous": false,
      "inputs": [
        {
          "indexed": true,
          "internalType": "address",
          "name": "previousOwner",
          "type": "address"
        },
        {
          "indexed": true,
          "internalType": "address",
          "name": "newOwner",
          "type": "address"
        }
      ],
      "name": "OwnershipTransferred",
      "type": "event"
    },
    {
      "anonymous": false,
      "inputs": [
        {
          "indexed": true,
          "internalType": "address",
          "name": "newVault",
          "type": "address"
        }
      ],
      "name": "VaultTransferred",
      "type": "event"
    },
    {
      "inputs": [],
      "name": "owner",
      "outputs": [
        {
          "internalType": "address",
          "name": "",
          "type": "address"
        }
      ],
      "stateMutability": "view",
      "type": "function"
    },
    {
      "inputs": [],
      "name": "renounceOwnership",
      "outputs": [],
      "stateMutability": "nonpayable",
      "type": "function"
    },
    {
      "inputs": [
        {
          "internalType": "address",
          "name": "vault_",
          "type": "address"
        }
      ],
      "name": "setVault",
      "outputs": [],
      "stateMutability": "nonpayable",
      "type": "function"
    },
    {
      "inputs": [
        {
          "internalType": "address",
          "name": "newOwner_",
          "type": "address"
        }
      ],
      "name": "transferOwnership",
      "outputs": [],
      "stateMutability": "nonpayable",
      "type": "function"
    },
    {
      "inputs": [],
      "name": "vault",
      "outputs": [
        {
          "internalType": "address",
          "name": "",
          "type": "address"
        }
      ],
      "stateMutability": "view",
      "type": "function"
    }
  ],
  "bytecode": "0x608060405234801561001057600080fd5b50600080546001600160a01b0319163390811782556040519091907f8be0079c531659141344cd1fd0a4f28419497f9722a3daafe3b4186f6b6457e0908290a36103788061005f6000396000f3fe608060405234801561001057600080fd5b50600436106100575760003560e01c80636817031b1461005c578063715018a6146100715780638da5cb5b14610079578063f2fde38b146100a2578063fbfa77cf146100b5575b600080fd5b61006f61006a3660046102dd565b6100c6565b005b61006f61017f565b6000546001600160a01b03165b6040516001600160a01b03909116815260200160405180910390f35b61006f6100b03660046102dd565b6101f3565b6001546001600160a01b0316610086565b6000546001600160a01b031633146100f95760405162461bcd60e51b81526004016100f09061030d565b60405180910390fd5b6001600160a01b0381166101355760405162461bcd60e51b815260206004820152600360248201526204941360ec1b60448201526064016100f0565b600180546001600160a01b0319166001600160a01b0383169081179091556040517f3811c8bde9c524fca0e85a90109ab6e776e4f6e675fa7b219c7973abeacb6b2790600090a250565b6000546001600160a01b031633146101a95760405162461bcd60e51b81526004016100f09061030d565b600080546040516001600160a01b03909116907f8be0079c531659141344cd1fd0a4f28419497f9722a3daafe3b4186f6b6457e0908390a3600080546001600160a01b0319169055565b6000546001600160a01b0316331461021d5760405162461bcd60e51b81526004016100f09061030d565b6001600160a01b0381166102825760405162461bcd60e51b815260206004820152602660248201527f4f776e61626c653a206e6577206f776e657220697320746865207a65726f206160448201526564647265737360d01b60648201526084016100f0565b600080546040516001600160a01b03808516939216917f8be0079c531659141344cd1fd0a4f28419497f9722a3daafe3b4186f6b6457e091a3600080546001600160a01b0319166001600160a01b0392909216919091179055565b6000602082840312156102ef57600080fd5b81356001600160a01b038116811461030657600080fd5b9392505050565b6020808252818101527f4f776e61626c653a2063616c6c6572206973206e6f7420746865206f776e657260408201526060019056fea2646970667358221220bd5f092fa6ea0d9063bf61a7f32c9acd3fed880a41a7cf92faa21cd612ccefa464736f6c634300080c0033",
  "linkReferences": {},
  "deployedLinkReferences": {}
}