{
  "_format": "hh-sol-artifact-1",
  "contractName": "MultiSigWalletWithDailyLimit",
  "sourceName": "contracts/MultiSigWalletWithDailyLimit.sol",
  "abi": [
    {
      "inputs": [
        {
          "internalType": "address[]",
          "name": "_owners",
          "type": "address[]"
        },
        {
          "internalType": "uint256",
          "name": "_required",
          "type": "uint256"
        },
        {
          "internalType": "uint256",
          "name": "_dailyLimit",
          "type": "uint256"
        }
      ],
      "stateMutability": "nonpayable",
      "type": "constructor"
    },
    {
      "anonymous": false,
      "inputs": [
        {
          "indexed": true,
          "internalType": "address",
          "name": "sender",
          "type": "address"
        },
        {
          "indexed": true,
          "internalType": "uint256",
          "name": "transactionId",
          "type": "uint256"
        }
      ],
      "name": "Confirmation",
      "type": "event"
    },
    {
      "anonymous": false,
      "inputs": [
        {
          "indexed": false,
          "internalType": "uint256",
          "name": "dailyLimit",
          "type": "uint256"
        }
      ],
      "name": "DailyLimitChange",
      "type": "event"
    },
    {
      "anonymous": false,
      "inputs": [
        {
          "indexed": true,
          "internalType": "address",
          "name": "sender",
          "type": "address"
        },
        {
          "indexed": false,
          "internalType": "uint256",
          "name": "value",
          "type": "uint256"
        }
      ],
      "name": "Deposit",
      "type": "event"
    },
    {
      "anonymous": false,
      "inputs": [
        {
          "indexed": true,
          "internalType": "uint256",
          "name": "transactionId",
          "type": "uint256"
        }
      ],
      "name": "Execution",
      "type": "event"
    },
    {
      "anonymous": false,
      "inputs": [
        {
          "indexed": true,
          "internalType": "uint256",
          "name": "transactionId",
          "type": "uint256"
        }
      ],
      "name": "ExecutionFailure",
      "type": "event"
    },
    {
      "anonymous": false,
      "inputs": [
        {
          "indexed": true,
          "internalType": "address",
          "name": "owner",
          "type": "address"
        }
      ],
      "name": "OwnerAddition",
      "type": "event"
    },
    {
      "anonymous": false,
      "inputs": [
        {
          "indexed": true,
          "internalType": "address",
          "name": "owner",
          "type": "address"
        }
      ],
      "name": "OwnerRemoval",
      "type": "event"
    },
    {
      "anonymous": false,
      "inputs": [
        {
          "indexed": false,
          "internalType": "uint256",
          "name": "required",
          "type": "uint256"
        }
      ],
      "name": "RequirementChange",
      "type": "event"
    },
    {
      "anonymous": false,
      "inputs": [
        {
          "indexed": true,
          "internalType": "address",
          "name": "sender",
          "type": "address"
        },
        {
          "indexed": true,
          "internalType": "uint256",
          "name": "transactionId",
          "type": "uint256"
        }
      ],
      "name": "Revocation",
      "type": "event"
    },
    {
      "anonymous": false,
      "inputs": [
        {
          "indexed": true,
          "internalType": "uint256",
          "name": "transactionId",
          "type": "uint256"
        }
      ],
      "name": "Submission",
      "type": "event"
    },
    {
      "inputs": [],
      "name": "MAX_OWNER_COUNT",
      "outputs": [
        {
          "internalType": "uint256",
          "name": "",
          "type": "uint256"
        }
      ],
      "stateMutability": "view",
      "type": "function"
    },
    {
      "inputs": [
        {
          "internalType": "address",
          "name": "owner",
          "type": "address"
        }
      ],
      "name": "addOwner",
      "outputs": [],
      "stateMutability": "nonpayable",
      "type": "function"
    },
    {
      "inputs": [],
      "name": "calcMaxWithdraw",
      "outputs": [
        {
          "internalType": "uint256",
          "name": "",
          "type": "uint256"
        }
      ],
      "stateMutability": "view",
      "type": "function"
    },
    {
      "inputs": [
        {
          "internalType": "uint256",
          "name": "_dailyLimit",
          "type": "uint256"
        }
      ],
      "name": "changeDailyLimit",
      "outputs": [],
      "stateMutability": "nonpayable",
      "type": "function"
    },
    {
      "inputs": [
        {
          "internalType": "uint256",
          "name": "_required",
          "type": "uint256"
        }
      ],
      "name": "changeRequirement",
      "outputs": [],
      "stateMutability": "nonpayable",
      "type": "function"
    },
    {
      "inputs": [
        {
          "internalType": "uint256",
          "name": "transactionId",
          "type": "uint256"
        }
      ],
      "name": "confirmTransaction",
      "outputs": [],
      "stateMutability": "nonpayable",
      "type": "function"
    },
    {
      "inputs": [
        {
          "internalType": "uint256",
          "name": "",
          "type": "uint256"
        },
        {
          "internalType": "address",
          "name": "",
          "type": "address"
        }
      ],
      "name": "confirmations",
      "outputs": [
        {
          "internalType": "bool",
          "name": "",
          "type": "bool"
        }
      ],
      "stateMutability": "view",
      "type": "function"
    },
    {
      "inputs": [],
      "name": "dailyLimit",
      "outputs": [
        {
          "internalType": "uint256",
          "name": "",
          "type": "uint256"
        }
      ],
      "stateMutability": "view",
      "type": "function"
    },
    {
      "inputs": [
        {
          "internalType": "uint256",
          "name": "transactionId",
          "type": "uint256"
        }
      ],
      "name": "executeTransaction",
      "outputs": [],
      "stateMutability": "nonpayable",
      "type": "function"
    },
    {
      "inputs": [
        {
          "internalType": "uint256",
          "name": "transactionId",
          "type": "uint256"
        }
      ],
      "name": "getConfirmationCount",
      "outputs": [
        {
          "internalType": "uint256",
          "name": "count",
          "type": "uint256"
        }
      ],
      "stateMutability": "view",
      "type": "function"
    },
    {
      "inputs": [
        {
          "internalType": "uint256",
          "name": "transactionId",
          "type": "uint256"
        }
      ],
      "name": "getConfirmations",
      "outputs": [
        {
          "internalType": "address[]",
          "name": "_confirmations",
          "type": "address[]"
        }
      ],
      "stateMutability": "view",
      "type": "function"
    },
    {
      "inputs": [],
      "name": "getOwners",
      "outputs": [
        {
          "internalType": "address[]",
          "name": "",
          "type": "address[]"
        }
      ],
      "stateMutability": "view",
      "type": "function"
    },
    {
      "inputs": [
        {
          "internalType": "bool",
          "name": "pending",
          "type": "bool"
        },
        {
          "internalType": "bool",
          "name": "executed",
          "type": "bool"
        }
      ],
      "name": "getTransactionCount",
      "outputs": [
        {
          "internalType": "uint256",
          "name": "count",
          "type": "uint256"
        }
      ],
      "stateMutability": "view",
      "type": "function"
    },
    {
      "inputs": [
        {
          "internalType": "uint256",
          "name": "from",
          "type": "uint256"
        },
        {
          "internalType": "uint256",
          "name": "to",
          "type": "uint256"
        },
        {
          "internalType": "bool",
          "name": "pending",
          "type": "bool"
        },
        {
          "internalType": "bool",
          "name": "executed",
          "type": "bool"
        }
      ],
      "name": "getTransactionIds",
      "outputs": [
        {
          "internalType": "uint256[]",
          "name": "_transactionIds",
          "type": "uint256[]"
        }
      ],
      "stateMutability": "view",
      "type": "function"
    },
    {
      "inputs": [
        {
          "internalType": "uint256",
          "name": "transactionId",
          "type": "uint256"
        }
      ],
      "name": "isConfirmed",
      "outputs": [
        {
          "internalType": "bool",
          "name": "_confirmed",
          "type": "bool"
        }
      ],
      "stateMutability": "view",
      "type": "function"
    },
    {
      "inputs": [
        {
          "internalType": "address",
          "name": "",
          "type": "address"
        }
      ],
      "name": "isOwner",
      "outputs": [
        {
          "internalType": "bool",
          "name": "",
          "type": "bool"
        }
      ],
      "stateMutability": "view",
      "type": "function"
    },
    {
      "inputs": [],
      "name": "lastDay",
      "outputs": [
        {
          "internalType": "uint256",
          "name": "",
          "type": "uint256"
        }
      ],
      "stateMutability": "view",
      "type": "function"
    },
    {
      "inputs": [
        {
          "internalType": "uint256",
          "name": "",
          "type": "uint256"
        }
      ],
      "name": "owners",
      "outputs": [
        {
          "internalType": "address",
          "name": "",
          "type": "address"
        }
      ],
      "stateMutability": "view",
      "type": "function"
    },
    {
      "inputs": [
        {
          "internalType": "address",
          "name": "owner",
          "type": "address"
        }
      ],
      "name": "removeOwner",
      "outputs": [],
      "stateMutability": "nonpayable",
      "type": "function"
    },
    {
      "inputs": [
        {
          "internalType": "address",
          "name": "owner",
          "type": "address"
        },
        {
          "internalType": "address",
          "name": "newOwner",
          "type": "address"
        }
      ],
      "name": "replaceOwner",
      "outputs": [],
      "stateMutability": "nonpayable",
      "type": "function"
    },
    {
      "inputs": [],
      "name": "required",
      "outputs": [
        {
          "internalType": "uint256",
          "name": "",
          "type": "uint256"
        }
      ],
      "stateMutability": "view",
      "type": "function"
    },
    {
      "inputs": [
        {
          "internalType": "uint256",
          "name": "transactionId",
          "type": "uint256"
        }
      ],
      "name": "revokeConfirmation",
      "outputs": [],
      "stateMutability": "nonpayable",
      "type": "function"
    },
    {
      "inputs": [],
      "name": "spentToday",
      "outputs": [
        {
          "internalType": "uint256",
          "name": "",
          "type": "uint256"
        }
      ],
      "stateMutability": "view",
      "type": "function"
    },
    {
      "inputs": [
        {
          "internalType": "address",
          "name": "destination",
          "type": "address"
        },
        {
          "internalType": "uint256",
          "name": "value",
          "type": "uint256"
        },
        {
          "internalType": "bytes",
          "name": "data",
          "type": "bytes"
        }
      ],
      "name": "submitTransaction",
      "outputs": [
        {
          "internalType": "uint256",
          "name": "transactionId",
          "type": "uint256"
        }
      ],
      "stateMutability": "nonpayable",
      "type": "function"
    },
    {
      "inputs": [],
      "name": "transactionCount",
      "outputs": [
        {
          "internalType": "uint256",
          "name": "",
          "type": "uint256"
        }
      ],
      "stateMutability": "view",
      "type": "function"
    },
    {
      "inputs": [
        {
          "internalType": "uint256",
          "name": "",
          "type": "uint256"
        }
      ],
      "name": "transactions",
      "outputs": [
        {
          "internalType": "address",
          "name": "destination",
          "type": "address"
        },
        {
          "internalType": "uint256",
          "name": "value",
          "type": "uint256"
        },
        {
          "internalType": "bytes",
          "name": "data",
          "type": "bytes"
        },
        {
          "internalType": "bool",
          "name": "executed",
          "type": "bool"
        }
      ],
      "stateMutability": "view",
      "type": "function"
    },
    {
      "stateMutability": "payable",
      "type": "receive"
    }
  ],
  "bytecode": "0x60806040523480156200001157600080fd5b5060405162001e6438038062001e64833981016040819052620000349162000240565b8282815181603282111580156200004b5750818111155b80156200005757508015155b80156200006357508115155b6200006d57600080fd5b60005b845181101562000163576002600086838151811062000093576200009362000325565b6020908102919091018101516001600160a01b031682528101919091526040016000205460ff16158015620000f7575060006001600160a01b0316858281518110620000e357620000e362000325565b60200260200101516001600160a01b031614155b6200010157600080fd5b6001600260008784815181106200011c576200011c62000325565b6020908102919091018101516001600160a01b03168252810191909152604001600020805460ff1916911515919091179055806200015a816200033b565b91505062000070565b508351620001799060039060208701906200018c565b5050506004555060065550620003659050565b828054828255906000526020600020908101928215620001e4579160200282015b82811115620001e457825182546001600160a01b0319166001600160a01b03909116178255602090920191600190910190620001ad565b50620001f2929150620001f6565b5090565b5b80821115620001f25760008155600101620001f7565b634e487b7160e01b600052604160045260246000fd5b80516001600160a01b03811681146200023b57600080fd5b919050565b6000806000606084860312156200025657600080fd5b83516001600160401b03808211156200026e57600080fd5b818601915086601f8301126200028357600080fd5b81516020828211156200029a576200029a6200020d565b8160051b604051601f19603f83011681018181108682111715620002c257620002c26200020d565b60405292835281830193508481018201928a841115620002e157600080fd5b948201945b838610156200030a57620002fa8662000223565b85529482019493820193620002e6565b91890151604090990151919a98995090979650505050505050565b634e487b7160e01b600052603260045260246000fd5b60006000198214156200035e57634e487b7160e01b600052601160045260246000fd5b5060010190565b611aef80620003756000396000f3fe6080604052600436106101855760003560e01c8063a0e67e2b116100d1578063c64274741161008a578063dc8452cd11610064578063dc8452cd146104de578063e20056e6146104f4578063ee22610b14610514578063f059cf2b1461053457600080fd5b8063c642747414610489578063cea08621146104a9578063d74f8edd146104c957600080fd5b8063a0e67e2b146103c4578063a8abe69a146103e6578063b5dc40c314610413578063b77bf60014610433578063ba51a6df14610449578063c01a8c841461046957600080fd5b8063547415251161013e5780637065cb48116101185780637065cb4814610334578063784547a7146103545780638b51d13f146103745780639ace38c21461039457600080fd5b806354741525146102e857806367eeba0c146103085780636b0c932d1461031e57600080fd5b8063025e7c27146101cd578063173825d91461020a57806320ea8d861461022a5780632f54bf6e1461024a5780633411c81c1461028a5780634bc9fdc2146102c557600080fd5b366101c85734156101c65760405134815233907fe1fffcc4923d04b559f4d29a8bfc6cda04eb5b0d3c460751c2402c5c5cc9109c9060200160405180910390a25b005b600080fd5b3480156101d957600080fd5b506101ed6101e83660046116f0565b61054a565b6040516001600160a01b0390911681526020015b60405180910390f35b34801561021657600080fd5b506101c6610225366004611725565b610574565b34801561023657600080fd5b506101c66102453660046116f0565b61072b565b34801561025657600080fd5b5061027a610265366004611725565b60026020526000908152604090205460ff1681565b6040519015158152602001610201565b34801561029657600080fd5b5061027a6102a5366004611740565b600160209081526000928352604080842090915290825290205460ff1681565b3480156102d157600080fd5b506102da6107e1565b604051908152602001610201565b3480156102f457600080fd5b506102da61030336600461177c565b610829565b34801561031457600080fd5b506102da60065481565b34801561032a57600080fd5b506102da60075481565b34801561034057600080fd5b506101c661034f366004611725565b6108a6565b34801561036057600080fd5b5061027a61036f3660046116f0565b6109bf565b34801561038057600080fd5b506102da61038f3660046116f0565b610a5b565b3480156103a057600080fd5b506103b46103af3660046116f0565b610ae1565b60405161020194939291906117a6565b3480156103d057600080fd5b506103d9610b9f565b6040516102019190611822565b3480156103f257600080fd5b5061040661040136600461186f565b610c01565b60405161020191906118b5565b34801561041f57600080fd5b506103d961042e3660046116f0565b610d99565b34801561043f57600080fd5b506102da60055481565b34801561045557600080fd5b506101c66104643660046116f0565b610f71565b34801561047557600080fd5b506101c66104843660046116f0565b610fee565b34801561049557600080fd5b506102da6104a4366004611903565b6110b5565b3480156104b557600080fd5b506101c66104c43660046116f0565b6110d4565b3480156104d557600080fd5b506102da603281565b3480156104ea57600080fd5b506102da60045481565b34801561050057600080fd5b506101c661050f3660046119ce565b61111b565b34801561052057600080fd5b506101c661052f3660046116f0565b6112ae565b34801561054057600080fd5b506102da60085481565b6003818154811061055a57600080fd5b6000918252602090912001546001600160a01b0316905081565b33301461058057600080fd5b6001600160a01b038116600090815260026020526040902054819060ff166105a757600080fd5b6001600160a01b0382166000908152600260205260408120805460ff191690555b6003546105d790600190611a0e565b8110156106a757826001600160a01b0316600382815481106105fb576105fb611a25565b6000918252602090912001546001600160a01b03161415610695576003805461062690600190611a0e565b8154811061063657610636611a25565b600091825260209091200154600380546001600160a01b03909216918390811061066257610662611a25565b9060005260206000200160006101000a8154816001600160a01b0302191690836001600160a01b031602179055506106a7565b8061069f81611a3b565b9150506105c8565b5060038054806106b9576106b9611a56565b600082815260209020810160001990810180546001600160a01b031916905501905560035460045411156106f3576003546106f390610f71565b6040516001600160a01b038316907f8001553a916ef2f495d26a907cc54d96ed840d7bda71e73194bf5a9df7a76b9090600090a25050565b3360008181526002602052604090205460ff1661074757600080fd5b60008281526001602090815260408083203380855292529091205483919060ff1661077157600080fd5b600084815260208190526040902060030154849060ff161561079257600080fd5b6000858152600160209081526040808320338085529252808320805460ff191690555187927ff6a317157440607f36269043eb55f1287a5a19ba2216afeab88cd46cbcfb88e991a35050505050565b6000600754620151806107f49190611a6c565b421115610802575060065490565b60085460065410156108145750600090565b6008546006546108249190611a0e565b905090565b6000805b60055481101561089f57838015610856575060008181526020819052604090206003015460ff16155b8061087a575082801561087a575060008181526020819052604090206003015460ff165b1561088d5761088a600183611a6c565b91505b8061089781611a3b565b91505061082d565b5092915050565b3330146108b257600080fd5b6001600160a01b038116600090815260026020526040902054819060ff16156108da57600080fd5b816001600160a01b0381166108ee57600080fd5b6003546108fc906001611a6c565b600454603282111580156109105750818111155b801561091b57508015155b801561092657508115155b61092f57600080fd5b6001600160a01b038516600081815260026020526040808220805460ff1916600190811790915560038054918201815583527fc2575a0e9e593c00f959f8c92f12db2869c3395a3b0502d05e2516446f71f85b0180546001600160a01b03191684179055517ff39e6e1eb0edcf53c221607b54b00cd28f3196fed0a24994dc308b8f611b682d9190a25050505050565b600080805b600354811015610a5457600084815260016020526040812060038054919291849081106109f3576109f3611a25565b60009182526020808320909101546001600160a01b0316835282019290925260400190205460ff1615610a2e57610a2b600183611a6c565b91505b600454821415610a42575060019392505050565b80610a4c81611a3b565b9150506109c4565b5050919050565b6000805b600354811015610adb5760008381526001602052604081206003805491929184908110610a8e57610a8e611a25565b60009182526020808320909101546001600160a01b0316835282019290925260400190205460ff1615610ac957610ac6600183611a6c565b91505b80610ad381611a3b565b915050610a5f565b50919050565b6000602081905290815260409020805460018201546002830180546001600160a01b03909316939192610b1390611a84565b80601f0160208091040260200160405190810160405280929190818152602001828054610b3f90611a84565b8015610b8c5780601f10610b6157610100808354040283529160200191610b8c565b820191906000526020600020905b815481529060010190602001808311610b6f57829003601f168201915b5050506003909301549192505060ff1684565b60606003805480602002602001604051908101604052809291908181526020018280548015610bf757602002820191906000526020600020905b81546001600160a01b03168152600190910190602001808311610bd9575b5050505050905090565b6060600060055467ffffffffffffffff811115610c2057610c206118ed565b604051908082528060200260200182016040528015610c49578160200160208202803683370190505b5090506000805b600554811015610ce057858015610c79575060008181526020819052604090206003015460ff16155b80610c9d5750848015610c9d575060008181526020819052604090206003015460ff165b15610cce5780838381518110610cb557610cb5611a25565b6020908102919091010152610ccb600183611a6c565b91505b80610cd881611a3b565b915050610c50565b610cea8888611a0e565b67ffffffffffffffff811115610d0257610d026118ed565b604051908082528060200260200182016040528015610d2b578160200160208202803683370190505b5093508790505b86811015610d8e57828181518110610d4c57610d4c611a25565b6020026020010151848983610d619190611a0e565b81518110610d7157610d71611a25565b602090810291909101015280610d8681611a3b565b915050610d32565b505050949350505050565b60035460609060009067ffffffffffffffff811115610dba57610dba6118ed565b604051908082528060200260200182016040528015610de3578160200160208202803683370190505b5090506000805b600354811015610ec15760008581526001602052604081206003805491929184908110610e1957610e19611a25565b60009182526020808320909101546001600160a01b0316835282019290925260400190205460ff1615610eaf5760038181548110610e5957610e59611a25565b9060005260206000200160009054906101000a90046001600160a01b0316838381518110610e8957610e89611a25565b6001600160a01b0390921660209283029190910190910152610eac600183611a6c565b91505b80610eb981611a3b565b915050610dea565b8167ffffffffffffffff811115610eda57610eda6118ed565b604051908082528060200260200182016040528015610f03578160200160208202803683370190505b509350600090505b81811015610f6957828181518110610f2557610f25611a25565b6020026020010151848281518110610f3f57610f3f611a25565b6001600160a01b039092166020928302919091019091015280610f6181611a3b565b915050610f0b565b505050919050565b333014610f7d57600080fd5b6003548160328211801590610f925750818111155b8015610f9d57508015155b8015610fa857508115155b610fb157600080fd5b60048390556040518381527fa3f1ee9126a074d9326c682f561767f710e927faa811f7a99829d49dc421797a9060200160405180910390a1505050565b3360008181526002602052604090205460ff1661100a57600080fd5b60008281526020819052604090205482906001600160a01b031661102d57600080fd5b60008381526001602090815260408083203380855292529091205484919060ff161561105857600080fd5b6000858152600160208181526040808420338086529252808420805460ff1916909317909255905187927f4a504a94899432a9846e1aa406dceb1bcfd538bb839071d49d1e5e23f5be30ef91a36110ae856112ae565b5050505050565b60006110c28484846114e1565b90506110cd81610fee565b9392505050565b3330146110e057600080fd5b60068190556040518181527fc71bdc6afaf9b1aa90a7078191d4fc1adf3bf680fca3183697df6b0dc226bca29060200160405180910390a150565b33301461112757600080fd5b6001600160a01b038216600090815260026020526040902054829060ff1661114e57600080fd5b6001600160a01b038216600090815260026020526040902054829060ff161561117657600080fd5b60005b60035481101561121457846001600160a01b0316600382815481106111a0576111a0611a25565b6000918252602090912001546001600160a01b031614156112025783600382815481106111cf576111cf611a25565b9060005260206000200160006101000a8154816001600160a01b0302191690836001600160a01b03160217905550611214565b8061120c81611a3b565b915050611179565b506001600160a01b03808516600081815260026020526040808220805460ff1990811690915593871682528082208054909416600117909355915190917f8001553a916ef2f495d26a907cc54d96ed840d7bda71e73194bf5a9df7a76b9091a26040516001600160a01b038416907ff39e6e1eb0edcf53c221607b54b00cd28f3196fed0a24994dc308b8f611b682d90600090a250505050565b3360008181526002602052604090205460ff166112ca57600080fd5b60008281526001602090815260408083203380855292529091205483919060ff166112f457600080fd5b600084815260208190526040902060030154849060ff161561131557600080fd5b60008581526020819052604081209061132d876109bf565b9050808061135c575081600201805461134590611a84565b159050801561135c575061135c82600101546115d4565b156114d85760038201805460ff19166001179055806113915781600101546008600082825461138b9190611a6c565b90915550505b8154600183015460028401805461144b936001600160a01b03169291906113b790611a84565b90508560020180546113c890611a84565b80601f01602080910402602001604051908101604052809291908181526020018280546113f490611a84565b80156114415780601f1061141657610100808354040283529160200191611441565b820191906000526020600020905b81548152906001019060200180831161142457829003601f168201915b5050505050611634565b156114805760405187907f33e13ecb54c3076d8e8bb8c2881800a4d972b792045ffae98fdf46df365fed7590600090a26114d8565b60405187907f526441bb6c1aba3c9a4a6ca1d6545da9c2333c8c48343ef398eb858d72b7923690600090a260038201805460ff19169055806114d8578160010154600860008282546114d29190611a0e565b90915550505b50505050505050565b6000836001600160a01b0381166114f757600080fd5b600554604080516080810182526001600160a01b038881168252602080830189815283850189815260006060860181905287815280845295909520845181546001600160a01b0319169416939093178355516001830155925180519496509193909261156a926002850192910190611657565b50606091909101516003909101805460ff1916911515919091179055600580546001919060009061159c908490611a6c565b909155505060405182907fc0ba8fe4b176c1714197d43b9cc6bcf797a4a7461c5fe8d0ef6e184ae7601e5190600090a2509392505050565b6000600754620151806115e79190611a6c565b4211156115f8574260075560006008555b600654826008546116099190611a6c565b118061161f575060085461161d8382611a6c565b105b1561162c57506000919050565b506001919050565b6000806040516020840160008287838a8c6187965a03f198975050505050505050565b82805461166390611a84565b90600052602060002090601f01602090048101928261168557600085556116cb565b82601f1061169e57805160ff19168380011785556116cb565b828001600101855582156116cb579182015b828111156116cb5782518255916020019190600101906116b0565b506116d79291506116db565b5090565b5b808211156116d757600081556001016116dc565b60006020828403121561170257600080fd5b5035919050565b80356001600160a01b038116811461172057600080fd5b919050565b60006020828403121561173757600080fd5b6110cd82611709565b6000806040838503121561175357600080fd5b8235915061176360208401611709565b90509250929050565b8035801515811461172057600080fd5b6000806040838503121561178f57600080fd5b6117988361176c565b91506117636020840161176c565b60018060a01b038516815260006020858184015260806040840152845180608085015260005b818110156117e85786810183015185820160a0015282016117cc565b818111156117fa57600060a083870101525b50601f01601f1916830160a00191506118199050606083018415159052565b95945050505050565b6020808252825182820181905260009190848201906040850190845b818110156118635783516001600160a01b03168352928401929184019160010161183e565b50909695505050505050565b6000806000806080858703121561188557600080fd5b843593506020850135925061189c6040860161176c565b91506118aa6060860161176c565b905092959194509250565b6020808252825182820181905260009190848201906040850190845b81811015611863578351835292840192918401916001016118d1565b634e487b7160e01b600052604160045260246000fd5b60008060006060848603121561191857600080fd5b61192184611709565b925060208401359150604084013567ffffffffffffffff8082111561194557600080fd5b818601915086601f83011261195957600080fd5b81358181111561196b5761196b6118ed565b604051601f8201601f19908116603f01168101908382118183101715611993576119936118ed565b816040528281528960208487010111156119ac57600080fd5b8260208601602083013760006020848301015280955050505050509250925092565b600080604083850312156119e157600080fd5b6119ea83611709565b915061176360208401611709565b634e487b7160e01b600052601160045260246000fd5b600082821015611a2057611a206119f8565b500390565b634e487b7160e01b600052603260045260246000fd5b6000600019821415611a4f57611a4f6119f8565b5060010190565b634e487b7160e01b600052603160045260246000fd5b60008219821115611a7f57611a7f6119f8565b500190565b600181811c90821680611a9857607f821691505b60208210811415610adb57634e487b7160e01b600052602260045260246000fdfea2646970667358221220e7ca1bec03665680563fc1586e45cb500db7b6cd1e8b6d5b551de6e59ff6673064736f6c634300080c0033",
  "linkReferences": {},
  "deployedLinkReferences": {}
}