{
  "_format": "hh-sol-artifact-1",
  "contractName": "TimeBondingCalculator",
  "sourceName": "contracts/TimeBondingCalculator.sol",
  "abi": [
    {
      "inputs": [
        {
          "internalType": "address",
          "name": "_Time",
          "type": "address"
        }
      ],
      "stateMutability": "nonpayable",
      "type": "constructor"
    },
    {
      "inputs": [],
      "name": "Time",
      "outputs": [
        {
          "internalType": "contract IERC20",
          "name": "",
          "type": "address"
        }
      ],
      "stateMutability": "view",
      "type": "function"
    },
    {
      "inputs": [
        {
          "internalType": "address",
          "name": "_pair",
          "type": "address"
        }
      ],
      "name": "getKValue",
      "outputs": [
        {
          "internalType": "uint256",
          "name": "k_",
          "type": "uint256"
        }
      ],
      "stateMutability": "view",
      "type": "function"
    },
    {
      "inputs": [
        {
          "internalType": "address",
          "name": "_pair",
          "type": "address"
        }
      ],
      "name": "getTotalValue",
      "outputs": [
        {
          "internalType": "uint256",
          "name": "_value",
          "type": "uint256"
        }
      ],
      "stateMutability": "view",
      "type": "function"
    },
    {
      "inputs": [
        {
          "internalType": "address",
          "name": "_pair",
          "type": "address"
        }
      ],
      "name": "markdown",
      "outputs": [
        {
          "internalType": "uint256",
          "name": "",
          "type": "uint256"
        }
      ],
      "stateMutability": "view",
      "type": "function"
    },
    {
      "inputs": [
        {
          "internalType": "address",
          "name": "_pair",
          "type": "address"
        },
        {
          "internalType": "uint256",
          "name": "amount_",
          "type": "uint256"
        }
      ],
      "name": "valuation",
      "outputs": [
        {
          "internalType": "uint256",
          "name": "_value",
          "type": "uint256"
        }
      ],
      "stateMutability": "view",
      "type": "function"
    }
  ],
  "bytecode": "0x60a060405234801561001057600080fd5b50604051610fdf380380610fdf83398101604081905261002f91610053565b6001600160a01b03811661004257600080fd5b6001600160a01b0316608052610083565b60006020828403121561006557600080fd5b81516001600160a01b038116811461007c57600080fd5b9392505050565b608051610f2d6100b26000396000818160c00152818161017c0152818161021e015261030c0152610f2d6000f3fe608060405234801561001057600080fd5b50600436106100575760003560e01c806332da80a31461005c5780634249719f14610082578063490084ef1461009557806368637549146100a8578063f8e157ea146100bb575b600080fd5b61006f61006a366004610c5b565b6100fa565b6040519081526020015b60405180910390f35b61006f610090366004610c78565b6103b8565b61006f6100a3366004610c5b565b610454565b61006f6100b6366004610c5b565b610755565b6100e27f000000000000000000000000000000000000000000000000000000000000000081565b6040516001600160a01b039091168152602001610079565b6000806000836001600160a01b0316630902f1ac6040518163ffffffff1660e01b8152600401606060405180830381865afa15801561013d573d6000803e3d6000fd5b505050506040513d601f19601f820116820180604052508101906101619190610cbb565b506001600160701b031691506001600160701b0316915060007f00000000000000000000000000000000000000000000000000000000000000006001600160a01b0316856001600160a01b0316630dfe16816040518163ffffffff1660e01b8152600401602060405180830381865afa1580156101e2573d6000803e3d6000fd5b505050506040513d601f19601f820116820180604052508101906102069190610d0b565b6001600160a01b0316141561021c5750806102fb565b7f00000000000000000000000000000000000000000000000000000000000000006001600160a01b0316856001600160a01b031663d21220a76040518163ffffffff1660e01b8152600401602060405180830381865afa158015610284573d6000803e3d6000fd5b505050506040513d601f19601f820116820180604052508101906102a89190610d0b565b6001600160a01b0316146102f85760405162461bcd60e51b81526020600482015260126024820152713737ba1030902a34b6b2903638103830b4b960711b60448201526064015b60405180910390fd5b50815b6103af61030786610755565b6103a97f00000000000000000000000000000000000000000000000000000000000000006001600160a01b031663313ce5676040518163ffffffff1660e01b8152600401602060405180830381865afa158015610368573d6000803e3d6000fd5b505050506040513d601f19601f8201168201806040525081019061038c9190610d28565b61039790600a610e3d565b6103a2906002610e4c565b8490610773565b906107a0565b95945050505050565b6000806103c484610755565b90506000846001600160a01b03166318160ddd6040518163ffffffff1660e01b8152600401602060405180830381865afa158015610406573d6000803e3d6000fd5b505050506040513d601f19601f8201168201806040525081019061042a9190610e6b565b90506103af670de0b6b3a76400006103a961044d61044888866107bf565b6108fa565b8590610773565b600080826001600160a01b0316630dfe16816040518163ffffffff1660e01b8152600401602060405180830381865afa158015610495573d6000803e3d6000fd5b505050506040513d601f19601f820116820180604052508101906104b99190610d0b565b6001600160a01b031663313ce5676040518163ffffffff1660e01b8152600401602060405180830381865afa1580156104f6573d6000803e3d6000fd5b505050506040513d601f19601f8201168201806040525081019061051a9190610d28565b60ff1690506000836001600160a01b031663d21220a76040518163ffffffff1660e01b8152600401602060405180830381865afa15801561055f573d6000803e3d6000fd5b505050506040513d601f19601f820116820180604052508101906105839190610d0b565b6001600160a01b031663313ce5676040518163ffffffff1660e01b8152600401602060405180830381865afa1580156105c0573d6000803e3d6000fd5b505050506040513d601f19601f820116820180604052508101906105e49190610d28565b60ff1690506000846001600160a01b031663313ce5676040518163ffffffff1660e01b8152600401602060405180830381865afa158015610629573d6000803e3d6000fd5b505050506040513d601f19601f8201168201806040525081019061064d9190610d28565b60ff169050600080866001600160a01b0316630902f1ac6040518163ffffffff1660e01b8152600401606060405180830381865afa158015610693573d6000803e3d6000fd5b505050506040513d601f19601f820116820180604052508101906106b79190610cbb565b506001600160701b039182169350169050826106d3868661091a565b10156107175760006106ef6106e8878761091a565b8590610935565b905061070f6106ff82600a610e84565b6107098585610773565b90610773565b96505061074b565b600061072d84610727888861091a565b90610935565b905061074761073d82600a610e84565b6103a98585610773565b9650505b5050505050919050565b600061076d600261070961076885610454565b610950565b92915050565b6000821580610797575081836107898282610e4c565b92506107959083610ea6565b145b61076d57600080fd5b60008082116107ae57600080fd5b6107b88284610ea6565b9392505050565b6040805160208101909152600081526000821161082d5760405162461bcd60e51b815260206004820152602660248201527f4669786564506f696e743a3a6672616374696f6e3a206469766973696f6e206260448201526579207a65726f60d01b60648201526084016102ef565b82610847575060408051602081019091526000815261076d565b71ffffffffffffffffffffffffffffffffffff83116108e957600061087083607086901b610ea6565b90506001600160e01b038111156108c95760405162461bcd60e51b815260206004820152601e60248201527f4669786564506f696e743a3a6672616374696f6e3a206f766572666c6f77000060448201526064016102ef565b6040518060200160405280826001600160e01b031681525091505061076d565b600061087084600160701b856109bb565b805160009061076d906612725dd1d243ab906001600160e01b0316610ea6565b6000826109278382610ec8565b915081101561076d57600080fd5b6000826109428382610ee0565b915081111561076d57600080fd5b600060038211156109ac575080600061097461096d8360026107a0565b600161091a565b90505b818110156109a65780915061099f61099861099285846107a0565b8361091a565b60026107a0565b9050610977565b50919050565b81156109b6575060015b919050565b60008060006109ca8686610a6a565b91509150600084806109de576109de610e90565b8688099050828111156109f9576109f6600183610ee0565b91505b610a038184610ee0565b9250848210610a545760405162461bcd60e51b815260206004820152601a60248201527f46756c6c4d6174683a3a6d756c4469763a206f766572666c6f7700000000000060448201526064016102ef565b610a5f838387610aac565b979650505050505050565b600080806000198486099050610a808486610e4c565b9250610a8c8382610ee0565b915082811015610aa457610aa1600183610ee0565b91505b509250929050565b600080610abb83600019610ee0565b610ac6906001610ec8565b83169050610ad48184610ea6565b9250610ae08186610ea6565b945080610aef81600019610ee0565b610afa906001610ec8565b610b049190610ea6565b610b0f906001610ec8565b610b199085610e4c565b610b239086610ec8565b94506001610b318185610e4c565b610b3c906002610ee0565b610b469082610e4c565b9050610b528185610e4c565b610b5d906002610ee0565b610b679082610e4c565b9050610b738185610e4c565b610b7e906002610ee0565b610b889082610e4c565b9050610b948185610e4c565b610b9f906002610ee0565b610ba99082610e4c565b9050610bb58185610e4c565b610bc0906002610ee0565b610bca9082610e4c565b9050610bd68185610e4c565b610be1906002610ee0565b610beb9082610e4c565b9050610bf78185610e4c565b610c02906002610ee0565b610c0c9082610e4c565b9050610c188185610e4c565b610c23906002610ee0565b610c2d9082610e4c565b9050610c398187610e4c565b9695505050505050565b6001600160a01b0381168114610c5857600080fd5b50565b600060208284031215610c6d57600080fd5b81356107b881610c43565b60008060408385031215610c8b57600080fd5b8235610c9681610c43565b946020939093013593505050565b80516001600160701b03811681146109b657600080fd5b600080600060608486031215610cd057600080fd5b610cd984610ca4565b9250610ce760208501610ca4565b9150604084015163ffffffff81168114610d0057600080fd5b809150509250925092565b600060208284031215610d1d57600080fd5b81516107b881610c43565b600060208284031215610d3a57600080fd5b815160ff811681146107b857600080fd5b634e487b7160e01b600052601160045260246000fd5b600181815b80851115610aa4578160001904821115610d8257610d82610d4b565b80851615610d8f57918102915b93841c9390800290610d66565b600082610dab5750600161076d565b81610db85750600061076d565b8160018114610dce5760028114610dd857610df4565b600191505061076d565b60ff841115610de957610de9610d4b565b50506001821b61076d565b5060208310610133831016604e8410600b8410161715610e17575081810a61076d565b610e218383610d61565b8060001904821115610e3557610e35610d4b565b029392505050565b60006107b860ff841683610d9c565b6000816000190483118215151615610e6657610e66610d4b565b500290565b600060208284031215610e7d57600080fd5b5051919050565b60006107b88383610d9c565b634e487b7160e01b600052601260045260246000fd5b600082610ec357634e487b7160e01b600052601260045260246000fd5b500490565b60008219821115610edb57610edb610d4b565b500190565b600082821015610ef257610ef2610d4b565b50039056fea26469706673582212204664800dd1448ff24e3083125c3ba79fae0b975ca3961a45d80b0d7e11715d3d64736f6c634300080c0033",
  "linkReferences": {},
  "deployedLinkReferences": {}
}