{
  "_format": "hh-sol-artifact-1",
  "contractName": "StakingHelper",
  "sourceName": "contracts/StakingHelper.sol",
  "abi": [
    {
      "inputs": [
        {
          "internalType": "address",
          "name": "_staking",
          "type": "address"
        },
        {
          "internalType": "address",
          "name": "_Time",
          "type": "address"
        }
      ],
      "stateMutability": "nonpayable",
      "type": "constructor"
    },
    {
      "anonymous": false,
      "inputs": [
        {
          "indexed": true,
          "internalType": "address",
          "name": "recipient",
          "type": "address"
        },
        {
          "indexed": false,
          "internalType": "uint256",
          "name": "amount",
          "type": "uint256"
        }
      ],
      "name": "LogStake",
      "type": "event"
    },
    {
      "inputs": [],
      "name": "Time",
      "outputs": [
        {
          "internalType": "contract IERC20",
          "name": "",
          "type": "address"
        }
      ],
      "stateMutability": "view",
      "type": "function"
    },
    {
      "inputs": [
        {
          "internalType": "uint256",
          "name": "_amount",
          "type": "uint256"
        },
        {
          "internalType": "address",
          "name": "recipient",
          "type": "address"
        }
      ],
      "name": "stake",
      "outputs": [],
      "stateMutability": "nonpayable",
      "type": "function"
    },
    {
      "inputs": [],
      "name": "staking",
      "outputs": [
        {
          "internalType": "contract IStaking",
          "name": "",
          "type": "address"
        }
      ],
      "stateMutability": "view",
      "type": "function"
    }
  ],
  "bytecode": "0x60c060405234801561001057600080fd5b5060405161050338038061050383398101604081905261002f91610089565b6001600160a01b03821661004257600080fd5b6001600160a01b03808316608052811661005b57600080fd5b6001600160a01b031660a052506100bc565b80516001600160a01b038116811461008457600080fd5b919050565b6000806040838503121561009c57600080fd5b6100a58361006d565b91506100b36020840161006d565b90509250929050565b60805160a0516104026101016000396000818160a30152818160e701526101a3015260008181604b015281816101740152818161023701526102c401526104026000f3fe608060405234801561001057600080fd5b50600436106100415760003560e01c80634cf088d9146100465780637acb775714610089578063f8e157ea1461009e575b600080fd5b61006d7f000000000000000000000000000000000000000000000000000000000000000081565b6040516001600160a01b03909116815260200160405180910390f35b61009c610097366004610367565b6100c5565b005b61006d7f000000000000000000000000000000000000000000000000000000000000000081565b6040516323b872dd60e01b8152336004820152306024820152604481018390527f00000000000000000000000000000000000000000000000000000000000000006001600160a01b0316906323b872dd906064016020604051808303816000875af1158015610138573d6000803e3d6000fd5b505050506040513d601f19601f8201168201806040525081019061015c91906103a3565b5060405163095ea7b360e01b81526001600160a01b037f000000000000000000000000000000000000000000000000000000000000000081166004830152602482018490527f0000000000000000000000000000000000000000000000000000000000000000169063095ea7b3906044016020604051808303816000875af11580156101ec573d6000803e3d6000fd5b505050506040513d601f19601f8201168201806040525081019061021091906103a3565b50604051637acb775760e01b8152600481018390526001600160a01b0382811660248301527f00000000000000000000000000000000000000000000000000000000000000001690637acb7757906044016020604051808303816000875af1158015610280573d6000803e3d6000fd5b505050506040513d601f19601f820116820180604052508101906102a491906103a3565b50604051630f41a04d60e11b81526001600160a01b0382811660048301527f00000000000000000000000000000000000000000000000000000000000000001690631e83409a90602401600060405180830381600087803b15801561030857600080fd5b505af115801561031c573d6000803e3d6000fd5b50505050806001600160a01b03167f3dbdcfd4c1f2e08931aae3d544e149a1e643143f5234d166fe3debb7833884958360405161035b91815260200190565b60405180910390a25050565b6000806040838503121561037a57600080fd5b8235915060208301356001600160a01b038116811461039857600080fd5b809150509250929050565b6000602082840312156103b557600080fd5b815180151581146103c557600080fd5b939250505056fea2646970667358221220e63b8338c1f06a35464a636cfa8ff5af1212d14b59561dd64264e393a2c8651764736f6c634300080c0033",
  "linkReferences": {},
  "deployedLinkReferences": {}
}