{
  "_format": "hh-sol-artifact-1",
  "contractName": "TimeStaking",
  "sourceName": "contracts/Staking.sol",
  "abi": [
    {
      "inputs": [
        {
          "internalType": "address",
          "name": "_Time",
          "type": "address"
        },
        {
          "internalType": "address",
          "name": "_Memories",
          "type": "address"
        },
        {
          "internalType": "uint32",
          "name": "_epochLength",
          "type": "uint32"
        },
        {
          "internalType": "uint256",
          "name": "_firstEpochNumber",
          "type": "uint256"
        },
        {
          "internalType": "uint32",
          "name": "_firstEpochTime",
          "type": "uint32"
        }
      ],
      "stateMutability": "nonpayable",
      "type": "constructor"
    },
    {
      "anonymous": false,
      "inputs": [
        {
          "indexed": true,
          "internalType": "address",
          "name": "recipient",
          "type": "address"
        },
        {
          "indexed": false,
          "internalType": "uint256",
          "name": "amount",
          "type": "uint256"
        }
      ],
      "name": "LogClaim",
      "type": "event"
    },
    {
      "anonymous": false,
      "inputs": [
        {
          "indexed": true,
          "internalType": "address",
          "name": "user",
          "type": "address"
        },
        {
          "indexed": false,
          "internalType": "bool",
          "name": "locked",
          "type": "bool"
        }
      ],
      "name": "LogDepositLock",
      "type": "event"
    },
    {
      "anonymous": false,
      "inputs": [
        {
          "indexed": true,
          "internalType": "address",
          "name": "recipient",
          "type": "address"
        },
        {
          "indexed": false,
          "internalType": "uint256",
          "name": "memoAmount",
          "type": "uint256"
        },
        {
          "indexed": false,
          "internalType": "uint256",
          "name": "timeAmount",
          "type": "uint256"
        }
      ],
      "name": "LogForfeit",
      "type": "event"
    },
    {
      "anonymous": false,
      "inputs": [
        {
          "indexed": false,
          "internalType": "uint256",
          "name": "distribute",
          "type": "uint256"
        }
      ],
      "name": "LogRebase",
      "type": "event"
    },
    {
      "anonymous": false,
      "inputs": [
        {
          "indexed": false,
          "internalType": "enum TimeStaking.CONTRACTS",
          "name": "contractType",
          "type": "uint8"
        },
        {
          "indexed": true,
          "internalType": "address",
          "name": "_contract",
          "type": "address"
        }
      ],
      "name": "LogSetContract",
      "type": "event"
    },
    {
      "anonymous": false,
      "inputs": [
        {
          "indexed": true,
          "internalType": "address",
          "name": "recipient",
          "type": "address"
        },
        {
          "indexed": false,
          "internalType": "uint256",
          "name": "amount",
          "type": "uint256"
        }
      ],
      "name": "LogStake",
      "type": "event"
    },
    {
      "anonymous": false,
      "inputs": [
        {
          "indexed": true,
          "internalType": "address",
          "name": "recipient",
          "type": "address"
        },
        {
          "indexed": false,
          "internalType": "uint256",
          "name": "amount",
          "type": "uint256"
        }
      ],
      "name": "LogUnstake",
      "type": "event"
    },
    {
      "anonymous": false,
      "inputs": [
        {
          "indexed": false,
          "internalType": "uint256",
          "name": "period",
          "type": "uint256"
        }
      ],
      "name": "LogWarmupPeriod",
      "type": "event"
    },
    {
      "anonymous": false,
      "inputs": [
        {
          "indexed": true,
          "internalType": "address",
          "name": "previousOwner",
          "type": "address"
        },
        {
          "indexed": true,
          "internalType": "address",
          "name": "newOwner",
          "type": "address"
        }
      ],
      "name": "OwnershipTransferred",
      "type": "event"
    },
    {
      "inputs": [],
      "name": "Memories",
      "outputs": [
        {
          "internalType": "contract IMemo",
          "name": "",
          "type": "address"
        }
      ],
      "stateMutability": "view",
      "type": "function"
    },
    {
      "inputs": [],
      "name": "Time",
      "outputs": [
        {
          "internalType": "contract IERC20",
          "name": "",
          "type": "address"
        }
      ],
      "stateMutability": "view",
      "type": "function"
    },
    {
      "inputs": [
        {
          "internalType": "address",
          "name": "_recipient",
          "type": "address"
        }
      ],
      "name": "claim",
      "outputs": [],
      "stateMutability": "nonpayable",
      "type": "function"
    },
    {
      "inputs": [],
      "name": "claimOwnership",
      "outputs": [],
      "stateMutability": "nonpayable",
      "type": "function"
    },
    {
      "inputs": [],
      "name": "contractBalance",
      "outputs": [
        {
          "internalType": "uint256",
          "name": "",
          "type": "uint256"
        }
      ],
      "stateMutability": "view",
      "type": "function"
    },
    {
      "inputs": [],
      "name": "distributor",
      "outputs": [
        {
          "internalType": "contract IDistributor",
          "name": "",
          "type": "address"
        }
      ],
      "stateMutability": "view",
      "type": "function"
    },
    {
      "inputs": [],
      "name": "epoch",
      "outputs": [
        {
          "internalType": "uint256",
          "name": "number",
          "type": "uint256"
        },
        {
          "internalType": "uint256",
          "name": "distribute",
          "type": "uint256"
        },
        {
          "internalType": "uint32",
          "name": "length",
          "type": "uint32"
        },
        {
          "internalType": "uint32",
          "name": "endTime",
          "type": "uint32"
        }
      ],
      "stateMutability": "view",
      "type": "function"
    },
    {
      "inputs": [],
      "name": "forfeit",
      "outputs": [],
      "stateMutability": "nonpayable",
      "type": "function"
    },
    {
      "inputs": [],
      "name": "index",
      "outputs": [
        {
          "internalType": "uint256",
          "name": "",
          "type": "uint256"
        }
      ],
      "stateMutability": "view",
      "type": "function"
    },
    {
      "inputs": [],
      "name": "owner",
      "outputs": [
        {
          "internalType": "address",
          "name": "",
          "type": "address"
        }
      ],
      "stateMutability": "view",
      "type": "function"
    },
    {
      "inputs": [],
      "name": "pendingOwner",
      "outputs": [
        {
          "internalType": "address",
          "name": "",
          "type": "address"
        }
      ],
      "stateMutability": "view",
      "type": "function"
    },
    {
      "inputs": [],
      "name": "rebase",
      "outputs": [],
      "stateMutability": "nonpayable",
      "type": "function"
    },
    {
      "inputs": [
        {
          "internalType": "enum TimeStaking.CONTRACTS",
          "name": "_contract",
          "type": "uint8"
        },
        {
          "internalType": "address",
          "name": "_address",
          "type": "address"
        }
      ],
      "name": "setContract",
      "outputs": [],
      "stateMutability": "nonpayable",
      "type": "function"
    },
    {
      "inputs": [
        {
          "internalType": "uint256",
          "name": "_warmupPeriod",
          "type": "uint256"
        }
      ],
      "name": "setWarmup",
      "outputs": [],
      "stateMutability": "nonpayable",
      "type": "function"
    },
    {
      "inputs": [
        {
          "internalType": "uint256",
          "name": "_amount",
          "type": "uint256"
        },
        {
          "internalType": "address",
          "name": "_recipient",
          "type": "address"
        }
      ],
      "name": "stake",
      "outputs": [
        {
          "internalType": "bool",
          "name": "",
          "type": "bool"
        }
      ],
      "stateMutability": "nonpayable",
      "type": "function"
    },
    {
      "inputs": [],
      "name": "toggleDepositLock",
      "outputs": [],
      "stateMutability": "nonpayable",
      "type": "function"
    },
    {
      "inputs": [],
      "name": "totalBonus",
      "outputs": [
        {
          "internalType": "uint256",
          "name": "",
          "type": "uint256"
        }
      ],
      "stateMutability": "view",
      "type": "function"
    },
    {
      "inputs": [
        {
          "internalType": "address",
          "name": "newOwner",
          "type": "address"
        },
        {
          "internalType": "bool",
          "name": "direct",
          "type": "bool"
        },
        {
          "internalType": "bool",
          "name": "renounce",
          "type": "bool"
        }
      ],
      "name": "transferOwnership",
      "outputs": [],
      "stateMutability": "nonpayable",
      "type": "function"
    },
    {
      "inputs": [
        {
          "internalType": "uint256",
          "name": "_amount",
          "type": "uint256"
        },
        {
          "internalType": "bool",
          "name": "_trigger",
          "type": "bool"
        }
      ],
      "name": "unstake",
      "outputs": [],
      "stateMutability": "nonpayable",
      "type": "function"
    },
    {
      "inputs": [],
      "name": "warmupContract",
      "outputs": [
        {
          "internalType": "contract IWarmup",
          "name": "",
          "type": "address"
        }
      ],
      "stateMutability": "view",
      "type": "function"
    },
    {
      "inputs": [
        {
          "internalType": "address",
          "name": "",
          "type": "address"
        }
      ],
      "name": "warmupInfo",
      "outputs": [
        {
          "internalType": "uint256",
          "name": "deposit",
          "type": "uint256"
        },
        {
          "internalType": "uint256",
          "name": "gons",
          "type": "uint256"
        },
        {
          "internalType": "uint256",
          "name": "expiry",
          "type": "uint256"
        },
        {
          "internalType": "bool",
          "name": "lock",
          "type": "bool"
        }
      ],
      "stateMutability": "view",
      "type": "function"
    },
    {
      "inputs": [],
      "name": "warmupPeriod",
      "outputs": [
        {
          "internalType": "uint256",
          "name": "",
          "type": "uint256"
        }
      ],
      "stateMutability": "view",
      "type": "function"
    }
  ],
  "bytecode": "0x60c06040523480156200001157600080fd5b50604051620019eb380380620019eb833981016040819052620000349162000143565b600080546001600160a01b0319163390811782556040519091907f8be0079c531659141344cd1fd0a4f28419497f9722a3daafe3b4186f6b6457e0908290a36001600160a01b0385166200008757600080fd5b6001600160a01b038086166080528416620000a157600080fd5b6001600160a01b0390931660a0526040805160808101825282815260006020820181905263ffffffff948516928201839052949093166060909301839052600291909155600392909255600480546401000000009092026001600160401b031990921690921717905550620001aa565b80516001600160a01b03811681146200012957600080fd5b919050565b805163ffffffff811681146200012957600080fd5b600080600080600060a086880312156200015c57600080fd5b620001678662000111565b9450620001776020870162000111565b935062000187604087016200012e565b9250606086015191506200019e608087016200012e565b90509295509295909350565b60805160a0516117c7620002246000396000818161018f0152818161054801528181610675015281816108b6015281816109c101528181610c9401528181610d5901528181610ed1015261109201526000818161035a015281816107ce01528181610ba401528181610cc9015261117101526117c76000f3fe608060405234801561001057600080fd5b50600436106101425760003560e01c8063900cf0cf116100b8578063c9f464ff1161007c578063c9f464ff1461030b578063deac361a1461031e578063e30c397814610327578063ed4acaa81461033a578063f3d86e4a1461034d578063f8e157ea1461035557600080fd5b8063900cf0cf146102845780639ebea88c146102d4578063a8dd07dc146102e7578063af14052c146102f0578063bfe10928146102f857600080fd5b80636746f4c21161010a5780636746f4c2146101d15780637acb77571461022b578063865e6fd31461024e5780638b7afe2e146102615780638da5cb5b146102695780638f077b831461027c57600080fd5b8063078dfbe7146101475780631e83409a1461015c5780632986c0e51461016f578063367efb621461018a5780634e71e0c8146101c9575b600080fd5b61015a6101553660046114d5565b61037c565b005b61015a61016a36600461151e565b610493565b610177610671565b6040519081526020015b60405180910390f35b6101b17f000000000000000000000000000000000000000000000000000000000000000081565b6040516001600160a01b039091168152602001610181565b61015a6106fa565b6102096101df36600461151e565b60096020526000908152604090208054600182015460028301546003909301549192909160ff1684565b6040805194855260208501939093529183015215156060820152608001610181565b61023e610239366004611540565b6107b7565b6040519015158152602001610181565b61015a61025c36600461156c565b610a39565b610177610b7d565b6000546101b1906001600160a01b031681565b61015a610c15565b6002546003546004546102a892919063ffffffff8082169164010000000090041684565b60408051948552602085019390935263ffffffff91821692840192909252166060820152608001610181565b61015a6102e236600461159c565b610c79565b61017760065481565b61015a610d22565b6005546101b1906001600160a01b031681565b61015a6103193660046115cc565b610fad565b61017760085481565b6001546101b1906001600160a01b031681565b6007546101b1906001600160a01b031681565b61015a611012565b6101b17f000000000000000000000000000000000000000000000000000000000000000081565b6000546001600160a01b031633146103af5760405162461bcd60e51b81526004016103a6906115e5565b60405180910390fd5b8115610472576001600160a01b0383161515806103c95750805b61040d5760405162461bcd60e51b81526020600482015260156024820152744f776e61626c653a207a65726f206164647265737360581b60448201526064016103a6565b600080546040516001600160a01b03808716939216917f8be0079c531659141344cd1fd0a4f28419497f9722a3daafe3b4186f6b6457e091a3600080546001600160a01b0385166001600160a01b031991821617909155600180549091169055505050565b600180546001600160a01b0319166001600160a01b0385161790555b505050565b6001600160a01b03811660009081526009602090815260409182902082516080810184528154815260018201549281019290925260028082015493830184905260039091015460ff1615156060830152549091118015906104f75750604081015115155b1561066d576001600160a01b0380831660009081526009602090815260408083208381556001810184905560028101849055600301805460ff19169055908401519051637965d56d60e01b815291927f00000000000000000000000000000000000000000000000000000000000000001691637965d56d9161057f9160040190815260200190565b602060405180830381865afa15801561059c573d6000803e3d6000fd5b505050506040513d601f19601f820116820180604052508101906105c0919061161a565b60075460405163c3a2a66560e01b81526001600160a01b0386811660048301526024820184905292935091169063c3a2a66590604401600060405180830381600087803b15801561061057600080fd5b505af1158015610624573d6000803e3d6000fd5b50505050826001600160a01b03167ffce6d5860f911bc27ece1365300332d2ddbe20c1adc46ee2eddd8f72c48053b28260405161066391815260200190565b60405180910390a2505b5050565b60007f00000000000000000000000000000000000000000000000000000000000000006001600160a01b0316632986c0e56040518163ffffffff1660e01b8152600401602060405180830381865afa1580156106d1573d6000803e3d6000fd5b505050506040513d601f19601f820116820180604052508101906106f5919061161a565b905090565b6001546001600160a01b03163381146107555760405162461bcd60e51b815260206004820181905260248201527f4f776e61626c653a2063616c6c657220213d2070656e64696e67206f776e657260448201526064016103a6565b600080546040516001600160a01b03808516939216917f8be0079c531659141344cd1fd0a4f28419497f9722a3daafe3b4186f6b6457e091a3600080546001600160a01b039092166001600160a01b0319928316179055600180549091169055565b60006107c1610d22565b6107f66001600160a01b037f0000000000000000000000000000000000000000000000000000000000000000163330866111d5565b6001600160a01b03821660009081526009602090815260409182902082516080810184528154815260018201549281019290925260028101549282019290925260039091015460ff1615801560608301526108935760405162461bcd60e51b815260206004820152601f60248201527f4465706f7369747320666f72206163636f756e7420617265206c6f636b65640060448201526064016103a6565b6040805160808101909152815181906108ac9087611246565b815260200161094e7f00000000000000000000000000000000000000000000000000000000000000006001600160a01b0316631bd39674886040518263ffffffff1660e01b815260040161090291815260200190565b602060405180830381865afa15801561091f573d6000803e3d6000fd5b505050506040513d601f19601f82011682018060405250810190610943919061161a565b602085015190611246565b815260085460025460209092019161096591611246565b8152600060209182018190526001600160a01b03868116825260098352604091829020845181559284015160018401559083015160028301556060909201516003909101805460ff19169115159190911790556007546109ea917f00000000000000000000000000000000000000000000000000000000000000008116911686611261565b826001600160a01b03167f3dbdcfd4c1f2e08931aae3d544e149a1e643143f5234d166fe3debb78338849585604051610a2591815260200190565b60405180910390a260019150505b92915050565b6000546001600160a01b03163314610a635760405162461bcd60e51b81526004016103a6906115e5565b6000826001811115610a7757610a77611633565b1415610a9d57600580546001600160a01b0319166001600160a01b038316179055610b38565b6001826001811115610ab157610ab1611633565b1415610b38576007546001600160a01b031615610b1c5760405162461bcd60e51b815260206004820152602360248201527f5761726d75702063616e6e6f7420626520736574206d6f7265207468616e206f6044820152626e636560e81b60648201526084016103a6565b600780546001600160a01b0319166001600160a01b0383161790555b806001600160a01b03167f74a3f47ee8c75a3912be4eeb0120ef2a7e6d7dfb822ea75f3f3843a3d366ae7883604051610b719190611649565b60405180910390a25050565b6006546040516370a0823160e01b81523060048201526000916106f5916001600160a01b037f000000000000000000000000000000000000000000000000000000000000000016906370a0823190602401602060405180830381865afa158015610beb573d6000803e3d6000fd5b505050506040513d601f19601f82011682018060405250810190610c0f919061161a565b90611246565b3360008181526009602052604090819020600301805460ff19811660ff9182161590811790925591517f84980d6cdf0a9cada77d43f70d2d8419bd623f064919f2e227dbc39404866dc992610c6f92161515815260200190565b60405180910390a2565b8015610c8757610c87610d22565b610cbc6001600160a01b037f0000000000000000000000000000000000000000000000000000000000000000163330856111d5565b610cf06001600160a01b037f0000000000000000000000000000000000000000000000000000000000000000163384611261565b60405182815233907faf14da4c9c7eeb91ef462950405340d31988005c789d867d3a1394f082105e8990602001610b71565b60045463ffffffff4281166401000000009092041611610fab57600354600254604051630163b36d60e21b81526001600160a01b037f0000000000000000000000000000000000000000000000000000000000000000169263058ecdb492610d9592600401918252602082015260400190565b6020604051808303816000875af1158015610db4573d6000803e3d6000fd5b505050506040513d601f19601f82011682018060405250810190610dd8919061161a565b50600454610df99063ffffffff640100000000820481169181169061129116565b6004805463ffffffff929092166401000000000267ffffffff000000001990921691909117905560028054906000610e3083611687565b90915550506005546001600160a01b031615610ec157600560009054906101000a90046001600160a01b03166001600160a01b031663e4fc6b6d6040518163ffffffff1660e01b81526004016020604051808303816000875af1158015610e9b573d6000803e3d6000fd5b505050506040513d601f19601f82011682018060405250810190610ebf91906116a2565b505b6000610ecb610b7d565b905060007f00000000000000000000000000000000000000000000000000000000000000006001600160a01b0316639358928b6040518163ffffffff1660e01b8152600401602060405180830381865afa158015610f2d573d6000803e3d6000fd5b505050506040513d601f19601f82011682018060405250810190610f51919061161a565b9050808211610f64576000600355610f72565b610f6e82826112b8565b6003555b6003546040519081527f60633057fb2c2558942a126acc1dc7c639b6fdee660a0171f7500e2ac5918b2e9060200160405180910390a150505b565b6000546001600160a01b03163314610fd75760405162461bcd60e51b81526004016103a6906115e5565b60088190556040518181527f0538aaeb1d9d528cb5e132864d95d2d7350a7a3879a90d0ce93164557c22ed319060200160405180910390a150565b3360008181526009602081815260408084208151608081018352815481526001820180548286019081526002840180548487015260038501805460ff8116151560608701529a8a5297909652928790558690559285905560ff1990951690925592519051637965d56d60e01b815260048101919091526001600160a01b037f00000000000000000000000000000000000000000000000000000000000000001690637965d56d90602401602060405180830381865afa1580156110d9573d6000803e3d6000fd5b505050506040513d601f19601f820116820180604052508101906110fd919061161a565b60075460405163c3a2a66560e01b8152306004820152602481018390529192506001600160a01b03169063c3a2a66590604401600060405180830381600087803b15801561114a57600080fd5b505af115801561115e573d6000803e3d6000fd5b5050835161119a92506001600160a01b037f00000000000000000000000000000000000000000000000000000000000000001691503390611261565b815160405133917fed3bd88323251a29d30eb9552dda9f85957286ace369047d9b59ecccd4939e1291610b7191858252602082015260400190565b6040516001600160a01b03808516602483015283166044820152606481018290526112409085906323b872dd60e01b906084015b60408051601f198184030181529190526020810180516001600160e01b03166001600160e01b0319909316929092179091526112d3565b50505050565b60008261125383826116bf565b9150811015610a3357600080fd5b6040516001600160a01b03831660248201526044810182905261048e90849063a9059cbb60e01b90606401611209565b600063ffffffff83166112a483856116d7565b91508163ffffffff161015610a3357600080fd5b6000826112c583826116ff565b9150811115610a3357600080fd5b6000611328826040518060400160405280602081526020017f5361666545524332303a206c6f772d6c6576656c2063616c6c206661696c6564815250856001600160a01b03166113a59092919063ffffffff16565b80519091501561048e578080602001905181019061134691906116a2565b61048e5760405162461bcd60e51b815260206004820152602a60248201527f5361666545524332303a204552433230206f7065726174696f6e20646964206e6044820152691bdd081cdd58d8d9595960b21b60648201526084016103a6565b60606113b484846000856113bc565b949350505050565b6060843b61140c5760405162461bcd60e51b815260206004820152601d60248201527f416464726573733a2063616c6c20746f206e6f6e2d636f6e747261637400000060448201526064016103a6565b600080866001600160a01b031685876040516114289190611742565b60006040518083038185875af1925050503d8060008114611465576040519150601f19603f3d011682016040523d82523d6000602084013e61146a565b606091505b5091509150811561147e5791506113b49050565b80511561148e5780518082602001fd5b8360405162461bcd60e51b81526004016103a6919061175e565b80356001600160a01b03811681146114bf57600080fd5b919050565b80151581146114d257600080fd5b50565b6000806000606084860312156114ea57600080fd5b6114f3846114a8565b92506020840135611503816114c4565b91506040840135611513816114c4565b809150509250925092565b60006020828403121561153057600080fd5b611539826114a8565b9392505050565b6000806040838503121561155357600080fd5b82359150611563602084016114a8565b90509250929050565b6000806040838503121561157f57600080fd5b82356002811061158e57600080fd5b9150611563602084016114a8565b600080604083850312156115af57600080fd5b8235915060208301356115c1816114c4565b809150509250929050565b6000602082840312156115de57600080fd5b5035919050565b6020808252818101527f4f776e61626c653a2063616c6c6572206973206e6f7420746865206f776e6572604082015260600190565b60006020828403121561162c57600080fd5b5051919050565b634e487b7160e01b600052602160045260246000fd5b602081016002831061166b57634e487b7160e01b600052602160045260246000fd5b91905290565b634e487b7160e01b600052601160045260246000fd5b600060001982141561169b5761169b611671565b5060010190565b6000602082840312156116b457600080fd5b8151611539816114c4565b600082198211156116d2576116d2611671565b500190565b600063ffffffff8083168185168083038211156116f6576116f6611671565b01949350505050565b60008282101561171157611711611671565b500390565b60005b83811015611731578181015183820152602001611719565b838111156112405750506000910152565b60008251611754818460208701611716565b9190910192915050565b602081526000825180602084015261177d816040850160208701611716565b601f01601f1916919091016040019291505056fea2646970667358221220e4dec657acd4172240719f1a04cea987ea4ba2f836a608ba9be6779b6a6eb67364736f6c634300080c0033",
  "linkReferences": {},
  "deployedLinkReferences": {}
}