{
  "_format": "hh-sol-artifact-1",
  "contractName": "MEMOries",
  "sourceName": "contracts/Memo.sol",
  "abi": [
    {
      "inputs": [],
      "stateMutability": "nonpayable",
      "type": "constructor"
    },
    {
      "anonymous": false,
      "inputs": [
        {
          "indexed": true,
          "internalType": "address",
          "name": "owner",
          "type": "address"
        },
        {
          "indexed": true,
          "internalType": "address",
          "name": "spender",
          "type": "address"
        },
        {
          "indexed": false,
          "internalType": "uint256",
          "name": "value",
          "type": "uint256"
        }
      ],
      "name": "Approval",
      "type": "event"
    },
    {
      "anonymous": false,
      "inputs": [
        {
          "indexed": true,
          "internalType": "uint256",
          "name": "epoch",
          "type": "uint256"
        },
        {
          "indexed": false,
          "internalType": "uint256",
          "name": "rebase",
          "type": "uint256"
        },
        {
          "indexed": false,
          "internalType": "uint256",
          "name": "index",
          "type": "uint256"
        }
      ],
      "name": "LogRebase",
      "type": "event"
    },
    {
      "anonymous": false,
      "inputs": [
        {
          "indexed": true,
          "internalType": "uint256",
          "name": "index",
          "type": "uint256"
        }
      ],
      "name": "LogSetIndex",
      "type": "event"
    },
    {
      "anonymous": false,
      "inputs": [
        {
          "indexed": false,
          "internalType": "address",
          "name": "stakingContract",
          "type": "address"
        }
      ],
      "name": "LogStakingContractUpdated",
      "type": "event"
    },
    {
      "anonymous": false,
      "inputs": [
        {
          "indexed": true,
          "internalType": "uint256",
          "name": "epoch",
          "type": "uint256"
        },
        {
          "indexed": false,
          "internalType": "uint256",
          "name": "timestamp",
          "type": "uint256"
        },
        {
          "indexed": false,
          "internalType": "uint256",
          "name": "totalSupply",
          "type": "uint256"
        }
      ],
      "name": "LogSupply",
      "type": "event"
    },
    {
      "anonymous": false,
      "inputs": [
        {
          "indexed": true,
          "internalType": "address",
          "name": "previousOwner",
          "type": "address"
        },
        {
          "indexed": true,
          "internalType": "address",
          "name": "newOwner",
          "type": "address"
        }
      ],
      "name": "OwnershipTransferred",
      "type": "event"
    },
    {
      "anonymous": false,
      "inputs": [
        {
          "indexed": true,
          "internalType": "address",
          "name": "from",
          "type": "address"
        },
        {
          "indexed": true,
          "internalType": "address",
          "name": "to",
          "type": "address"
        },
        {
          "indexed": false,
          "internalType": "uint256",
          "name": "value",
          "type": "uint256"
        }
      ],
      "name": "Transfer",
      "type": "event"
    },
    {
      "inputs": [],
      "name": "DOMAIN_SEPARATOR",
      "outputs": [
        {
          "internalType": "bytes32",
          "name": "",
          "type": "bytes32"
        }
      ],
      "stateMutability": "view",
      "type": "function"
    },
    {
      "inputs": [],
      "name": "INDEX",
      "outputs": [
        {
          "internalType": "uint256",
          "name": "",
          "type": "uint256"
        }
      ],
      "stateMutability": "view",
      "type": "function"
    },
    {
      "inputs": [],
      "name": "PERMIT_TYPEHASH",
      "outputs": [
        {
          "internalType": "bytes32",
          "name": "",
          "type": "bytes32"
        }
      ],
      "stateMutability": "view",
      "type": "function"
    },
    {
      "inputs": [
        {
          "internalType": "address",
          "name": "owner_",
          "type": "address"
        },
        {
          "internalType": "address",
          "name": "spender",
          "type": "address"
        }
      ],
      "name": "allowance",
      "outputs": [
        {
          "internalType": "uint256",
          "name": "",
          "type": "uint256"
        }
      ],
      "stateMutability": "view",
      "type": "function"
    },
    {
      "inputs": [
        {
          "internalType": "address",
          "name": "spender",
          "type": "address"
        },
        {
          "internalType": "uint256",
          "name": "value",
          "type": "uint256"
        }
      ],
      "name": "approve",
      "outputs": [
        {
          "internalType": "bool",
          "name": "",
          "type": "bool"
        }
      ],
      "stateMutability": "nonpayable",
      "type": "function"
    },
    {
      "inputs": [
        {
          "internalType": "uint256",
          "name": "gons",
          "type": "uint256"
        }
      ],
      "name": "balanceForGons",
      "outputs": [
        {
          "internalType": "uint256",
          "name": "",
          "type": "uint256"
        }
      ],
      "stateMutability": "view",
      "type": "function"
    },
    {
      "inputs": [
        {
          "internalType": "address",
          "name": "who",
          "type": "address"
        }
      ],
      "name": "balanceOf",
      "outputs": [
        {
          "internalType": "uint256",
          "name": "",
          "type": "uint256"
        }
      ],
      "stateMutability": "view",
      "type": "function"
    },
    {
      "inputs": [],
      "name": "circulatingSupply",
      "outputs": [
        {
          "internalType": "uint256",
          "name": "",
          "type": "uint256"
        }
      ],
      "stateMutability": "view",
      "type": "function"
    },
    {
      "inputs": [],
      "name": "claimOwnership",
      "outputs": [],
      "stateMutability": "nonpayable",
      "type": "function"
    },
    {
      "inputs": [],
      "name": "decimals",
      "outputs": [
        {
          "internalType": "uint8",
          "name": "",
          "type": "uint8"
        }
      ],
      "stateMutability": "view",
      "type": "function"
    },
    {
      "inputs": [
        {
          "internalType": "address",
          "name": "spender",
          "type": "address"
        },
        {
          "internalType": "uint256",
          "name": "subtractedValue",
          "type": "uint256"
        }
      ],
      "name": "decreaseAllowance",
      "outputs": [
        {
          "internalType": "bool",
          "name": "",
          "type": "bool"
        }
      ],
      "stateMutability": "nonpayable",
      "type": "function"
    },
    {
      "inputs": [
        {
          "internalType": "uint256",
          "name": "amount",
          "type": "uint256"
        }
      ],
      "name": "gonsForBalance",
      "outputs": [
        {
          "internalType": "uint256",
          "name": "",
          "type": "uint256"
        }
      ],
      "stateMutability": "view",
      "type": "function"
    },
    {
      "inputs": [
        {
          "internalType": "address",
          "name": "spender",
          "type": "address"
        },
        {
          "internalType": "uint256",
          "name": "addedValue",
          "type": "uint256"
        }
      ],
      "name": "increaseAllowance",
      "outputs": [
        {
          "internalType": "bool",
          "name": "",
          "type": "bool"
        }
      ],
      "stateMutability": "nonpayable",
      "type": "function"
    },
    {
      "inputs": [],
      "name": "index",
      "outputs": [
        {
          "internalType": "uint256",
          "name": "",
          "type": "uint256"
        }
      ],
      "stateMutability": "view",
      "type": "function"
    },
    {
      "inputs": [
        {
          "internalType": "address",
          "name": "stakingContract_",
          "type": "address"
        }
      ],
      "name": "initialize",
      "outputs": [
        {
          "internalType": "bool",
          "name": "",
          "type": "bool"
        }
      ],
      "stateMutability": "nonpayable",
      "type": "function"
    },
    {
      "inputs": [],
      "name": "initializer",
      "outputs": [
        {
          "internalType": "address",
          "name": "",
          "type": "address"
        }
      ],
      "stateMutability": "view",
      "type": "function"
    },
    {
      "inputs": [],
      "name": "name",
      "outputs": [
        {
          "internalType": "string",
          "name": "",
          "type": "string"
        }
      ],
      "stateMutability": "view",
      "type": "function"
    },
    {
      "inputs": [
        {
          "internalType": "address",
          "name": "owner",
          "type": "address"
        }
      ],
      "name": "nonces",
      "outputs": [
        {
          "internalType": "uint256",
          "name": "",
          "type": "uint256"
        }
      ],
      "stateMutability": "view",
      "type": "function"
    },
    {
      "inputs": [],
      "name": "owner",
      "outputs": [
        {
          "internalType": "address",
          "name": "",
          "type": "address"
        }
      ],
      "stateMutability": "view",
      "type": "function"
    },
    {
      "inputs": [],
      "name": "pendingOwner",
      "outputs": [
        {
          "internalType": "address",
          "name": "",
          "type": "address"
        }
      ],
      "stateMutability": "view",
      "type": "function"
    },
    {
      "inputs": [
        {
          "internalType": "address",
          "name": "owner",
          "type": "address"
        },
        {
          "internalType": "address",
          "name": "spender",
          "type": "address"
        },
        {
          "internalType": "uint256",
          "name": "amount",
          "type": "uint256"
        },
        {
          "internalType": "uint256",
          "name": "deadline",
          "type": "uint256"
        },
        {
          "internalType": "uint8",
          "name": "v",
          "type": "uint8"
        },
        {
          "internalType": "bytes32",
          "name": "r",
          "type": "bytes32"
        },
        {
          "internalType": "bytes32",
          "name": "s",
          "type": "bytes32"
        }
      ],
      "name": "permit",
      "outputs": [],
      "stateMutability": "nonpayable",
      "type": "function"
    },
    {
      "inputs": [
        {
          "internalType": "uint256",
          "name": "profit_",
          "type": "uint256"
        },
        {
          "internalType": "uint256",
          "name": "epoch_",
          "type": "uint256"
        }
      ],
      "name": "rebase",
      "outputs": [
        {
          "internalType": "uint256",
          "name": "",
          "type": "uint256"
        }
      ],
      "stateMutability": "nonpayable",
      "type": "function"
    },
    {
      "inputs": [
        {
          "internalType": "uint256",
          "name": "",
          "type": "uint256"
        }
      ],
      "name": "rebases",
      "outputs": [
        {
          "internalType": "uint256",
          "name": "epoch",
          "type": "uint256"
        },
        {
          "internalType": "uint256",
          "name": "rebase",
          "type": "uint256"
        },
        {
          "internalType": "uint256",
          "name": "totalStakedBefore",
          "type": "uint256"
        },
        {
          "internalType": "uint256",
          "name": "totalStakedAfter",
          "type": "uint256"
        },
        {
          "internalType": "uint256",
          "name": "amountRebased",
          "type": "uint256"
        },
        {
          "internalType": "uint256",
          "name": "index",
          "type": "uint256"
        },
        {
          "internalType": "uint32",
          "name": "timeOccured",
          "type": "uint32"
        }
      ],
      "stateMutability": "view",
      "type": "function"
    },
    {
      "inputs": [
        {
          "internalType": "uint256",
          "name": "_INDEX",
          "type": "uint256"
        }
      ],
      "name": "setIndex",
      "outputs": [],
      "stateMutability": "nonpayable",
      "type": "function"
    },
    {
      "inputs": [],
      "name": "stakingContract",
      "outputs": [
        {
          "internalType": "address",
          "name": "",
          "type": "address"
        }
      ],
      "stateMutability": "view",
      "type": "function"
    },
    {
      "inputs": [],
      "name": "symbol",
      "outputs": [
        {
          "internalType": "string",
          "name": "",
          "type": "string"
        }
      ],
      "stateMutability": "view",
      "type": "function"
    },
    {
      "inputs": [],
      "name": "totalSupply",
      "outputs": [
        {
          "internalType": "uint256",
          "name": "",
          "type": "uint256"
        }
      ],
      "stateMutability": "view",
      "type": "function"
    },
    {
      "inputs": [
        {
          "internalType": "address",
          "name": "to",
          "type": "address"
        },
        {
          "internalType": "uint256",
          "name": "value",
          "type": "uint256"
        }
      ],
      "name": "transfer",
      "outputs": [
        {
          "internalType": "bool",
          "name": "",
          "type": "bool"
        }
      ],
      "stateMutability": "nonpayable",
      "type": "function"
    },
    {
      "inputs": [
        {
          "internalType": "address",
          "name": "from",
          "type": "address"
        },
        {
          "internalType": "address",
          "name": "to",
          "type": "address"
        },
        {
          "internalType": "uint256",
          "name": "value",
          "type": "uint256"
        }
      ],
      "name": "transferFrom",
      "outputs": [
        {
          "internalType": "bool",
          "name": "",
          "type": "bool"
        }
      ],
      "stateMutability": "nonpayable",
      "type": "function"
    },
    {
      "inputs": [
        {
          "internalType": "address",
          "name": "newOwner",
          "type": "address"
        },
        {
          "internalType": "bool",
          "name": "direct",
          "type": "bool"
        },
        {
          "internalType": "bool",
          "name": "renounce",
          "type": "bool"
        }
      ],
      "name": "transferOwnership",
      "outputs": [],
      "stateMutability": "nonpayable",
      "type": "function"
    }
  ],
  "bytecode": "0x60a06040523480156200001157600080fd5b506040805180820182526004808252631cd4d11160e21b60208084018281528551808701909652928552840152815191929160099162000055916003919062000287565b5081516200006b90600490602085019062000287565b506005805460ff191660ff92909216919091179055504690507f8b73c3c69bb8fe3d512ecc4cf759cc79239f7b179b0ffacaa9a75d522b39400f620000af620001cb565b805160209182012060408051808201825260018152603160f81b90840152805192830193909352918101919091527fc89efdaa54c0f20c7adf612882df0950f5a951637e0307cdcb4c672f298b8bc66060820152608081018290523060a082015260c00160408051601f19818403018152908290528051602090910120608052600780546001600160a01b0319163390811790915591506000907f8be0079c531659141344cd1fd0a4f28419497f9722a3daafe3b4186f6b6457e0908290a3600a80546001600160a01b031916331790556611c37937e080006002819055620001c290620001a08160001962000343565b620001ae906000196200035a565b6200026560201b620011d41790919060201c565b600d55620003d4565b606060038054620001dc9062000380565b80601f01602080910402602001604051908101604052809291908181526020018280546200020a9062000380565b80156200025b5780601f106200022f576101008083540402835291602001916200025b565b820191906000526020600020905b8154815290600101906020018083116200023d57829003601f168201915b5050505050905090565b60008082116200027457600080fd5b620002808284620003bd565b9392505050565b828054620002959062000380565b90600052602060002090601f016020900481019282620002b9576000855562000304565b82601f10620002d457805160ff191683800117855562000304565b8280016001018555821562000304579182015b8281111562000304578251825591602001919060010190620002e7565b506200031292915062000316565b5090565b5b8082111562000312576000815560010162000317565b634e487b7160e01b600052601260045260246000fd5b6000826200035557620003556200032d565b500690565b6000828210156200037b57634e487b7160e01b600052601160045260246000fd5b500390565b600181811c908216806200039557607f821691505b60208210811415620003b757634e487b7160e01b600052602260045260246000fd5b50919050565b600082620003cf57620003cf6200032d565b500490565b60805161177a620003f7600039600081816102d20152611075015261177a6000f3fe608060405234801561001057600080fd5b50600436106101da5760003560e01c806370a08231116101045780639ce110d7116100a2578063d505accf11610071578063d505accf14610430578063dd62ed3e14610443578063e30c39781461047c578063ee99205c1461048f57600080fd5b80639ce110d7146103e4578063a457c2d7146103f7578063a9059cbb1461040a578063c4d66de81461041d57600080fd5b80637ecebe00116100de5780637ecebe00146103965780638da5cb5b146103a95780639358928b146103d457806395d89b41146103dc57600080fd5b806370a082311461032257806373c69eb7146103355780637965d56d1461038357600080fd5b80632986c0e51161017c5780633644e5151161014b5780633644e515146102cd57806339509351146102f457806340a5737f146103075780634e71e0c81461031a57600080fd5b80632986c0e5146102805780632df75cb11461028857806330adf81f14610291578063313ce567146102b857600080fd5b8063095ea7b3116101b8578063095ea7b31461022f57806318160ddd146102525780631bd396741461025a57806323b872dd1461026d57600080fd5b8063058ecdb4146101df57806306fdde0314610205578063078dfbe71461021a575b600080fd5b6101f26101ed366004611421565b6104a2565b6040519081526020015b60405180910390f35b61020d610630565b6040516101fc9190611443565b61022d6102283660046114c4565b6106c2565b005b61024261023d366004611507565b610802565b60405190151581526020016101fc565b6002546101f2565b6101f2610268366004611531565b61085c565b61024261027b36600461154a565b610873565b6101f26109b0565b6101f2600c5481565b6101f27f6e71edae12b1b97f4d1f60370fef10105fa2faae0126114a169c64845d6126c981565b60055460405160ff90911681526020016101fc565b6101f27f000000000000000000000000000000000000000000000000000000000000000081565b610242610302366004611507565b6109c2565b61022d610315366004611531565b610a35565b61022d610aff565b6101f2610330366004611586565b610bbd565b610348610343366004611531565b610be5565b604080519788526020880196909652948601939093526060850191909152608084015260a083015263ffffffff1660c082015260e0016101fc565b6101f2610391366004611531565b610c3a565b6101f26103a4366004611586565b610c51565b6007546103bc906001600160a01b031681565b6040516001600160a01b0390911681526020016101fc565b6101f2610c6f565b61020d610c94565b600a546103bc906001600160a01b031681565b610242610405366004611507565b610ca3565b610242610418366004611507565b610d79565b61024261042b366004611586565b610e2b565b61022d61043e3660046115a1565b610f97565b6101f2610451366004611614565b6001600160a01b039182166000908152600f6020908152604080832093909416825291909152205490565b6008546103bc906001600160a01b031681565b6009546103bc906001600160a01b031681565b6009546000906001600160a01b031633146104ea5760405162461bcd60e51b81526020600482015260036024820152624f534360e81b60448201526064015b60405180910390fd5b6000806104f5610c6f565b90508461059157837f917acfbe39be6509ccf7fecb66a7e42ce2be1083c2d7dd3b9b7491dabddb8da442600254604051610539929190918252602082015260400190565b60405180910390a2837f6012dbce857565c4a40974aa5de8373a761fc429077ef0c8c8611d1e20d63fb2600061056d6109b0565b6040805192835260208301919091520160405180910390a26002549250505061062a565b80156105bd576105b6816105b0600254886111f390919063ffffffff16565b906111d4565b91506105c1565b8491505b6002546105ce9083611220565b60028190556001600160801b0310156105ed576001600160801b036002555b600254610613906106076611c37937e0800060001961165d565b6105b090600019611687565b600d5561062181868661123b565b50600254925050505b92915050565b60606003805461063f9061169e565b80601f016020809104026020016040519081016040528092919081815260200182805461066b9061169e565b80156106b85780601f1061068d576101008083540402835291602001916106b8565b820191906000526020600020905b81548152906001019060200180831161069b57829003601f168201915b5050505050905090565b6007546001600160a01b0316331461071c5760405162461bcd60e51b815260206004820181905260248201527f4f776e61626c653a2063616c6c6572206973206e6f7420746865206f776e657260448201526064016104e1565b81156107e0576001600160a01b0383161515806107365750805b61077a5760405162461bcd60e51b81526020600482015260156024820152744f776e61626c653a207a65726f206164647265737360581b60448201526064016104e1565b6007546040516001600160a01b038086169216907f8be0079c531659141344cd1fd0a4f28419497f9722a3daafe3b4186f6b6457e090600090a3600780546001600160a01b0385166001600160a01b031991821617909155600880549091169055505050565b600880546001600160a01b0385166001600160a01b0319909116179055505050565b336000818152600f602090815260408083206001600160a01b038716808552925280832085905551919290916000805160206117258339815191529061084b9086815260200190565b60405180910390a350600192915050565b600061062a600d54836111f390919063ffffffff16565b6001600160a01b0383166000908152600f602090815260408083203384529091528120546108a1908361139a565b6001600160a01b0385166000818152600f602090815260408083203380855290835292819020859055519384529092600080516020611725833981519152910160405180910390a360006108f48361085c565b6001600160a01b0386166000908152600e602052604090205490915061091a908261139a565b6001600160a01b038087166000908152600e602052604080822093909355908616815220546109499082611220565b6001600160a01b038086166000818152600e602052604090819020939093559151908716907fddf252ad1be2c89b69c2b068fc378daa952ba7f163c4a11628f55a4df523b3ef9061099d9087815260200190565b60405180910390a3506001949350505050565b60006109bd600c54610c3a565b905090565b336000908152600f602090815260408083206001600160a01b03861684529091528120546109f09083611220565b336000818152600f602090815260408083206001600160a01b03891680855290835292819020859055519384529092600080516020611725833981519152910161084b565b6007546001600160a01b03163314610a8f5760405162461bcd60e51b815260206004820181905260248201527f4f776e61626c653a2063616c6c6572206973206e6f7420746865206f776e657260448201526064016104e1565b600c5415610ac55760405162461bcd60e51b815260206004820152600360248201526224a72d60e91b60448201526064016104e1565b610ace8161085c565b600c8190556040517f4dd23f23e8fad98bd3817ee69155b701f911c04ba790df40c43aaed54ada487490600090a250565b6008546001600160a01b0316338114610b5a5760405162461bcd60e51b815260206004820181905260248201527f4f776e61626c653a2063616c6c657220213d2070656e64696e67206f776e657260448201526064016104e1565b6007546040516001600160a01b038084169216907f8be0079c531659141344cd1fd0a4f28419497f9722a3daafe3b4186f6b6457e090600090a3600780546001600160a01b039092166001600160a01b0319928316179055600880549091169055565b600d546001600160a01b0382166000908152600e6020526040812054909161062a91906111d4565b600b8181548110610bf557600080fd5b60009182526020909120600790910201805460018201546002830154600384015460048501546005860154600690960154949650929491939092919063ffffffff1687565b600061062a600d54836111d490919063ffffffff16565b6001600160a01b03811660009081526006602052604081205461062a565b6009546000906109bd90610c8b906001600160a01b0316610bbd565b6002549061139a565b60606004805461063f9061169e565b336000908152600f602090815260408083206001600160a01b0386168452909152812054808310610cf757336000908152600f602090815260408083206001600160a01b0388168452909152812055610d26565b610d01818461139a565b336000908152600f602090815260408083206001600160a01b03891684529091529020555b336000818152600f602090815260408083206001600160a01b0389168085529083529281902054905190815291929160008051602061172583398151915291015b60405180910390a35060019392505050565b600080610d91600d54846111f390919063ffffffff16565b336000908152600e6020526040902054909150610dae908261139a565b336000908152600e6020526040808220929092556001600160a01b03861681522054610dda9082611220565b6001600160a01b0385166000818152600e60205260409081902092909255905133907fddf252ad1be2c89b69c2b068fc378daa952ba7f163c4a11628f55a4df523b3ef90610d679087815260200190565b600a546000906001600160a01b03163314610e6d5760405162461bcd60e51b81526020600482015260026024820152614e4160f01b60448201526064016104e1565b6001600160a01b038216610ea85760405162461bcd60e51b8152602060048201526002602482015261494160f01b60448201526064016104e1565b600980546001600160a01b0319166001600160a01b038416179055610ed66611c37937e0800060001961165d565b610ee290600019611687565b600980546001600160a01b039081166000908152600e602052604080822094909455915460025493519116927fddf252ad1be2c89b69c2b068fc378daa952ba7f163c4a11628f55a4df523b3ef91610f3c91815260200190565b60405180910390a36040516001600160a01b03831681527f817c653428858ed536dc085c5d8273734c517b55de44b55f5c5877a75e3373a19060200160405180910390a15050600a80546001600160a01b0319169055600190565b83421115610fe75760405162461bcd60e51b815260206004820152601860248201527f5065726d69743a206578706972656420646561646c696e65000000000000000060448201526064016104e1565b6001600160a01b0387811660008181526006602090815260408083205481517f6e71edae12b1b97f4d1f60370fef10105fa2faae0126114a169c64845d6126c98185015280830195909552948b166060850152608084018a905260a084019490945260c08084018990528451808503909101815260e08401855280519082012061190160f01b6101008501527f000000000000000000000000000000000000000000000000000000000000000061010285015261012280850182905285518086039091018152610142850180875281519184019190912090849052610162850180875281905260ff89166101828601526101a285018890526101c2850187905294519094936001926101e2808301939192601f198301929081900390910190855afa15801561111a573d6000803e3d6000fd5b5050604051601f1901519150506001600160a01b038116158015906111505750896001600160a01b0316816001600160a01b0316145b61119c5760405162461bcd60e51b815260206004820152601e60248201527f45524332305065726d69743a20496e76616c6964207369676e6174757265000060448201526064016104e1565b6001600160a01b038a1660009081526006602052604090206111bd906113b5565b6111c88a8a8a6113d2565b50505050505050505050565b60008082116111e257600080fd5b6111ec82846116d9565b9392505050565b60008215806112175750818361120982826116ed565b925061121590836116d9565b145b61062a57600080fd5b60008261122d838261170c565b915081101561062a57600080fd5b600080611254856105b086670de0b6b3a76400006111f3565b9050600b6040518060e0016040528085815260200183815260200187815260200161127d610c6f565b81526020018681526020016112906109b0565b81524263ffffffff81811660209384015284546001808201875560009687529584902085516007909202019081558484015195810195909555604080850151600280880191909155606086015160038801556080860151600488015560a0860151600588015560c0909501516006909601805463ffffffff191696909216959095179055915483519283529082015284917f917acfbe39be6509ccf7fecb66a7e42ce2be1083c2d7dd3b9b7491dabddb8da4910160405180910390a2827f6012dbce857565c4a40974aa5de8373a761fc429077ef0c8c8611d1e20d63fb2826113776109b0565b6040805192835260208301919091520160405180910390a2506001949350505050565b6000826113a78382611687565b915081111561062a57600080fd5b60018160000160008282546113ca919061170c565b909155505050565b6001600160a01b038381166000818152600f60209081526040808320948716808452948252918290208590559051848152600080516020611725833981519152910160405180910390a3505050565b6000806040838503121561143457600080fd5b50508035926020909101359150565b600060208083528351808285015260005b8181101561147057858101830151858201604001528201611454565b81811115611482576000604083870101525b50601f01601f1916929092016040019392505050565b80356001600160a01b03811681146114af57600080fd5b919050565b803580151581146114af57600080fd5b6000806000606084860312156114d957600080fd5b6114e284611498565b92506114f0602085016114b4565b91506114fe604085016114b4565b90509250925092565b6000806040838503121561151a57600080fd5b61152383611498565b946020939093013593505050565b60006020828403121561154357600080fd5b5035919050565b60008060006060848603121561155f57600080fd5b61156884611498565b925061157660208501611498565b9150604084013590509250925092565b60006020828403121561159857600080fd5b6111ec82611498565b600080600080600080600060e0888a0312156115bc57600080fd5b6115c588611498565b96506115d360208901611498565b95506040880135945060608801359350608088013560ff811681146115f757600080fd5b9699959850939692959460a0840135945060c09093013592915050565b6000806040838503121561162757600080fd5b61163083611498565b915061163e60208401611498565b90509250929050565b634e487b7160e01b600052601260045260246000fd5b60008261166c5761166c611647565b500690565b634e487b7160e01b600052601160045260246000fd5b60008282101561169957611699611671565b500390565b600181811c908216806116b257607f821691505b602082108114156116d357634e487b7160e01b600052602260045260246000fd5b50919050565b6000826116e8576116e8611647565b500490565b600081600019048311821515161561170757611707611671565b500290565b6000821982111561171f5761171f611671565b50019056fe8c5be1e5ebec7d5bd14f71427d1e84f3dd0314c0f7b2291e5b200ac8c7c3b925a26469706673582212201976fffad4e9f5f9d4d18177c87d4f58154f4ead51230c0345b1cbd9ea3fa70964736f6c634300080c0033",
  "linkReferences": {},
  "deployedLinkReferences": {}
}