{
  "_format": "hh-sol-artifact-1",
  "contractName": "Distributor",
  "sourceName": "contracts/Distributor.sol",
  "abi": [
    {
      "inputs": [
        {
          "internalType": "address",
          "name": "_treasury",
          "type": "address"
        },
        {
          "internalType": "address",
          "name": "_time",
          "type": "address"
        },
        {
          "internalType": "uint32",
          "name": "_epochLength",
          "type": "uint32"
        },
        {
          "internalType": "uint32",
          "name": "_nextEpochTime",
          "type": "uint32"
        }
      ],
      "stateMutability": "nonpayable",
      "type": "constructor"
    },
    {
      "anonymous": false,
      "inputs": [
        {
          "indexed": true,
          "internalType": "address",
          "name": "recipient",
          "type": "address"
        },
        {
          "indexed": false,
          "internalType": "uint256",
          "name": "rate",
          "type": "uint256"
        }
      ],
      "name": "LogAddRecipient",
      "type": "event"
    },
    {
      "anonymous": false,
      "inputs": [
        {
          "indexed": false,
          "internalType": "uint256",
          "name": "initialRate",
          "type": "uint256"
        },
        {
          "indexed": false,
          "internalType": "uint256",
          "name": "currentRate",
          "type": "uint256"
        },
        {
          "indexed": false,
          "internalType": "uint256",
          "name": "targetRate",
          "type": "uint256"
        }
      ],
      "name": "LogAdjust",
      "type": "event"
    },
    {
      "anonymous": false,
      "inputs": [
        {
          "indexed": true,
          "internalType": "address",
          "name": "recipient",
          "type": "address"
        },
        {
          "indexed": false,
          "internalType": "uint256",
          "name": "amount",
          "type": "uint256"
        }
      ],
      "name": "LogDistribute",
      "type": "event"
    },
    {
      "anonymous": false,
      "inputs": [
        {
          "indexed": true,
          "internalType": "address",
          "name": "recipient",
          "type": "address"
        }
      ],
      "name": "LogRemoveRecipient",
      "type": "event"
    },
    {
      "anonymous": false,
      "inputs": [
        {
          "indexed": true,
          "internalType": "address",
          "name": "previousOwner",
          "type": "address"
        },
        {
          "indexed": true,
          "internalType": "address",
          "name": "newOwner",
          "type": "address"
        }
      ],
      "name": "OwnershipTransferred",
      "type": "event"
    },
    {
      "inputs": [],
      "name": "TIME",
      "outputs": [
        {
          "internalType": "contract IERC20",
          "name": "",
          "type": "address"
        }
      ],
      "stateMutability": "view",
      "type": "function"
    },
    {
      "inputs": [
        {
          "internalType": "address",
          "name": "_recipient",
          "type": "address"
        },
        {
          "internalType": "uint256",
          "name": "_rewardRate",
          "type": "uint256"
        }
      ],
      "name": "addRecipient",
      "outputs": [],
      "stateMutability": "nonpayable",
      "type": "function"
    },
    {
      "inputs": [
        {
          "internalType": "uint256",
          "name": "",
          "type": "uint256"
        }
      ],
      "name": "adjustments",
      "outputs": [
        {
          "internalType": "bool",
          "name": "add",
          "type": "bool"
        },
        {
          "internalType": "uint256",
          "name": "rate",
          "type": "uint256"
        },
        {
          "internalType": "uint256",
          "name": "target",
          "type": "uint256"
        }
      ],
      "stateMutability": "view",
      "type": "function"
    },
    {
      "inputs": [],
      "name": "claimOwnership",
      "outputs": [],
      "stateMutability": "nonpayable",
      "type": "function"
    },
    {
      "inputs": [],
      "name": "distribute",
      "outputs": [
        {
          "internalType": "bool",
          "name": "",
          "type": "bool"
        }
      ],
      "stateMutability": "nonpayable",
      "type": "function"
    },
    {
      "inputs": [],
      "name": "epochLength",
      "outputs": [
        {
          "internalType": "uint32",
          "name": "",
          "type": "uint32"
        }
      ],
      "stateMutability": "view",
      "type": "function"
    },
    {
      "inputs": [
        {
          "internalType": "uint256",
          "name": "",
          "type": "uint256"
        }
      ],
      "name": "info",
      "outputs": [
        {
          "internalType": "uint256",
          "name": "rate",
          "type": "uint256"
        },
        {
          "internalType": "address",
          "name": "recipient",
          "type": "address"
        }
      ],
      "stateMutability": "view",
      "type": "function"
    },
    {
      "inputs": [],
      "name": "nextEpochTime",
      "outputs": [
        {
          "internalType": "uint32",
          "name": "",
          "type": "uint32"
        }
      ],
      "stateMutability": "view",
      "type": "function"
    },
    {
      "inputs": [
        {
          "internalType": "uint256",
          "name": "_rate",
          "type": "uint256"
        }
      ],
      "name": "nextRewardAt",
      "outputs": [
        {
          "internalType": "uint256",
          "name": "",
          "type": "uint256"
        }
      ],
      "stateMutability": "view",
      "type": "function"
    },
    {
      "inputs": [
        {
          "internalType": "address",
          "name": "_recipient",
          "type": "address"
        }
      ],
      "name": "nextRewardFor",
      "outputs": [
        {
          "internalType": "uint256",
          "name": "",
          "type": "uint256"
        }
      ],
      "stateMutability": "view",
      "type": "function"
    },
    {
      "inputs": [],
      "name": "owner",
      "outputs": [
        {
          "internalType": "address",
          "name": "",
          "type": "address"
        }
      ],
      "stateMutability": "view",
      "type": "function"
    },
    {
      "inputs": [],
      "name": "pendingOwner",
      "outputs": [
        {
          "internalType": "address",
          "name": "",
          "type": "address"
        }
      ],
      "stateMutability": "view",
      "type": "function"
    },
    {
      "inputs": [
        {
          "internalType": "uint256",
          "name": "_index",
          "type": "uint256"
        },
        {
          "internalType": "address",
          "name": "_recipient",
          "type": "address"
        }
      ],
      "name": "removeRecipient",
      "outputs": [],
      "stateMutability": "nonpayable",
      "type": "function"
    },
    {
      "inputs": [
        {
          "internalType": "uint256",
          "name": "_index",
          "type": "uint256"
        },
        {
          "internalType": "bool",
          "name": "_add",
          "type": "bool"
        },
        {
          "internalType": "uint256",
          "name": "_rate",
          "type": "uint256"
        },
        {
          "internalType": "uint256",
          "name": "_target",
          "type": "uint256"
        }
      ],
      "name": "setAdjustment",
      "outputs": [],
      "stateMutability": "nonpayable",
      "type": "function"
    },
    {
      "inputs": [
        {
          "internalType": "address",
          "name": "newOwner",
          "type": "address"
        },
        {
          "internalType": "bool",
          "name": "direct",
          "type": "bool"
        },
        {
          "internalType": "bool",
          "name": "renounce",
          "type": "bool"
        }
      ],
      "name": "transferOwnership",
      "outputs": [],
      "stateMutability": "nonpayable",
      "type": "function"
    },
    {
      "inputs": [],
      "name": "treasury",
      "outputs": [
        {
          "internalType": "contract ITreasury",
          "name": "",
          "type": "address"
        }
      ],
      "stateMutability": "view",
      "type": "function"
    }
  ],
  "bytecode": "0x60e06040523480156200001157600080fd5b50604051620013ab380380620013ab833981016040819052620000349162000113565b600080546001600160a01b0319163390811782556040519091907f8be0079c531659141344cd1fd0a4f28419497f9722a3daafe3b4186f6b6457e0908290a36001600160a01b0384166200008757600080fd5b6001600160a01b0380851660a0528316620000a157600080fd5b6001600160a01b0390921660805263ffffffff90811660c0526001805492909116600160a01b0263ffffffff60a01b199092169190911790555062000170565b80516001600160a01b0381168114620000f957600080fd5b919050565b805163ffffffff81168114620000f957600080fd5b600080600080608085870312156200012a57600080fd5b6200013585620000e1565b93506200014560208601620000e1565b92506200015560408601620000fe565b91506200016560608601620000fe565b905092959194509250565b60805160a05160c0516111f6620001b5600039600081816101a9015261073f0152600081816101e301526107c1015260008181610286015261067801526111f66000f3fe608060405234801561001057600080fd5b50600436106101005760003560e01c80638da5cb5b11610097578063e30c397811610066578063e30c3978146102bb578063e4fc6b6d146102ce578063f7982243146102e6578063fe3fbbad146102f957600080fd5b80638da5cb5b1461021d578063bc3b2b1214610230578063beae663714610281578063c9fa8b2a146102a857600080fd5b80634e71e0c8116100d35780634e71e0c81461019c57806357d775f8146101a45780635db854b0146101cb57806361d027b3146101de57600080fd5b8063078dfbe7146101055780631da56eb31461011a5780632e3405991461014b57806336d33f441461017b575b600080fd5b610118610113366004610f75565b61030c565b005b60015461013190600160a01b900463ffffffff1681565b60405163ffffffff90911681526020015b60405180910390f35b61015e610159366004610fb8565b610424565b604080519283526001600160a01b03909116602083015201610142565b61018e610189366004610fd1565b61045b565b604051908152602001610142565b6101186104f4565b6101317f000000000000000000000000000000000000000000000000000000000000000081565b6101186101d9366004610fec565b6105b1565b6102057f000000000000000000000000000000000000000000000000000000000000000081565b6040516001600160a01b039091168152602001610142565b600054610205906001600160a01b031681565b61026461023e366004610fb8565b600260208190526000918252604090912080546001820154919092015460ff9092169183565b604080519315158452602084019290925290820152606001610142565b6102057f000000000000000000000000000000000000000000000000000000000000000081565b61018e6102b6366004610fb8565b610669565b600154610205906001600160a01b031681565b6102d661070a565b6040519015158152602001610142565b6101186102f4366004611027565b61094c565b610118610307366004611051565b610b18565b6000546001600160a01b0316331461033f5760405162461bcd60e51b81526004016103369061107d565b60405180910390fd5b8115610402576001600160a01b0383161515806103595750805b61039d5760405162461bcd60e51b81526020600482015260156024820152744f776e61626c653a207a65726f206164647265737360581b6044820152606401610336565b600080546040516001600160a01b03808716939216917f8be0079c531659141344cd1fd0a4f28419497f9722a3daafe3b4186f6b6457e091a3600080546001600160a01b0385166001600160a01b031991821617909155600180549091169055505050565b600180546001600160a01b0385166001600160a01b0319909116179055505050565b6003818154811061043457600080fd5b6000918252602090912060029091020180546001909101549091506001600160a01b031682565b60008060005b6003548110156104ed57836001600160a01b031660038281548110610488576104886110b2565b60009182526020909120600160029092020101546001600160a01b031614156104db576104d8600382815481106104c1576104c16110b2565b906000526020600020906002020160000154610669565b91505b806104e5816110de565b915050610461565b5092915050565b6001546001600160a01b031633811461054f5760405162461bcd60e51b815260206004820181905260248201527f4f776e61626c653a2063616c6c657220213d2070656e64696e67206f776e65726044820152606401610336565b600080546040516001600160a01b03808516939216917f8be0079c531659141344cd1fd0a4f28419497f9722a3daafe3b4186f6b6457e091a3600080546001600160a01b039092166001600160a01b0319928316179055600180549091169055565b6000546001600160a01b031633146105db5760405162461bcd60e51b81526004016103369061107d565b6113888111156106245760405162461bcd60e51b8152602060048201526014602482015273546f6f206869676820726577617264207261746560601b6044820152606401610336565b6040805160608101825293151584526020808501938452848201928352600095865260029081905294209251835460ff19169015151783559051600183015551910155565b6000610704620f42406106fe847f00000000000000000000000000000000000000000000000000000000000000006001600160a01b03166318160ddd6040518163ffffffff1660e01b8152600401602060405180830381865afa1580156106d4573d6000803e3d6000fd5b505050506040513d601f19601f820116820180604052508101906106f891906110f9565b90610d25565b90610d52565b92915050565b60015460009063ffffffff428116600160a01b9092041611610946576001546107659063ffffffff600160a01b9091048116907f000000000000000000000000000000000000000000000000000000000000000090610d7116565b600160146101000a81548163ffffffff021916908363ffffffff16021790555060005b60035481101561093e576000600382815481106107a7576107a76110b2565b90600052602060002090600202016000015411156108a3577f00000000000000000000000000000000000000000000000000000000000000006001600160a01b0316636a20de9260038381548110610801576108016110b2565b906000526020600020906002020160010160009054906101000a90046001600160a01b031661083c600385815481106104c1576104c16110b2565b6040516001600160e01b031960e085901b1681526001600160a01b0390921660048301526024820152604401600060405180830381600087803b15801561088257600080fd5b505af1158015610896573d6000803e3d6000fd5b505050506108a381610d98565b600381815481106108b6576108b66110b2565b906000526020600020906002020160010160009054906101000a90046001600160a01b03166001600160a01b03167f3e0b9848638f4c10a50b16b57178ec78536ef4b900889912261f4aee92952bbc61091b600384815481106104c1576104c16110b2565b60405190815260200160405180910390a280610936816110de565b915050610788565b506001905090565b50600090565b6000546001600160a01b031633146109765760405162461bcd60e51b81526004016103369061107d565b6001600160a01b0382166109b15760405162461bcd60e51b8152602060048201526002602482015261494160f01b6044820152606401610336565b6113888111156109fa5760405162461bcd60e51b8152602060048201526014602482015273546f6f206869676820726577617264207261746560601b6044820152606401610336565b60035460041015610a4d5760405162461bcd60e51b815260206004820152601960248201527f6c696d697420726563697069656e7473206d617820746f2035000000000000006044820152606401610336565b6040805180820182528281526001600160a01b0384811660208084018281526003805460018101825560009190915294517fc2575a0e9e593c00f959f8c92f12db2869c3395a3b0502d05e2516446f71f85b600290960295860155517fc2575a0e9e593c00f959f8c92f12db2869c3395a3b0502d05e2516446f71f85c90940180546001600160a01b031916949093169390931790915591518381527f6f854dd3349576c51e096779d2c5801bd2e775255e7105e31e50d3e344bb79a2910160405180910390a25050565b6000546001600160a01b03163314610b425760405162461bcd60e51b81526004016103369061107d565b60038281548110610b5557610b556110b2565b60009182526020909120600160029092020101546001600160a01b03828116911614610ba85760405162461bcd60e51b81526020600482015260026024820152614e4160f01b6044820152606401610336565b60038054610bb890600190611112565b81548110610bc857610bc86110b2565b906000526020600020906002020160038381548110610be957610be96110b2565b6000918252602082208354600292830290910190815560019384015490840180546001600160a01b0319166001600160a01b039092169190911790556003549092610c3391611112565b8152602080820192909252604090810160009081208582526002938490529190208154815460ff191660ff909116151517815560018083015490820155908201549101556003805480610c8857610c88611129565b6000828152602081206002600019909301838102909101828155600190810180546001600160a01b0319169055935560035491929091610cc89190611112565b8152602081019190915260409081016000908120805460ff191681556001810182905560020181905590516001600160a01b038316917fbb40ef8f2358acbde6300823309c1ac58489e6cd2254f780831465e53fd9058e91a25050565b6000821580610d4957508183610d3b828261113f565b9250610d47908361115e565b145b61070457600080fd5b6000808211610d6057600080fd5b610d6a828461115e565b9392505050565b600063ffffffff8316610d848385611180565b91508163ffffffff16101561070457600080fd5b6000818152600260208181526040928390208351606081018552815460ff16151581526001820154928101839052920154928201929092529015610f0f57600060038381548110610deb57610deb6110b2565b60009182526020909120600290910201548251909150819015610e57576020830151610e18908290610f13565b905082604001518110610e525750604080830151600085815260026020819052928120805460ff1916815560018101829055909201919091555b610ea1565b6020830151610e67908290610f2e565b905082604001518111610ea15750604080830151600085815260026020819052928120805460ff1916815560018101829055909201919091555b8060038581548110610eb557610eb56110b2565b6000918252602091829020600290910201919091556040848101518151858152928301849052908201527f1e824587677004c22acf357df8511b12b61717bdce5cbcdd0b9d5d027160c9e49060600160405180910390a150505b5050565b600082610f2083826111a8565b915081101561070457600080fd5b600082610f3b8382611112565b915081111561070457600080fd5b80356001600160a01b0381168114610f6057600080fd5b919050565b80358015158114610f6057600080fd5b600080600060608486031215610f8a57600080fd5b610f9384610f49565b9250610fa160208501610f65565b9150610faf60408501610f65565b90509250925092565b600060208284031215610fca57600080fd5b5035919050565b600060208284031215610fe357600080fd5b610d6a82610f49565b6000806000806080858703121561100257600080fd5b8435935061101260208601610f65565b93969395505050506040820135916060013590565b6000806040838503121561103a57600080fd5b61104383610f49565b946020939093013593505050565b6000806040838503121561106457600080fd5b8235915061107460208401610f49565b90509250929050565b6020808252818101527f4f776e61626c653a2063616c6c6572206973206e6f7420746865206f776e6572604082015260600190565b634e487b7160e01b600052603260045260246000fd5b634e487b7160e01b600052601160045260246000fd5b60006000198214156110f2576110f26110c8565b5060010190565b60006020828403121561110b57600080fd5b5051919050565b600082821015611124576111246110c8565b500390565b634e487b7160e01b600052603160045260246000fd5b6000816000190483118215151615611159576111596110c8565b500290565b60008261117b57634e487b7160e01b600052601260045260246000fd5b500490565b600063ffffffff80831681851680830382111561119f5761119f6110c8565b01949350505050565b600082198211156111bb576111bb6110c8565b50019056fea2646970667358221220f1ff00429df5672930ca1cd9d10ad6278e3b328e377a597b7ff9c7e0dfd3f4f264736f6c634300080c0033",
  "linkReferences": {},
  "deployedLinkReferences": {}
}