{
  "_format": "hh-sol-artifact-1",
  "contractName": "TimeBondDepository",
  "sourceName": "contracts/BondDepository.sol",
  "abi": [
    {
      "inputs": [
        {
          "internalType": "address",
          "name": "_OHM",
          "type": "address"
        },
        {
          "internalType": "address",
          "name": "_principle",
          "type": "address"
        },
        {
          "internalType": "address",
          "name": "_treasury",
          "type": "address"
        },
        {
          "internalType": "address",
          "name": "_DAO",
          "type": "address"
        },
        {
          "internalType": "address",
          "name": "_bondCalculator",
          "type": "address"
        }
      ],
      "stateMutability": "nonpayable",
      "type": "constructor"
    },
    {
      "anonymous": false,
      "inputs": [
        {
          "indexed": false,
          "internalType": "uint256",
          "name": "deposit",
          "type": "uint256"
        },
        {
          "indexed": true,
          "internalType": "uint256",
          "name": "payout",
          "type": "uint256"
        },
        {
          "indexed": true,
          "internalType": "uint256",
          "name": "expires",
          "type": "uint256"
        },
        {
          "indexed": true,
          "internalType": "uint256",
          "name": "priceInUSD",
          "type": "uint256"
        }
      ],
      "name": "BondCreated",
      "type": "event"
    },
    {
      "anonymous": false,
      "inputs": [
        {
          "indexed": true,
          "internalType": "uint256",
          "name": "priceInUSD",
          "type": "uint256"
        },
        {
          "indexed": true,
          "internalType": "uint256",
          "name": "internalPrice",
          "type": "uint256"
        },
        {
          "indexed": true,
          "internalType": "uint256",
          "name": "debtRatio",
          "type": "uint256"
        }
      ],
      "name": "BondPriceChanged",
      "type": "event"
    },
    {
      "anonymous": false,
      "inputs": [
        {
          "indexed": true,
          "internalType": "address",
          "name": "recipient",
          "type": "address"
        },
        {
          "indexed": false,
          "internalType": "uint256",
          "name": "payout",
          "type": "uint256"
        },
        {
          "indexed": false,
          "internalType": "uint256",
          "name": "remaining",
          "type": "uint256"
        }
      ],
      "name": "BondRedeemed",
      "type": "event"
    },
    {
      "anonymous": false,
      "inputs": [
        {
          "indexed": false,
          "internalType": "uint256",
          "name": "initialBCV",
          "type": "uint256"
        },
        {
          "indexed": false,
          "internalType": "uint256",
          "name": "newBCV",
          "type": "uint256"
        },
        {
          "indexed": false,
          "internalType": "uint256",
          "name": "adjustment",
          "type": "uint256"
        },
        {
          "indexed": false,
          "internalType": "bool",
          "name": "addition",
          "type": "bool"
        }
      ],
      "name": "ControlVariableAdjustment",
      "type": "event"
    },
    {
      "anonymous": false,
      "inputs": [
        {
          "indexed": true,
          "internalType": "address",
          "name": "previousOwner",
          "type": "address"
        },
        {
          "indexed": true,
          "internalType": "address",
          "name": "newOwner",
          "type": "address"
        }
      ],
      "name": "OwnershipPulled",
      "type": "event"
    },
    {
      "anonymous": false,
      "inputs": [
        {
          "indexed": true,
          "internalType": "address",
          "name": "previousOwner",
          "type": "address"
        },
        {
          "indexed": true,
          "internalType": "address",
          "name": "newOwner",
          "type": "address"
        }
      ],
      "name": "OwnershipPushed",
      "type": "event"
    },
    {
      "inputs": [],
      "name": "DAO",
      "outputs": [
        {
          "internalType": "address",
          "name": "",
          "type": "address"
        }
      ],
      "stateMutability": "view",
      "type": "function"
    },
    {
      "inputs": [],
      "name": "OHM",
      "outputs": [
        {
          "internalType": "address",
          "name": "",
          "type": "address"
        }
      ],
      "stateMutability": "view",
      "type": "function"
    },
    {
      "inputs": [],
      "name": "adjustment",
      "outputs": [
        {
          "internalType": "bool",
          "name": "add",
          "type": "bool"
        },
        {
          "internalType": "uint256",
          "name": "rate",
          "type": "uint256"
        },
        {
          "internalType": "uint256",
          "name": "target",
          "type": "uint256"
        },
        {
          "internalType": "uint256",
          "name": "buffer",
          "type": "uint256"
        },
        {
          "internalType": "uint256",
          "name": "lastBlock",
          "type": "uint256"
        }
      ],
      "stateMutability": "view",
      "type": "function"
    },
    {
      "inputs": [],
      "name": "base",
      "outputs": [
        {
          "internalType": "uint256",
          "name": "",
          "type": "uint256"
        }
      ],
      "stateMutability": "view",
      "type": "function"
    },
    {
      "inputs": [],
      "name": "bondCalculator",
      "outputs": [
        {
          "internalType": "address",
          "name": "",
          "type": "address"
        }
      ],
      "stateMutability": "view",
      "type": "function"
    },
    {
      "inputs": [
        {
          "internalType": "address",
          "name": "",
          "type": "address"
        }
      ],
      "name": "bondInfo",
      "outputs": [
        {
          "internalType": "uint256",
          "name": "payout",
          "type": "uint256"
        },
        {
          "internalType": "uint256",
          "name": "vesting",
          "type": "uint256"
        },
        {
          "internalType": "uint256",
          "name": "lastBlock",
          "type": "uint256"
        },
        {
          "internalType": "uint256",
          "name": "pricePaid",
          "type": "uint256"
        }
      ],
      "stateMutability": "view",
      "type": "function"
    },
    {
      "inputs": [],
      "name": "bondPrice",
      "outputs": [
        {
          "internalType": "uint256",
          "name": "price_",
          "type": "uint256"
        }
      ],
      "stateMutability": "view",
      "type": "function"
    },
    {
      "inputs": [],
      "name": "bondPriceInUSD",
      "outputs": [
        {
          "internalType": "uint256",
          "name": "price_",
          "type": "uint256"
        }
      ],
      "stateMutability": "view",
      "type": "function"
    },
    {
      "inputs": [],
      "name": "currentDebt",
      "outputs": [
        {
          "internalType": "uint256",
          "name": "",
          "type": "uint256"
        }
      ],
      "stateMutability": "view",
      "type": "function"
    },
    {
      "inputs": [],
      "name": "debtDecay",
      "outputs": [
        {
          "internalType": "uint256",
          "name": "decay_",
          "type": "uint256"
        }
      ],
      "stateMutability": "view",
      "type": "function"
    },
    {
      "inputs": [],
      "name": "debtRatio",
      "outputs": [
        {
          "internalType": "uint256",
          "name": "debtRatio_",
          "type": "uint256"
        }
      ],
      "stateMutability": "view",
      "type": "function"
    },
    {
      "inputs": [
        {
          "internalType": "uint256",
          "name": "_amount",
          "type": "uint256"
        },
        {
          "internalType": "uint256",
          "name": "_maxPrice",
          "type": "uint256"
        },
        {
          "internalType": "address",
          "name": "_depositor",
          "type": "address"
        }
      ],
      "name": "deposit",
      "outputs": [
        {
          "internalType": "uint256",
          "name": "",
          "type": "uint256"
        }
      ],
      "stateMutability": "nonpayable",
      "type": "function"
    },
    {
      "inputs": [
        {
          "internalType": "uint256",
          "name": "_controlVariable",
          "type": "uint256"
        },
        {
          "internalType": "uint256",
          "name": "_vestingTerm",
          "type": "uint256"
        },
        {
          "internalType": "uint256",
          "name": "_minimumPrice",
          "type": "uint256"
        },
        {
          "internalType": "uint256",
          "name": "_maxPayout",
          "type": "uint256"
        },
        {
          "internalType": "uint256",
          "name": "_fee",
          "type": "uint256"
        },
        {
          "internalType": "uint256",
          "name": "_maxDebt",
          "type": "uint256"
        },
        {
          "internalType": "uint256",
          "name": "_initialDebt",
          "type": "uint256"
        }
      ],
      "name": "initializeBondTerms",
      "outputs": [],
      "stateMutability": "nonpayable",
      "type": "function"
    },
    {
      "inputs": [],
      "name": "isLiquidityBond",
      "outputs": [
        {
          "internalType": "bool",
          "name": "",
          "type": "bool"
        }
      ],
      "stateMutability": "view",
      "type": "function"
    },
    {
      "inputs": [],
      "name": "lastDecay",
      "outputs": [
        {
          "internalType": "uint256",
          "name": "",
          "type": "uint256"
        }
      ],
      "stateMutability": "view",
      "type": "function"
    },
    {
      "inputs": [],
      "name": "maxPayout",
      "outputs": [
        {
          "internalType": "uint256",
          "name": "",
          "type": "uint256"
        }
      ],
      "stateMutability": "view",
      "type": "function"
    },
    {
      "inputs": [],
      "name": "otherFee",
      "outputs": [
        {
          "internalType": "uint256",
          "name": "",
          "type": "uint256"
        }
      ],
      "stateMutability": "view",
      "type": "function"
    },
    {
      "inputs": [
        {
          "internalType": "uint256",
          "name": "_value",
          "type": "uint256"
        }
      ],
      "name": "payoutFor",
      "outputs": [
        {
          "internalType": "uint256",
          "name": "",
          "type": "uint256"
        }
      ],
      "stateMutability": "view",
      "type": "function"
    },
    {
      "inputs": [
        {
          "internalType": "address",
          "name": "_depositor",
          "type": "address"
        }
      ],
      "name": "pendingPayoutFor",
      "outputs": [
        {
          "internalType": "uint256",
          "name": "pendingPayout_",
          "type": "uint256"
        }
      ],
      "stateMutability": "view",
      "type": "function"
    },
    {
      "inputs": [
        {
          "internalType": "address",
          "name": "_depositor",
          "type": "address"
        }
      ],
      "name": "percentVestedFor",
      "outputs": [
        {
          "internalType": "uint256",
          "name": "percentVested_",
          "type": "uint256"
        }
      ],
      "stateMutability": "view",
      "type": "function"
    },
    {
      "inputs": [],
      "name": "policy",
      "outputs": [
        {
          "internalType": "address",
          "name": "",
          "type": "address"
        }
      ],
      "stateMutability": "view",
      "type": "function"
    },
    {
      "inputs": [],
      "name": "principle",
      "outputs": [
        {
          "internalType": "address",
          "name": "",
          "type": "address"
        }
      ],
      "stateMutability": "view",
      "type": "function"
    },
    {
      "inputs": [],
      "name": "pullManagement",
      "outputs": [],
      "stateMutability": "nonpayable",
      "type": "function"
    },
    {
      "inputs": [
        {
          "internalType": "address",
          "name": "newOwner_",
          "type": "address"
        }
      ],
      "name": "pushManagement",
      "outputs": [],
      "stateMutability": "nonpayable",
      "type": "function"
    },
    {
      "inputs": [
        {
          "internalType": "address",
          "name": "_token",
          "type": "address"
        }
      ],
      "name": "recoverLostToken",
      "outputs": [
        {
          "internalType": "bool",
          "name": "",
          "type": "bool"
        }
      ],
      "stateMutability": "nonpayable",
      "type": "function"
    },
    {
      "inputs": [
        {
          "internalType": "address",
          "name": "_recipient",
          "type": "address"
        },
        {
          "internalType": "bool",
          "name": "_stake",
          "type": "bool"
        }
      ],
      "name": "redeem",
      "outputs": [
        {
          "internalType": "uint256",
          "name": "",
          "type": "uint256"
        }
      ],
      "stateMutability": "nonpayable",
      "type": "function"
    },
    {
      "inputs": [],
      "name": "renounceManagement",
      "outputs": [],
      "stateMutability": "nonpayable",
      "type": "function"
    },
    {
      "inputs": [
        {
          "internalType": "bool",
          "name": "_addition",
          "type": "bool"
        },
        {
          "internalType": "uint256",
          "name": "_increment",
          "type": "uint256"
        },
        {
          "internalType": "uint256",
          "name": "_target",
          "type": "uint256"
        },
        {
          "internalType": "uint256",
          "name": "_buffer",
          "type": "uint256"
        }
      ],
      "name": "setAdjustment",
      "outputs": [],
      "stateMutability": "nonpayable",
      "type": "function"
    },
    {
      "inputs": [
        {
          "internalType": "enum TimeBondDepository.PARAMETER",
          "name": "_parameter",
          "type": "uint8"
        },
        {
          "internalType": "uint256",
          "name": "_input",
          "type": "uint256"
        }
      ],
      "name": "setBondTerms",
      "outputs": [],
      "stateMutability": "nonpayable",
      "type": "function"
    },
    {
      "inputs": [
        {
          "internalType": "address",
          "name": "_DAO",
          "type": "address"
        }
      ],
      "name": "setDaoAddress",
      "outputs": [],
      "stateMutability": "nonpayable",
      "type": "function"
    },
    {
      "inputs": [
        {
          "internalType": "address",
          "name": "_staking",
          "type": "address"
        },
        {
          "internalType": "bool",
          "name": "_helper",
          "type": "bool"
        }
      ],
      "name": "setStaking",
      "outputs": [],
      "stateMutability": "nonpayable",
      "type": "function"
    },
    {
      "inputs": [],
      "name": "staking",
      "outputs": [
        {
          "internalType": "address",
          "name": "",
          "type": "address"
        }
      ],
      "stateMutability": "view",
      "type": "function"
    },
    {
      "inputs": [],
      "name": "stakingHelper",
      "outputs": [
        {
          "internalType": "address",
          "name": "",
          "type": "address"
        }
      ],
      "stateMutability": "view",
      "type": "function"
    },
    {
      "inputs": [],
      "name": "standardizedDebtRatio",
      "outputs": [
        {
          "internalType": "uint256",
          "name": "",
          "type": "uint256"
        }
      ],
      "stateMutability": "view",
      "type": "function"
    },
    {
      "inputs": [],
      "name": "terms",
      "outputs": [
        {
          "internalType": "uint256",
          "name": "controlVariable",
          "type": "uint256"
        },
        {
          "internalType": "uint256",
          "name": "vestingTerm",
          "type": "uint256"
        },
        {
          "internalType": "uint256",
          "name": "minimumPrice",
          "type": "uint256"
        },
        {
          "internalType": "uint256",
          "name": "maxPayout",
          "type": "uint256"
        },
        {
          "internalType": "uint256",
          "name": "fee",
          "type": "uint256"
        },
        {
          "internalType": "uint256",
          "name": "maxDebt",
          "type": "uint256"
        }
      ],
      "stateMutability": "view",
      "type": "function"
    },
    {
      "inputs": [],
      "name": "totalDebt",
      "outputs": [
        {
          "internalType": "uint256",
          "name": "",
          "type": "uint256"
        }
      ],
      "stateMutability": "view",
      "type": "function"
    },
    {
      "inputs": [],
      "name": "treasury",
      "outputs": [
        {
          "internalType": "address",
          "name": "",
          "type": "address"
        }
      ],
      "stateMutability": "view",
      "type": "function"
    },
    {
      "inputs": [],
      "name": "useHelper",
      "outputs": [
        {
          "internalType": "bool",
          "name": "",
          "type": "bool"
        }
      ],
      "stateMutability": "view",
      "type": "function"
    }
  ],
  "bytecode": "0x610120604052601460135560646014553480156200001c57600080fd5b5060405162002c1e38038062002c1e833981810160405260a08110156200004257600080fd5b50805160208201516040808401516060850151608090950151600080546001600160a01b031916331780825593519596949592949391926001600160a01b0392909216917fea8258f2d9ddb679928cf34b78cf645b7feda9acc828e4dd82d014eaae270eba908290a36001600160a01b038516620000bf57600080fd5b6001600160601b0319606086901b166080526001600160a01b038416620000e557600080fd5b6001600160601b0319606085901b1660a0526001600160a01b0383166200010b57600080fd5b6001600160601b0319606084901b1660c0526001600160a01b0382166200013157600080fd5b600280546001600160a01b039384166001600160a01b03199091161790556001600160601b0319606082901b166101005216151560f81b60e05250505060805160601c60a05160601c60c05160601c60e05160f81c6101005160601c6129fd6200022160003980610fbb528061167c5280611912525080610f8d528061164b5280611aed525080610e23528061122452806114845250806105f25280610fea5280611091528061125352806113d6528061142b528061145552806116ab528061183b5250806117d652806117fc52806119605280611b625280611ce75280611dce5280611ee052506129fd6000f3fe608060405234801561001057600080fd5b50600436106102325760003560e01c80637927ebf811610130578063cd1234b3116100b8578063d7ccfb0b1161007c578063d7ccfb0b146105c8578063e0176de8146105d0578063e392a262146105d8578063f5c2ab5b146105e0578063fc7b9c18146105e857610232565b8063cd1234b314610503578063cea55f571461054f578063d4d863ce14610557578063d502562514610585578063d7969060146105c057610232565b806398fabd3a116100ff57806398fabd3a1461049f5780639a3cac6a146104a7578063a6c41fec146104cd578063b4abccba146104d5578063c5332b7c146104fb57610232565b80637927ebf814610440578063844b5c7c1461045d5780638dbdbe6d14610465578063904b3ece1461049757610232565b8063451ee4a1116101be5780635a96ac0a116101825780635a96ac0a146103df57806361d027b3146103e757806371535008146103ef578063759076e51461043057806377b818951461043857610232565b8063451ee4a11461034e57806346f68ee9146103835780634cf088d9146103a95780635001f3b5146103b1578063507930ec146103b957610232565b80631a3d0068116102055780631a3d0068146102a55780631e321a0f146102d65780631feed31f146102fc5780632f3f470a1461032a578063343ab2161461034657610232565b8063016a42841461023757806301b88ee81461025b5780630505c8c914610293578063089208d81461029b575b600080fd5b61023f6105f0565b604080516001600160a01b039092168252519081900360200190f35b6102816004803603602081101561027157600080fd5b50356001600160a01b0316610614565b60408051918252519081900360200190f35b61023f61066d565b6102a361067d565b005b6102a3600480360360808110156102bb57600080fd5b50803515159060208101359060408101359060600135610714565b6102a3600480360360408110156102ec57600080fd5b5060ff813516906020013561080c565b6102816004803603604081101561031257600080fd5b506001600160a01b03813516906020013515156109c0565b610332610bb5565b604080519115158252519081900360200190f35b610281610bc5565b610356610bcb565b60408051951515865260208601949094528484019290925260608401526080830152519081900360a00190f35b6102a36004803603602081101561039957600080fd5b50356001600160a01b0316610be3565b61023f610cd0565b610281610cdf565b610281600480360360208110156103cf57600080fd5b50356001600160a01b0316610ce5565b6102a3610d77565b61023f610e21565b6102a3600480360360e081101561040557600080fd5b5080359060208101359060408101359060608101359060808101359060a08101359060c00135610e45565b610281610f39565b61023f610f54565b6102816004803603602081101561045657600080fd5b5035610f63565b610281610f89565b6102816004803603606081101561047b57600080fd5b50803590602081013590604001356001600160a01b0316611122565b610281611647565b61023f611743565b6102a3600480360360208110156104bd57600080fd5b50356001600160a01b0316611752565b61023f6117d4565b610332600480360360208110156104eb57600080fd5b50356001600160a01b03166117f8565b61023f611910565b6105296004803603602081101561051957600080fd5b50356001600160a01b0316611934565b604080519485526020850193909352838301919091526060830152519081900360800190f35b61028161195b565b6102a36004803603604081101561056d57600080fd5b506001600160a01b0381351690602001351515611a13565b61058d611ad6565b604080519687526020870195909552858501939093526060850191909152608084015260a0830152519081900360c00190f35b610332611aeb565b610281611b0f565b610281611b4e565b610281611beb565b610281611c30565b610281611c36565b7f000000000000000000000000000000000000000000000000000000000000000081565b60008061062083610ce5565b6001600160a01b038416600090815260106020526040902054909150612710821061064d57809250610666565b61066361271061065d8385611c3c565b90611c9c565b92505b5050919050565b6000546001600160a01b03165b90565b6000546001600160a01b031633146106ca576040805162461bcd60e51b81526020600482018190526024820152600080516020612937833981519152604482015290519081900360640190fd5b600080546040516001600160a01b03909116907fea8258f2d9ddb679928cf34b78cf645b7feda9acc828e4dd82d014eaae270eba908390a3600080546001600160a01b0319169055565b6000546001600160a01b03163314610761576040805162461bcd60e51b81526020600482018190526024820152600080516020612937833981519152604482015290519081900360640190fd5b600554610777906103e89061065d906019611c3c565b8311156107c1576040805162461bcd60e51b8152602060048201526013602482015272496e6372656d656e7420746f6f206c6172676560681b604482015290519081900360640190fd5b6040805160a0810182529415158086526020860185905290850183905260608501829052436080909501859052600b805460ff19169091179055600c92909255600d55600e55600f55565b6000546001600160a01b03163314610859576040805162461bcd60e51b81526020600482018190526024820152600080516020612937833981519152604482015290519081900360640190fd5b600082600381111561086757fe5b14156108b8576127108110156108ae5760405162461bcd60e51b815260040180806020018281038252602481526020018061297a6024913960400191505060405180910390fd5b60068190556109bc565b60018260038111156108c657fe5b141561092d576103e8811115610923576040805162461bcd60e51b815260206004820181905260248201527f5061796f75742063616e6e6f742062652061626f766520312070657263656e74604482015290519081900360640190fd5b60088190556109bc565b600282600381111561093b57fe5b14156109a257612710811115610998576040805162461bcd60e51b815260206004820152601c60248201527f44414f206665652063616e6e6f7420657863656564207061796f757400000000604482015290519081900360640190fd5b60098190556109bc565b60038260038111156109b057fe5b14156109bc57600a8190555b5050565b60006109ca61286d565b506001600160a01b038316600090815260106020908152604080832081516080810183528154815260018201549381019390935260028101549183019190915260030154606082015290610a1d85610ce5565b90506127108110610aad576001600160a01b03851660008181526010602090815260408083208381556001810184905560028101849055600301839055855181519081529182019290925281517f51c99f515c87b0d95ba97f616edd182e8f161c4932eac17c6fefe9dab58b77b1929181900390910190a2610aa485858460000151611cde565b92505050610baf565b8151600090610ac4906127109061065d9085611c3c565b90506040518060800160405280610ae8838660000151611fe190919063ffffffff16565b8152602001610b12610b07866040015143611fe190919063ffffffff16565b602087015190611fe1565b8152436020808301919091526060808701516040938401526001600160a01b038a166000818152601084528490208551808255868501516001830155868601516002830155959092015160039092019190915582518581529182019390935281517f51c99f515c87b0d95ba97f616edd182e8f161c4932eac17c6fefe9dab58b77b1929181900390910190a2610ba9868683611cde565b93505050505b92915050565b600454600160a01b900460ff1681565b60135481565b600b54600c54600d54600e54600f5460ff9094169385565b6000546001600160a01b03163314610c30576040805162461bcd60e51b81526020600482018190526024820152600080516020612937833981519152604482015290519081900360640190fd5b6001600160a01b038116610c755760405162461bcd60e51b81526004018080602001828103825260268152602001806128a86026913960400191505060405180910390fd5b600080546040516001600160a01b03808516939216917fea8258f2d9ddb679928cf34b78cf645b7feda9acc828e4dd82d014eaae270eba91a3600180546001600160a01b0319166001600160a01b0392909216919091179055565b6003546001600160a01b031681565b60145481565b6000610cef61286d565b506001600160a01b03821660009081526010602090815260408083208151608081018352815481526001820154938101939093526002810154918301829052600301546060830152909190610d45904390611fe1565b60208301519091508015610d6a57610d638161065d84612710611c3c565b9350610d6f565b600093505b505050919050565b6001546001600160a01b03163314610dc05760405162461bcd60e51b81526004018080602001828103825260228152602001806128ce6022913960400191505060405180910390fd5b600154600080546040516001600160a01b0393841693909116917faa151555690c956fc3ea32f106bb9f119b5237a061eaa8557cff3e51e3792c8d91a3600154600080546001600160a01b0319166001600160a01b03909216919091179055565b7f000000000000000000000000000000000000000000000000000000000000000081565b6000546001600160a01b03163314610e92576040805162461bcd60e51b81526020600482018190526024820152600080516020612937833981519152604482015290519081900360640190fd5b60055415610ee7576040805162461bcd60e51b815260206004820181905260248201527f426f6e6473206d75737420626520696e697469616c697a65642066726f6d2030604482015290519081900360640190fd5b6040805160c08101825288815260208101889052908101869052606081018590526080810184905260a001829052600596909655600694909455600792909255600855600955600a5560115543601255565b6000610f4f610f46611beb565b60115490611fe1565b905090565b6004546001600160a01b031681565b6000610baf662386f26fc1000061065d610f8485610f7f611b0f565b612023565b61219a565b60007f00000000000000000000000000000000000000000000000000000000000000001561108757611080606461065d7f00000000000000000000000000000000000000000000000000000000000000006001600160a01b03166332da80a37f00000000000000000000000000000000000000000000000000000000000000006040518263ffffffff1660e01b815260040180826001600160a01b0316815260200191505060206040518083038186803b15801561104657600080fd5b505afa15801561105a573d6000803e3d6000fd5b505050506040513d602081101561107057600080fd5b505161107a611b0f565b90611c3c565b905061067a565b610f4f606461065d7f00000000000000000000000000000000000000000000000000000000000000006001600160a01b031663313ce5676040518163ffffffff1660e01b815260040160206040518083038186803b1580156110e857600080fd5b505afa1580156110fc573d6000803e3d6000fd5b505050506040513d602081101561111257600080fd5b505160ff16600a0a61107a611b0f565b60006001600160a01b038216611171576040805162461bcd60e51b815260206004820152600f60248201526e496e76616c6964206164647265737360881b604482015290519081900360640190fd5b6111796121b2565b600a5460115411156111c9576040805162461bcd60e51b815260206004820152601460248201527313585e0818d85c1858da5d1e481c995858da195960621b604482015290519081900360640190fd5b60006111d3610f89565b905060006111df6121c6565b9050808510156112205760405162461bcd60e51b81526004018080602001828103825260238152602001806129576023913960400191505060405180910390fd5b60007f00000000000000000000000000000000000000000000000000000000000000006001600160a01b0316631eec5a9a7f0000000000000000000000000000000000000000000000000000000000000000896040518363ffffffff1660e01b815260040180836001600160a01b031681526020018281526020019250505060206040518083038186803b1580156112b757600080fd5b505afa1580156112cb573d6000803e3d6000fd5b505050506040513d60208110156112e157600080fd5b5051905060006112f082610f63565b90506298968081101561133b576040805162461bcd60e51b815260206004820152600e60248201526d109bdb99081d1bdbc81cdb585b1b60921b604482015290519081900360640190fd5b611343611b4e565b811115611388576040805162461bcd60e51b815260206004820152600e60248201526d426f6e6420746f6f206c6172676560901b604482015290519081900360640190fd5b60006113a861271061065d60056004015485611c3c90919063ffffffff16565b905060006113c760145461065d6013548d611c3c90919063ffffffff16565b90506114126001600160a01b037f0000000000000000000000000000000000000000000000000000000000000000163373f39fd6e51aad88f6f4ce6ab8827279cfffb9226684612208565b61145333306114218d85611fe1565b6001600160a01b037f000000000000000000000000000000000000000000000000000000000000000016929190612208565b7f00000000000000000000000000000000000000000000000000000000000000006001600160a01b031663095ea7b37f00000000000000000000000000000000000000000000000000000000000000008c6040518363ffffffff1660e01b815260040180836001600160a01b0316815260200182815260200192505050602060405180830381600087803b1580156114ea57600080fd5b505af11580156114fe573d6000803e3d6000fd5b505050506040513d602081101561151457600080fd5b50506011546115239085612268565b601155604080516080810182526001600160a01b038a1660009081526010602052919091205481906115559086612268565b81526006805460208084019190915243604080850182905260609485018c90526001600160a01b038e1660009081526010845281902086518155928601516001840155850151600283015593909201516003909201919091555487916115ba91612268565b604080518d8152905186917f1fec6dc81f140574bf43f6b1e420ae1dd47928b9d57db8cbd7b8611063b85ae5919081900360200190a46115f861195b565b6116006121c6565b611608610f89565b6040517f375b221f40939bfd8f49723a17cf7bc6d576ebf72efe2cc3e991826f5b3f390a90600090a46116396122c2565b509098975050505050505050565b60007f00000000000000000000000000000000000000000000000000000000000000001561173b57611080633b9aca0061065d7f00000000000000000000000000000000000000000000000000000000000000006001600160a01b03166332da80a37f00000000000000000000000000000000000000000000000000000000000000006040518263ffffffff1660e01b815260040180826001600160a01b0316815260200191505060206040518083038186803b15801561170757600080fd5b505afa15801561171b573d6000803e3d6000fd5b505050506040513d602081101561173157600080fd5b505161107a61195b565b61108061195b565b6002546001600160a01b031681565b6000546001600160a01b0316331461179f576040805162461bcd60e51b81526020600482018190526024820152600080516020612937833981519152604482015290519081900360640190fd5b6001600160a01b0381166117b257600080fd5b600280546001600160a01b0319166001600160a01b0392909216919091179055565b7f000000000000000000000000000000000000000000000000000000000000000081565b60007f00000000000000000000000000000000000000000000000000000000000000006001600160a01b0316826001600160a01b0316141561183957600080fd5b7f00000000000000000000000000000000000000000000000000000000000000006001600160a01b0316826001600160a01b0316141561187857600080fd5b600254604080516370a0823160e01b81523060048201529051611908926001600160a01b0390811692908616916370a0823191602480820192602092909190829003018186803b1580156118cb57600080fd5b505afa1580156118df573d6000803e3d6000fd5b505050506040513d60208110156118f557600080fd5b50516001600160a01b03851691906123a2565b506001919050565b7f000000000000000000000000000000000000000000000000000000000000000081565b60106020526000908152604090208054600182015460028301546003909301549192909184565b6000807f00000000000000000000000000000000000000000000000000000000000000006001600160a01b03166318160ddd6040518163ffffffff1660e01b815260040160206040518083038186803b1580156119b757600080fd5b505afa1580156119cb573d6000803e3d6000fd5b505050506040513d60208110156119e157600080fd5b50519050611a0d670de0b6b3a764000061065d610f84611a07633b9aca0061107a610f39565b85612023565b91505090565b6000546001600160a01b03163314611a60576040805162461bcd60e51b81526020600482018190526024820152600080516020612937833981519152604482015290519081900360640190fd5b6001600160a01b038216611a7357600080fd5b8015611aa85760048054600160a01b60ff60a01b19909116176001600160a01b0319166001600160a01b0384161790556109bc565b6004805460ff60a01b19169055600380546001600160a01b0384166001600160a01b03199091161790555050565b600554600654600754600854600954600a5486565b7f000000000000000000000000000000000000000000000000000000000000000081565b6000611b3a6298968061065d633b9aca00611b34611b2b61195b565b60055490611c3c565b90612268565b60075490915081101561067a575060075490565b6000610f4f620186a061065d6005600301547f00000000000000000000000000000000000000000000000000000000000000006001600160a01b03166318160ddd6040518163ffffffff1660e01b815260040160206040518083038186803b158015611bb957600080fd5b505afa158015611bcd573d6000803e3d6000fd5b505050506040513d6020811015611be357600080fd5b505190611c3c565b600080611c0360125443611fe190919063ffffffff16565b600654601154919250611c1a9161065d9084611c3c565b9150601154821115611c2c5760115491505b5090565b60125481565b60115481565b600082611c4b57506000610baf565b82820282848281611c5857fe5b0414611c955760405162461bcd60e51b81526004018080602001828103825260218152602001806129166021913960400191505060405180910390fd5b9392505050565b6000611c9583836040518060400160405280601a81526020017f536166654d6174683a206469766973696f6e206279207a65726f0000000000008152506123f9565b600082611d8e577f00000000000000000000000000000000000000000000000000000000000000006001600160a01b031663a9059cbb85846040518363ffffffff1660e01b815260040180836001600160a01b0316815260200182815260200192505050602060405180830381600087803b158015611d5c57600080fd5b505af1158015611d70573d6000803e3d6000fd5b505050506040513d6020811015611d8657600080fd5b50611fda9050565b600454600160a01b900460ff1615611eb457600480546040805163095ea7b360e01b81526001600160a01b039283169381019390935260248301859052517f00000000000000000000000000000000000000000000000000000000000000009091169163095ea7b39160448083019260209291908290030181600087803b158015611e1857600080fd5b505af1158015611e2c573d6000803e3d6000fd5b505050506040513d6020811015611e4257600080fd5b50506004805460408051637acb775760e01b81529283018590526001600160a01b0387811660248501529051911691637acb775791604480830192600092919082900301818387803b158015611e9757600080fd5b505af1158015611eab573d6000803e3d6000fd5b50505050611fda565b6003546040805163095ea7b360e01b81526001600160a01b0392831660048201526024810185905290517f00000000000000000000000000000000000000000000000000000000000000009092169163095ea7b3916044808201926020929091908290030181600087803b158015611f2b57600080fd5b505af1158015611f3f573d6000803e3d6000fd5b505050506040513d6020811015611f5557600080fd5b505060035460408051637acb775760e01b8152600481018590526001600160a01b03878116602483015291519190921691637acb77579160448083019260209291908290030181600087803b158015611fad57600080fd5b505af1158015611fc1573d6000803e3d6000fd5b505050506040513d6020811015611fd757600080fd5b50505b5092915050565b6000611c9583836040518060400160405280601e81526020017f536166654d6174683a207375627472616374696f6e206f766572666c6f77000081525061249b565b61202b612895565b6000821161206a5760405162461bcd60e51b81526004018080602001828103825260268152602001806128f06026913960400191505060405180910390fd5b826120845750604080516020810190915260008152610baf565b71ffffffffffffffffffffffffffffffffffff831161212b57600082607085901b816120ac57fe5b0490506001600160e01b0381111561210b576040805162461bcd60e51b815260206004820152601e60248201527f4669786564506f696e743a3a6672616374696f6e3a206f766572666c6f770000604482015290519081900360640190fd5b6040518060200160405280826001600160e01b0316815250915050610baf565b600061213c84600160701b856124f5565b90506001600160e01b0381111561210b576040805162461bcd60e51b815260206004820152601e60248201527f4669786564506f696e743a3a6672616374696f6e3a206f766572666c6f770000604482015290519081900360640190fd5b516612725dd1d243ab6001600160e01b039091160490565b6121bd610f46611beb565b60115543601255565b60006121e26298968061065d633b9aca00611b34611b2b61195b565b6007549091508110156121f8575060075461067a565b6007541561067a57600060075590565b604080516001600160a01b0380861660248301528416604482015260648082018490528251808303909101815260849091019091526020810180516001600160e01b03166323b872dd60e01b179052612262908590612595565b50505050565b600082820183811015611c95576040805162461bcd60e51b815260206004820152601b60248201527f536166654d6174683a206164646974696f6e206f766572666c6f770000000000604482015290519081900360640190fd5b600e54600f546000916122d59190612268565b600c54909150158015906122e95750804310155b1561239f57600554600b5460ff161561232357600c5460055461230b91612268565b6005819055600d541161231e576000600c555b612345565b600c5460055461233291611fe1565b6005819055600d5410612345576000600c555b43600f55600554600c54600b546040805185815260208101949094528381019290925260ff1615156060830152517fb923e581a0f83128e9e1d8297aa52b18d6744310476e0b54509c054cd7a93b2a9181900360800190a1505b50565b604080516001600160a01b038416602482015260448082018490528251808303909101815260649091019091526020810180516001600160e01b031663a9059cbb60e01b1790526123f4908490612595565b505050565b600081836124855760405162461bcd60e51b81526004018080602001828103825283818151815260200191508051906020019080838360005b8381101561244a578181015183820152602001612432565b50505050905090810190601f1680156124775780820380516001836020036101000a031916815260200191505b509250505060405180910390fd5b50600083858161249157fe5b0495945050505050565b600081848411156124ed5760405162461bcd60e51b815260206004820181815283516024840152835190928392604490910191908501908083836000831561244a578181015183820152602001612432565b505050900390565b60008060006125048686612646565b915091506000848061251257fe5b868809905082811115612526576001820391505b808303925084821061257f576040805162461bcd60e51b815260206004820152601a60248201527f46756c6c4d6174683a3a6d756c4469763a206f766572666c6f77000000000000604482015290519081900360640190fd5b61258a838387612673565b979650505050505050565b60606125ea826040518060400160405280602081526020017f5361666545524332303a206c6f772d6c6576656c2063616c6c206661696c6564815250856001600160a01b03166126e39092919063ffffffff16565b8051909150156123f45780806020019051602081101561260957600080fd5b50516123f45760405162461bcd60e51b815260040180806020018281038252602a81526020018061299e602a913960400191505060405180910390fd5b600080806000198486099050838502925082810391508281101561266b576001820391505b509250929050565b6000818103821680838161268357fe5b04925080858161268f57fe5b04945080816000038161269e57fe5b60028581038087028203028087028203028087028203028087028203028087028203028087028203029586029003909402930460010193909302939093010292915050565b60606126f284846000856126fa565b949350505050565b606061270585612867565b612756576040805162461bcd60e51b815260206004820152601d60248201527f416464726573733a2063616c6c20746f206e6f6e2d636f6e7472616374000000604482015290519081900360640190fd5b60006060866001600160a01b031685876040518082805190602001908083835b602083106127955780518252601f199092019160209182019101612776565b6001836020036101000a03801982511681845116808217855250505050505090500191505060006040518083038185875af1925050503d80600081146127f7576040519150601f19603f3d011682016040523d82523d6000602084013e6127fc565b606091505b509150915081156128105791506126f29050565b8051156128205780518082602001fd5b60405162461bcd60e51b815260206004820181815286516024840152865187939192839260440191908501908083836000831561244a578181015183820152602001612432565b3b151590565b6040518060800160405280600081526020016000815260200160008152602001600081525090565b6040805160208101909152600081529056fe4f776e61626c653a206e6577206f776e657220697320746865207a65726f20616464726573734f776e61626c653a206d757374206265206e6577206f776e657220746f2070756c6c4669786564506f696e743a3a6672616374696f6e3a206469766973696f6e206279207a65726f536166654d6174683a206d756c7469706c69636174696f6e206f766572666c6f774f776e61626c653a2063616c6c6572206973206e6f7420746865206f776e6572536c697070616765206c696d69743a206d6f7265207468616e206d617820707269636556657374696e67206d757374206265206c6f6e676572207468616e20333620686f7572735361666545524332303a204552433230206f7065726174696f6e20646964206e6f742073756363656564a26469706673582212207c37f0ff70cd631e122c5ac36f3622200294c7bcf374fbd5a41b846ae80d105764736f6c63430007050033",
  "linkReferences": {},
  "deployedLinkReferences": {}
}